:020000040800F2
:10000000005000203D440008D90B0008E50B000813
:10001000ED0B0008F50B0008FD0B000800000000C8
:100020000000000000000000000000004111000876
:10003000050C000800000000F1120008110C000877
:10004000854400088544000885440008854400086C
:10005000854400088544000885440008854400085C
:100060008544000885440008854400081D0C0008EC
:10007000854400082D0C00083D0C00084D0C0008BC
:100080005D0C00086D0C00088544000885440008DC
:10009000854400088544000885440008854400081C
:1000A000854400087D0C000885440008854400084C
:1000B00085440008854400088544000885440008FC
:1000C00085440008854400088544000885440008EC
:1000D00085440008854400088544000885440008DC
:1000E000854400088544000885440008000000009D
:1000F0000000000000000000000000000000000000
:0C01000000000000000000005FF808F1A3
:10011000044B05481B1A062B02D9044B03B11847A0
:10012000704700BF0F0000200C00002000000000FE
:1001300005490648091A891001EBD171491002D00E
:10014000034B03B1184770470C0000200C0000203F
:100150000000000010B5064C237843B9FFF7D8FF24
:10016000044B13B10448AFF300800123237010BD8A
:100170000C00002000000000D444000808B5084B23
:100180001BB108480849AFF300800848036813B959
:10019000BDE80840CCE7064B002BF9D09847F7E7BD
:1001A00000000000D4440008100000200C000020D3
:1001B00000000000B0B586B000AF01F0B7FE00F05F
:1001C00025F800F0FDF900F0B7F900F0B7F800F0FD
:1001D00057F900F083F900F0E3F800F06FF8094BED
:1001E0003C1D1D460FCD0FC42B6823603B1D1846D8
:1001F000002101F0F9F80246034B1A6001F0ECF817
:10020000FEE700BFF8440008740D002080B594B0EC
:1002100000AF0223BB620123BB631023FB630023F7
:100220007B6407F12803184602F0DCFD0346002B2F
:1002300003D02048CE2100F01DFA0F237B6100235C
:10024000BB610023FB6100233B6200237B6207F15B
:1002500014031846002103F027F80346002B03D0AF
:100260001448DC2100F006FA02237B600023FB60C7
:100270003B1D184603F0F4F90346002B03D00D484C
:10028000E32100F0F7F903F069F902460A4BA3FBFA
:1002900002239B09184602F083F9042002F08CF92E
:1002A0004FF0FF300F21002202F050F95037BD46C9
:1002B00080BD00BF0C450008D34D621080B584B0EE
:1002C00000AF1B4B1B4A1A60194B00229A60184B57
:1002D0000022DA60164B00225A61154B4FF460225F
:1002E000DA61134B00225A60114B01221A61104847
:1002F00001F050FE0346002B04D00F4840F20311DA
:1003000000F0B8F903237B600123BB600023FB608E
:100310003B1D0748194601F015FF0346002B04D08A
:10032000054840F20D1100F0A5F91037BD4680BD1B
:10033000D80E0020002401400C45000880B500AF15
:10034000134B144A1A60124B134A5A60104B002286
:100350009A600F4B0022DA600D4B4FF480421A6115
:100360000B4B00225A610A4B00229A61084B002273
:10037000DA61074B00221A62054802F02FFC03469F
:10038000002B04D0054840F2211100F073F980BD24
:10039000400E002000540040A08601000C450008DB
:1003A00080B58AB000AF344B4FF080421A60324BB8
:1003B00000225A60304B00229A602F4B0022DA60F4
:1003C0002D4B00221A612C4B00229A612A4803F01F
:1003D0004FFA0346002B04D0284840F2351100F0B4
:1003E00049F900233B6200237B6207F12003224886
:1003F000194603F065FE0346002B04D01F484FF456
:100400009E7100F037F960237B600023BB600023FE
:10041000FB6000237B613B1D17481946002203F057
:100420005BFB0346002B04D0144840F2451100F05A
:1004300021F93B1D10481946042203F04DFB0346E9
:10044000002B04D00D484FF4A57100F013F93B1DAB
:1004500009481946082203F03FFB0346002B04D04D
:10046000064840F24F1100F005F9034800F052FA37
:100470002837BD4680BD00BF141000200C45000881
:1004800080B500AF124B134A1A60114B4FF4E132A2
:100490005A600F4B00229A600D4B0022DA600C4B21
:1004A00000221A610A4B0C225A61094B00229A6100
:1004B000074B0022DA61064803F05CFE0346002B7E
:1004C00004D005484FF4B27100F0D4F880BD00BFED
:1004D0004C0F0020003801400C45000880B500AFEB
:1004E000124B134A1A60114B4FF4E1325A600F4B12
:1004F00000229A600D4B0022DA600C4B00221A6138
:100500000A4B0C225A61094B00229A61074B0022C8
:10051000DA61064803F02EFE0346002B04D005489E
:1005200040F2771100F0A6F880BD00BFBC0D00209E
:10053000004800400C45000880B582B000AF1F4A5B
:100540001E4B5B6943F0010353611C4B5B6903F075
:1005500001037B607B680B200521002201F0F6FF80
:100560000B2002F00FF80D200521002201F0EEFF14
:100570000D2002F007F80E200521002201F0E6FF11
:100580000E2001F0FFFF0F200521002201F0DEFF09
:100590000F2001F0F7FF10200521002201F0D6FF07
:1005A000102001F0EFFF11200521002201F0CEFF05
:1005B000112001F0E7FF0837BD4680BD0010024062
:1005C00080B588B000AF1D4A1C4B9B6943F01003F7
:1005D00093611A4B9B6903F01003FB60FB68174A99
:1005E000164B9B6943F004039361144B9B6903F022
:1005F0000403BB60BB68114A104B9B6943F00803BE
:1006000093610E4B9B6903F008037B607B680C4889
:100610004FF40051002202F0C9FA4FF400533B613D
:1006200001237B610223FB6107F110030448194693
:1006300002F05EF92037BD4680BD00BF00100240C9
:100640000010014080B582B000AF7860012000F05A
:10065000F3FEFBE780B582B000AF78607B681B6873
:10066000034A934201D101F077FC0837BD4680BDB3
:10067000002C014080B483B000AF78603960FEE7A1
:1006800080B582B000AF254A244B9B6943F001033B
:100690009361224B9B6903F001033B603B6803209D
:1006A00001F04AFF6FF00B000021002201F04EFF25
:1006B0006FF00A000021002201F048FF6FF00900EE
:1006C0000021002201F042FF6FF00400002100220F
:1006D00001F03CFF6FF003000021002201F036FF23
:1006E0006FF001000F21002201F030FF4FF0FF30CA
:1006F0000F21002201F02AFF094B5B687B607B68B9
:1007000023F0E0637B607B6843F000737B60044A06
:100710007B6853600837BD4680BD00BF00100240B3
:100720000000014080B588B000AF78607B681B682E
:10073000224A93423FD1224A214B9B6943F40073E2
:1007400093611F4B9B6903F40073FB60FB683823C4
:100750003B6103237B6107F110031A48194602F03D
:10076000C7F8194B194A1A60174B00225A60164BEA
:1007700000229A60144B8022DA60134B4FF480728F
:100780001A61114B4FF480625A610F4B00229A613B
:100790000D4B0022DA610C4801F02AFF0346002BC2
:1007A00003D00B488B21FFF765FF7B68064A1A626E
:1007B000054A7B6853622037BD4680BD0024014056
:1007C00000100240000801408C0F00200800024089
:1007D0001C45000880B588B000AF78607B681B6856
:1007E000364A934267D1C0233B6112237B610323C6
:1007F000FB6107F110033248194602F079F8314ADB
:10080000304BDB6943F40013D3612E4BDB6903F4F7
:100810000013FB60FB682C4B2C4A1A602A4B002209
:100820005A60294B00229A60274B8022DA60264BBF
:1008300000221A61244B00225A61234B00229A6144
:10084000214B0022DA61204801F0D2FE0346002B42
:1008500003D01F48D421FFF70DFF7B681A4A9A6323
:10086000194A7B6853621B4B1B4A1A60194B1022B2
:100870005A60184B00229A60164B8022DA60154BA2
:1008800000221A61134B00225A61124B00229A6116
:10089000104B0022DA610F4801F0AAFE0346002B3C
:1008A00003D00B48E421FFF7E5FE7B68094A5A6351
:1008B000084A7B6853622037BD4680BD0054004023
:1008C000000C014000100240D00F002080000240C8
:1008D0001C450008FC0D00206C00024080B485B06F
:1008E00000AF78607B681B68B3F1804F0BD1084A7A
:1008F000074BDB6943F00103D361054BDB6903F070
:100900000103FB60FB681437BD465DF8047B70474C
:100910000010024080B586B000AF78607B681B682D
:10092000B3F1804F0BD10723BB600223FB6002238E
:100930007B6107F108030348194601F0D9FF183716
:10094000BD4680BD0008014080B588B000AF78602A
:100950007B681B68694A934278D1694A684B9B69F6
:1009600043F480439361664B9B6903F48043FB60CF
:10097000FB684FF400733B6102237B610323FB613F
:1009800007F110035F48194601F0B2FF4FF480638E
:100990003B6100237B610023BB6107F110035948D1
:1009A000194601F0A5FF584B584A1A60564B0022D1
:1009B0005A60554B00229A60534B8022DA60524BAA
:1009C00000221A61504B00225A614F4B00229A615B
:1009D0004D4B0022DA614C4801F00AFE0346002B21
:1009E00004D04B484FF4B771FFF744FE7B68464A8A
:1009F0005A63454A7B685362464B474A1A60454BE7
:100A000010225A60434B00229A60424B8022DA60E7
:100A1000404B00221A613F4B00225A613D4B00229D
:100A20009A613C4B0022DA613A4801F0E1FD03464D
:100A3000002B04D036484FF4BF71FFF71BFE7B68D4
:100A4000344A1A63334A7B68536253E07B681B68FD
:100A5000324A93424ED12A4A294BDB6943F4802320
:100A6000D361274BDB6903F48023BB60BB684FF481
:100A700080633B6102237B610323FB6107F1100369
:100A80002748194601F034FF4FF400633B6100230F
:100A90007B610023BB6107F110032148194601F077
:100AA00027FF204B204A1A601E4B00225A601D4B24
:100AB00000229A601B4B8022DA601A4B00221A61D6
:100AC000184B00225A61174B00229A61154B0022E5
:100AD000DA61144801F08CFD0346002B04D00C4869
:100AE00040F2A911FFF7C6FD7B680E4A5A630D4A12
:100AF0007B6853622037BD4680BD00BF003801408F
:100B00000010024000080140080F00205800024079
:100B10001C450008940E002044000240004800409C
:100B2000000C0140780D00203000024080B58CB0F0
:100B300000AF78600023FB620023BB621920796854
:100B4000002201F003FD192001F01CFD1E4A1E4B7E
:100B50009B6943F4006393611B4B9B6903F400633F
:100B6000FB60FB6807F1140207F1100310461946F9
:100B700002F028FD02F012FDF862FB6A134AA2FBA4
:100B800003239B0C013BBB62114B124A1A60104BB2
:100B900040F2E732DA600E4ABB6A53600C4B002227
:100BA0001A610B4B00229A60094802F00FFE0346BF
:100BB000002B04D1064802F03FFE034600E001236B
:100BC00018463037BD4680BD0010024083DE1B430F
:100BD00054100020002C014080B400AFBD465DF8E9
:100BE000047B704780B400AFFEE700BF80B400AF65
:100BF000FEE700BF80B400AFFEE700BF80B400AFE7
:100C0000FEE700BF80B400AFBD465DF8047B7047CF
:100C100080B500AF00F024FC80BD00BF80B500AF00
:100C2000014801F04DFD80BD8C0F002080B500AF64
:100C3000014801F045FD80BD780D002080B500AF72
:100C4000014801F03DFD80BD940E002080B500AF4D
:100C5000014801F035FD80BD080F002080B500AFD0
:100C6000014801F02DFD80BDFC0D002080B500AFD6
:100C7000014801F025FD80BDD00F002080B500AFF8
:100C8000014802F021FE80BD5410002080B400AF66
:100C9000154A154B1B6843F0010313601249124BB0
:100CA0005A68124B13404B600F4A0F4B1B6823F0DE
:100CB000847323F4803313600B4A0B4B1B6823F4BB
:100CC00080231360084A084B5B6823F4FE035360DB
:100CD000054B4FF41F029A60054B4FF000629A607B
:100CE000BD465DF8047B7047001002400000FFF82D
:100CF00000ED00E080B58AB000AF78600023FB61B2
:100D000000F00AFE574B1B68002B01D100F00CF9D4
:100D1000554B1A687B681340002B40F08C807B6831
:100D2000002B1CD008227B6813447B607B6803F097
:100D30000703002B13D07B6823F0070308337B6085
:100D40007B6803F00703002B09D04FF0500383F3B7
:100D50001188BFF36F8FBFF34F8F7B61FEE77B6816
:100D6000002B68D0414B1B687A689A4263D8404B8D
:100D70003B623F4B1B687B6204E07B6A3B627B6AA1
:100D80001B687B627B6A5A687B689A4203D27B6AE3
:100D90001B68002BF1D1334B1B687A6A9A424AD008
:100DA0003B6A1B6808221344FB617B6A1A683B6A32
:100DB0001A607B6A5A687B68D21A08235B009A42E1
:100DC0001ED97A6A7B681344BB61BB6903F00703D1
:100DD000002B09D04FF0500383F31188BFF36F8FBE
:100DE000BFF34F8F3B61FEE77B6A5A687B68D21A7C
:100DF000BB695A607B6A7A685A60B86900F0F6F895
:100E00001A4B1A687B6A5B68D31A184A1360174B2F
:100E10001A68184B1B689A4203D2144B1B68154A78
:100E200013607B6A5A68104B1B681A437B6A5A60CE
:100E30007B6A00221A6000F07DFDFB6903F0070366
:100E4000002B09D04FF0500383F31188BFF36F8F4D
:100E5000BFF34F8FFB60FEE7FB6918462837BD469E
:100E600080BD00BF300C00203C0C0020340C002062
:100E7000280C0020380C002080B586B000AF7860C8
:100E80007B687B617B68002B46D008235B427A69D4
:100E900013447B617B693B613B695A68204B1B684B
:100EA0001340002B09D14FF0500383F31188BFF397
:100EB0006F8FBFF34F8FFB60FEE73B691B68002B12
:100EC00009D04FF0500383F31188BFF36F8FBFF346
:100ED0004F8FBB60FEE73B695A68114B1B6813409C
:100EE000002B19D03B691B68002B15D13B695A6850
:100EF0000B4B1B68DB431A403B695A6000F00CFD4A
:100F00003B695A68074B1B681344064A13603869EB
:100F100000F06CF800F00EFD1837BD4680BD00BF34
:100F20003C0C0020340C002080B485B000AF4FF49E
:100F30004063BB60274BFB60FB6803F00703002B9B
:100F40000CD0FB680733FB60FB6823F00703FB60F2
:100F5000BA68FB68D31A1F4A1344BB60FB687B6006
:100F60001D4A7B6813601C4B00225A607A68BB687C
:100F70001344FB600822FB689B1AFB60FB6823F0AC
:100F80000703FB60FB68154A1360144B1B680022C3
:100F90005A60124B1B6800221A607B683B603B68FA
:100FA000FA68D21A3B685A600C4B1A683B681A60A0
:100FB0003B685B680A4A13603B685B68094A1360D8
:100FC000094B4FF000421A601437BD465DF8047BB0
:100FD000704700BF28000020280C0020300C0020A3
:100FE000380C0020340C00203C0C002080B485B06C
:100FF00000AF7860274BFB6002E0FB681B68FB607A
:10100000FB681A687B689A42F7D3FB68BB60FB6891
:101010005B68BA681A447B689A4208D1FB685A68D0
:101020007B685B681A44FB685A60FB687B607B687E
:10103000BB607B685B68BA681A44FB681B689A42AD
:1010400018D1FB681A68144B1B689A420DD07B6854
:101050005A68FB681B685B681A447B685A60FB68C7
:101060001B681A687B681A6008E00B4B1A687B687B
:101070001A6003E0FB681A687B681A60FA687B688C
:101080009A4202D0FB687A681A601437BD465DF850
:10109000047B7047280C0020300C002080B485B001
:1010A00000AFF860B9607A60FB68043BFB60FB68E6
:1010B0004FF080721A60FB68043BFB60BB6823F052
:1010C0000102FB681A60FB68043BFB60094AFB688D
:1010D0001A60FB68143BFB607A68FB681A60FB6867
:1010E000203BFB60FB6818461437BD465DF8047B67
:1010F000704700BFF910000880B483B000AF0C4BFC
:101100001B68B3F1FF3F09D04FF0500383F3118800
:10111000BFF36F8FBFF34F8F7B60FEE74FF050033D
:1011200083F31188BFF36F8FBFF34F8F3B60FEE7F0
:10113000040000200000000000000000000000008B
:10114000074B19680868B0E8F00F80F30988BFF30F
:101150006F8F4FF0000080F311884EF00D0E704736
:10116000480C002006480068006880F3088862B6D2
:1011700061B6BFF34F8FBFF36F8F00DF00BF00007A
:1011800008ED00E080B584B000AF284BFB60FB6841
:101190001B78DBB2BB60FB68FF221A70FB681B7810
:1011A000DBB2FB71FB79DBB203F05003DAB2204B08
:1011B0001A70204B07221A6009E01E4B1B68013B86
:1011C0001C4A1360FB79DBB25B00DBB2FB71FB797D
:1011D000DBB2DBB25BB2002BEFDB164B1B681B02F2
:1011E000144A1360134B1B6803F4E063114A136045
:1011F000BB68DAB2FB681A700F4A0F4B1B6843F4E6
:10120000700313600C4A0C4B1B6843F0704313606F
:1012100000F0B0F8094B00221A60FFF7A3FFFFF7B8
:101220006BFF002318461037BD4680BD00E400E088
:10123000400C0020440C002020ED00E004000020C1
:1012400080B483B000AF4FF0500383F31188BFF335
:101250006F8FBFF34F8F7B600E4B1B6801330D4ABE
:1012600013600C4B1B68012B0ED10B4B1B68DBB2C0
:10127000002B09D04FF0500383F31188BFF36F8F19
:10128000BFF34F8F3B60FEE70C37BD465DF8047B34
:10129000704700BF0400002004ED00E080B483B07C
:1012A00000AF104B1B68002B09D14FF0500383F3A4
:1012B0001188BFF36F8FBFF34F8F7B60FEE7094B41
:1012C0001B68013B074A1360064B1B68002B04D1C7
:1012D00000233B603B6883F311880C37BD465DF803
:1012E000047B7047040000200000000000000000A4
:1012F000EFF30980BFF36F8F0D4B1A6820E9F00FF1
:1013000010602DE908404FF0500080F3118800F084
:101310006DFC4FF0000080F31188BDE808401968AB
:101320000868B0E8F00F80F30988BFF36F8F70474B
:10133000480C002080B582B000AF4FF0500383F31B
:101340001188BFF36F8FBFF34F8F7B6000F090FB6E
:101350000346002B03D0064B4FF080521A60002347
:101360003B603B6883F311880837BD4680BD00BFF2
:1013700004ED00E080B400AF074A084B1B68084941
:10138000A1FB03139B09013B1360064B07221A6064
:10139000BD465DF8047B704714E000E000000020CB
:1013A000D34D621010E000E080B485B000AF03467A
:1013B000FB800023FB60B7F90630842B05D0B7F91A
:1013C0000620FB6813440333FB60FB6818461437A0
:1013D000BD465DF8047B704780B500AF00F058FA59
:1013E0000023184680BD00BFF0B587B002AF78601B
:1013F00039607B685E687B681D687B681B699CB28E
:101400007B681B891BB21846FFF7CEFF034600938B
:1014100007F10C0301933046294622463B6800F051
:10142000DBF80346012B01D0002300E0FB681846DF
:101430001437BD46F0BD00BF80B584B000AF786002
:101440007B68FB60FB68002B01D0FB6800E0012398
:10145000184600F0EBF9002318461037BD4680BD52
:1014600080B500AF00F0E0FC0346012B01D0FFF790
:1014700061FF80BD80B483B000AF78607B6803F10A
:1014800008027B685A607B684FF0FF329A607B6885
:1014900003F108027B68DA607B6803F108027B686D
:1014A0001A617B6800221A600C37BD465DF8047B28
:1014B000704700BF80B483B000AF78607B680022C3
:1014C0001A610C37BD465DF8047B704780B485B067
:1014D00000AF786039607B685B68FB603B68FA68E6
:1014E0005A60FB689A683B689A60FB689B683A6838
:1014F0005A60FB683A689A603B687A681A617B6850
:101500001B685A1C7B681A601437BD465DF8047B63
:10151000704700BF80B485B000AF786039603B6829
:101520001B68BB60BB68B3F1FF3F03D17B681B69DD
:10153000FB600CE07B680833FB6002E0FB685B68E3
:10154000FB60FB685B681A68BB689A42F6D9FB6867
:101550005A683B685A603B685B683A689A603B68C7
:10156000FA689A60FB683A685A603B687A681A6160
:101570007B681B685A1C7B681A601437BD465DF88F
:10158000047B704780B485B000AF78607B681B69CE
:10159000FB607B685B687A6892689A607B689B688E
:1015A0007A6852685A60FB685A687B689A4203D12D
:1015B0007B689A68FB685A607B6800221A61FB6846
:1015C0001B685A1EFB681A60FB681B6818461437B4
:1015D000BD465DF8047B704780B58CB004AFF86001
:1015E000B9603B601346FB80FB889B001846FFF701
:1015F00081FB78617B69002B0ED05420FFF77AFBCA
:10160000F861FB69002B03D0FB697A691A6305E076
:101610007869FFF731FC01E00023FB61FB69002BD7
:1016200013D0FA88BB6A0093FB6A0193FB690293AB
:1016300000230393F868B9683B6800F00FF8F86975
:1016400000F088F80123BB6102E04FF0FF33BB617B
:10165000BB6918462037BD4680BD00BF80B588B045
:1016600000AFF860B9607A603B603B6B1A6B7B68D7
:1016700003F18043013B9B001344BB61BB6923F032
:101680000703BB61BB6903F00703002B09D04FF0D0
:10169000500383F31188BFF36F8FBFF34F8F7B61CC
:1016A000FEE70023FB6113E0BA68FB691344197875
:1016B0003A6BFB69134430330A461A71BA68FB6906
:1016C00013441B78002B00D105E0FB690133FB615B
:1016D000FB690F2BE8D93B6B002283F84320BB6AE0
:1016E000062B01D90623BB623B6BBA6ADA623B6BFD
:1016F000BA6A5A643B6B00229A643B6B0433184607
:10170000FFF7D8FE3B6B18331846FFF7D3FE3B6B51
:101710003A6B1A61BB6AC3F107023B6B9A613B6B80
:101720003A6B5A623B6B0022DA643B6B002283F80F
:101730005020B869F9683A68FFF7B0FC02463B6B85
:101740001A60FB6A002B02D0FB6A3A6B1A602037E2
:10175000BD4680BD80B582B000AF7860FFF770FDF8
:101760002B4B1B6801332A4A13602A4B1B68002B42
:1017700009D1284A7B681360254B1B68012B10D1C7
:1017800000F0A6FA0DE0244B1B68002B09D1214B79
:101790001B68DA6A7B68DB6A9A4202D81D4A7B685A
:1017A00013601E4B1B6801331C4A13607B68DB6AA5
:1017B0001A46012303FA02F2194B1B681343184A15
:1017C00013607B68DA6A13469B0013449B00154A3A
:1017D0001A447B68043310461946FFF777FEFFF77B
:1017E0005DFD0D4B1B68002B0ED00A4B1B68DA6A9F
:1017F0007B68DB6A9A4207D20B4B4FF080521A602B
:10180000BFF34F8FBFF36F8F0837BD4680BD00BF5A
:10181000480D0020480C0020540D0020640D0020CD
:10182000500D00204C0C002004ED00E080B584B089
:1018300000AF78600023FB607B68002B16D0124B52
:101840001B68002B09D04FF0500383F31188BFF3BE
:101850006F8FBFF34F8FBB60FEE700F05DF87868D5
:10186000002100F0FFFA00F065F8F860FB68002B3B
:1018700007D1064B4FF080521A60BFF34F8FBFF372
:101880006F8F1037BD4680BD700D002004ED00E065
:1018900080B586B002AF00230093194B019319481D
:1018A000194980220023FFF797FEF860FB68012B9F
:1018B00015D14FF0500383F31188BFF36F8FBFF33F
:1018C0004F8FBB60114B4FF0FF321A60104B01225B
:1018D0001A60104B00221A60FFF754FC0DE0FB6801
:1018E000B3F1FF3F09D14FF0500383F31188BFF3E9
:1018F0006F8FBFF34F8F7B60FEE71037BD4680BD13
:101900006C0D0020A11C000838450008680D00205F
:10191000540D00204C0D002080B400AF044B1B6818
:101920000133034A1360BD465DF8047B704700BF76
:10193000700D002080B584B000AF0023FB60002351
:10194000BB60424B1B68002B09D14FF0500383F35F
:101950001188BFF36F8FBFF34F8F3B60FEE7FFF738
:101960006FFC3A4B1B68013B384A1360374B1B68CE
:10197000002B63D1364B1B68002B5FD030E0354B1A
:10198000DB68DB68FB60FB6818331846FFF7FAFD7D
:10199000FB6804331846FFF7F5FDFB68DB6A1A465F
:1019A000012303FA02F22C4B1B6813432A4A1360EB
:1019B000FB68DA6A13469B0013449B00274A1A44CB
:1019C000FB68043310461946FFF780FDFB68DA6AAE
:1019D000234B1B68DB6A9A4202D3224B01221A6016
:1019E0001C4B1B68002BCAD1FB68002B01D000F0F8
:1019F000F7F91D4B1B687B607B68002B10D000F053
:101A000037F80346002B02D0164B01221A607B6880
:101A1000013B7B607B68002BF1D1134B00221A60E5
:101A2000104B1B68002B09D00123BB600F4B4FF0FC
:101A300080521A60BFF34F8FBFF36F8FFFF72EFCFA
:101A4000BB6818461037BD4680BD00BF700D002032
:101A5000480D0020080D0020500D00204C0C0020E7
:101A6000480C00205C0D0020580D002004ED00E023
:101A700080B586B000AF00237B61514B1B68002B03
:101A800040F08E804F4B1B6801333B614D4A3B69F0
:101A900013603B69002B1FD14B4B1B681B68002B4D
:101AA00009D04FF0500383F31188BFF36F8FBFF35A
:101AB0004F8F3B60FEE7444B1B68FB60434B1B684A
:101AC000414A1360414AFB681360414B1B68013374
:101AD0003F4A136000F084F93E4B1B683A699A4212
:101AE0004FD3394B1B681B68002B01D1012300E049
:101AF0000023002B04D0374B4FF0FF321A6040E038
:101B0000314B1B68DB68DB68BB60BB685B687B6074
:101B10003A697B689A4203D22E4A7B68136030E0B0
:101B2000BB6804331846FFF72DFDBB689B6A002B8A
:101B300004D0BB6818331846FFF724FDBB68DB6A86
:101B40001A46012303FA02F2234B1B681343224A6D
:101B50001360BB68DA6A13469B0013449B001F4A5C
:101B60001A44BB68043310461946FFF7AFFCBB6844
:101B7000DA6A1B4B1B68DB6A9A4201D301237B6143
:101B8000AFE7174B1B68DA6A144913469B001344EE
:101B90009B000B441B68012B01D901237B6104E0EE
:101BA000104B1B6801330F4A13600F4B1B68002B4F
:101BB00001D001237B617B6918461837BD4680BD83
:101BC000700D00204C0D0020000D0020040D0020A1
:101BD000600D0020680D0020500D00204C0C0020EE
:101BE000480C0020580D00205C0D002080B487B008
:101BF00000AF264B1B68002B03D0254B01221A6037
:101C00003EE0234B00221A60224B1B68FB60FB68FE
:101C1000B3FA83F3FB72FB7AC3F11F037B611E49A6
:101C20007A6913469B0013449B000B441B68002BEE
:101C300009D14FF0500383F31188BFF36F8FBFF3C7
:101C40004F8F7B60FEE77A6913469B0013449B002D
:101C5000114A13443B613B695B685A683B695A60AF
:101C60003B695A683B6908339A4204D13B695B6817
:101C70005A683B695A603B695B68DB68074A1360D6
:101C80001C37BD465DF8047B704700BF700D002017
:101C90005C0D0020500D00204C0C0020480C002052
:101CA00080B582B000AF786000F050F8064B1B683A
:101CB000012B07D9054B4FF080521A60BFF34F8FAD
:101CC000BFF36F8FF0E700BF4C0C002004ED00E085
:101CD00080B582B000AF00237B600CE07A681346C9
:101CE0009B0013449B00114A13441846FFF7C2FBA4
:101CF0007B6801337B607B68062BEFD90C48FFF7CC
:101D0000B9FB0C48FFF7B6FB0B48FFF7B3FB0B48DA
:101D1000FFF7B0FB0A48FFF7ADFB0A4B044A1A6015
:101D2000094B044A1A600837BD4680BD4C0C0020A0
:101D3000D80C0020EC0C0020080D00201C0D002009
:101D4000340D0020000D0020040D002080B582B06D
:101D500000AF28E0FFF7E0FD164B1B68002B0CBF1F
:101D600001230023DBB27B60FFF7E4FD7B68002BDF
:101D700019D1FFF765FA0F4BDB68DB683B603B6806
:101D800004331846FFF7FEFB0B4B1B68013B0A4A66
:101D900013600A4B1B68013B084A1360FFF77EFA89
:101DA000386800F00DF8054B1B68002BD2D10837BE
:101DB000BD4680BD1C0D0020480D0020300D0020C8
:101DC00080B582B000AF78607B681B6B1846FFF768
:101DD00053F87868FFF750F80837BD4680BD00BF5C
:101DE00080B483B000AF0E4B1B681B68002B01D181
:101DF000012300E00023002B04D00A4B4FF0FF32F8
:101E00001A6008E0064B1B68DB68DB687B607B6858
:101E10005B68044A13600C37BD465DF8047B70476D
:101E2000000D0020680D002080B483B000AF0B4B84
:101E30001B68002B02D101237B6008E0084B1B6864
:101E4000002B02D102237B6001E000237B607B68D2
:101E500018460C37BD465DF8047B7047540D0020D2
:101E6000700D002080B584B000AF78603960284BD9
:101E70001B68FB60274B1B6804331846FFF782FB87
:101E80000346002B0BD1234B1B68DB6A1A46012348
:101E90009340DA43204B1B6813401F4A13607B6852
:101EA000B3F1FF3F0AD13B68002B07D0194B1B68E9
:101EB00004331A481946FFF709FB26E0FA687B68E5
:101EC0001344BB60134B1B68BA685A60BA68FB685E
:101ED0009A4209D2124B1A680E4B1B680433104603
:101EE0001946FFF717FB10E00E4B1A68094B1B68E9
:101EF000043310461946FFF70DFB0B4B1B68BA68FD
:101F00009A4202D2084ABB6813601037BD4680BDB2
:101F10004C0D0020480C0020500D0020340D0020F6
:101F2000040D0020000D0020680D002080B500AFDA
:101F3000084A084B1B6843F010031360032000F0AD
:101F4000FBFA0020FEF7F2FDFEF79AFB002318468D
:101F500080BD00BF0020024080B400AF054B1B785D
:101F60001A46054B1B681344034A1360BD465DF8CF
:101F7000047B7047080000209410002080B400AF5C
:101F8000034B1B681846BD465DF8047B704700BFD5
:101F90009410002080B586B000AF78600023FB75F8
:101FA00000233B610023BB600023FB607B68002BA8
:101FB00001D10123BEE07B689B68002B7B689B6A94
:101FC000002B09D17B680022DA627B68002283F84B
:101FD00024207868FEF7A6FB786800F0ABF903468A
:101FE000FB757B689B6A03F01003002B40F099801F
:101FF000FB7D002B40F095807B689B6A23F488531F
:1020000023F0020343F002027B689A627B685A68FD
:102010007B68DB691A437B68DB685B001343BA6843
:102020001343BB607B689B68B3F5807F03D07B68FC
:102030009B68012B02D14FF4807300E000233A69C2
:1020400013433B617B685B69012B19D17B68DB68BB
:10205000002B09D17B689B69013B5A033B69134301
:1020600043F400633B610BE07B689B6A43F0200212
:102070007B689A627B68DB6A43F001027B68DA6204
:102080007B681B687A681268526822F469413A6971
:102090000A435A607B681A687B681B689968274BFB
:1020A0000B40B9680B4393607B689B68B3F5807FF6
:1020B00003D07B689B68012B04D17B681B69013BC3
:1020C0001B05FB607B681B687A681268D26A22F481
:1020D0007001FA680A43DA627B681B689A68184BD9
:1020E0001340BA6893420BD17B680022DA627B68A6
:1020F0009B6A23F0030343F001027B689A6218E0B5
:102100007B689B6A23F0120343F010027B689A629B
:102110007B68DB6A43F001027B68DA620123FB75AE
:1021200007E07B689B6A43F010027B689A62012398
:10213000FB75FB7D18461837BD4680BDFDF7E1FFF6
:10214000FE0E1FFF90B484B000AF786039600023AA
:10215000FB730023BB607B6893F82430012B01D113
:102160000223DCE07B68012283F824203B685B6863
:10217000062B1CD87B6819687B681B68586B3B680A
:102180005A6813469B001344053B1A461F2393408D
:10219000DB4318403B681C683B685A6813469B0049
:1021A0001344053B04FA03F303434B633CE03B68F1
:1021B0005B680C2B1CD87B6819687B681B68186BE4
:1021C0003B685A6813469B001344233B1A461F235F
:1021D0009340DB4318403B681C683B685A681346D1
:1021E0009B001344233B04FA03F303430B631BE0FC
:1021F0007B6819687B681B68D86A3B685A68134615
:102200009B001344413B1A461F239340DB43184075
:102210003B681C683B685A6813469B001344413B6B
:1022200004FA03F30343CB623B681B68092B1CD9F8
:102230007B6819687B681B68D8683B681A68134616
:102240005B0013441E3B1A4607239340DB431840B0
:102250003B689C683B681A6813465B0013441E3B4E
:1022600004FA03F30343CB6019E07B6819687B68C9
:102270001B6818693B681A6813465B0013441A46CA
:1022800007239340DB4318403B689C683B681A680F
:1022900013465B00134404FA03F303430B613B68EA
:1022A0001B68102B03D03B681B68112B32D17B6855
:1022B0001B681D4A934225D17B681B689B6803F409
:1022C0000003002B26D17B681B687A68126892682D
:1022D00042F400029A603B681B68102B1AD1134B22
:1022E0001B68134AA2FB03239A0C13469B0013445A
:1022F0005B00BB6002E0BB68013BBB60BB68002BBE
:10230000F9D107E07B689B6A43F020027B689A6200
:102310000123FB737B68002283F82420FB7B184693
:102320001037BD4690BC70470024014000000020DB
:1023300083DE1B4380B584B000AF78600023FB6070
:102340007B681B689B6803F00103002B27D07B6828
:102350001B687A681268926822F001029A60FFF79F
:102360000DFEF86014E0FFF709FE0246FB68D31A81
:10237000022B0DD97B689B6A43F010027B689A623E
:102380007B68DB6A43F001027B68DA62012307E0C5
:102390007B681B689B6803F00103002BE3D10023DB
:1023A00018461037BD4680BD80B485B000AF786058
:1023B0007B6803F00703FB600C4BDB68BB60BA680B
:1023C0004FF6FF031340BB60FB681A02BB68134360
:1023D00043F0BF6343F40033BB60044ABB68D3607F
:1023E0001437BD465DF8047B704700BF00ED00E088
:1023F00080B400AF044BDB6803F4E0631B0A1846AB
:10240000BD465DF8047B704700ED00E080B483B00A
:1024100000AF0346FB71084997F907305B09FA7969
:1024200002F01F02012000FA02F241F823200C37CB
:10243000BD465DF8047B704700E100E080B483B0E6
:1024400000AF03463960FB7197F90730002B0BDAB8
:102450000D49FB7903F00F03043B3A68D2B2120135
:10246000D2B20B441A7609E0084997F907303A6866
:10247000D2B21201D2B20B4483F800230C37BD460E
:102480005DF8047B704700BF00ED00E000E100E074
:1024900080B489B000AFF860B9607A60FB6803F07F
:1024A0000703FB61FB69C3F10703042B28BF042367
:1024B000BB61FB690433062B02D9FB69033B00E0D7
:1024C00000237B61BB69012202FA03F35A1EBB6839
:1024D0001A407B699A407B69012101FA03F3591E76
:1024E0007B680B40134318462437BD465DF8047BD8
:1024F000704700BF80B582B000AF78607B68013B59
:10250000B3F1807F01D301230FE00A4A7B68013BCE
:1025100053604FF0FF300F21FFF790FF054B002273
:102520009A60044B07221A60002318460837BD46FC
:1025300080BD00BF10E000E080B582B000AF7860E1
:102540007868FFF731FF0837BD4680BD80B586B09B
:1025500000AF0346B9607A60FB7300237B61FFF72D
:1025600047FF78617869B9687A68FFF791FF02469A
:1025700097F90F3018461146FFF760FF1837BD4630
:1025800080BD00BF80B582B000AF0346FB7197F9F4
:1025900007301846FFF73AFF0837BD4680BD00BF39
:1025A00080B582B000AF78607868FFF7A3FF03467C
:1025B00018460837BD4680BD80B483B000AF786050
:1025C0007B68042B06D1094A084B1B6843F00403BF
:1025D000136005E0054A054B1B6823F004031360F4
:1025E0000C37BD465DF8047B704700BF10E000E08B
:1025F00080B485B000AF78600023FB607B68002B5F
:1026000001D101234FE07B681B681A46294B134414
:10261000294AA2FB03231B099A007B681A647B6882
:10262000264ADA637B68022283F821207B681B68D4
:102630001B68FB60FB6823F47F5323F03003FB60CF
:102640007B685A687B689B681A437B68DB681A431F
:102650007B681B691A437B685B691A437B689B69CB
:102660001A437B68DB691343FA681343FB607B689A
:102670001B68FA681A607B6800229A627B680022F5
:10268000DA627B6800221A637B6800225A637B68E7
:1026900000229A637B68012283F821207B68002254
:1026A00083F82020002318461437BD465DF8047BCC
:1026B000704700BFF8FFFDBFCDCCCCCC000002407E
:1026C00080B584B000AF78607B68DB6B1B68FB6013
:1026D0007B681B681B68BB607B681B6C1A46042305
:1026E00003FA02F2FB681340002B55D0BB6803F0DD
:1026F0000403002B50D07B681B681B6803F0200389
:10270000002B07D17B681B687A681268126822F078
:1027100004021A606F4A7B681B6819466E4B994227
:102720002ED07B681B6819466C4B994226D07B687B
:102730001B6819466A4B99421DD07B681B68194675
:10274000684B994214D07B681B681946664B9942C6
:102750000BD07B681B681946644B994202D14FF439
:1027600080030EE04FF080630BE04FF4802308E01D
:102770004FF4804305E04FF4806302E0402300E023
:10278000042353607B68DB6A002B04D07B68DB6A20
:10279000786898479AE099E07B681B6C1A46022398
:1027A00003FA02F2FB681340002B5DD0BB6803F014
:1027B0000203002B58D07B681B681B6803F02003C2
:1027C000002B0BD17B681B687A681268126822F0B4
:1027D0000A021A607B68012283F821203D4A7B6847
:1027E0001B6819463C4B99422ED07B681B681946E2
:1027F0003A4B994226D07B681B681946384B994260
:102800001DD07B681B681946364B994214D07B68F3
:102810001B681946344B99420BD07B681B681946DC
:10282000324B994202D14FF400130EE04FF0007387
:102830000BE04FF4003308E04FF4005305E04FF491
:10284000007302E0202300E0022353607B68002233
:1028500083F820207B689B6A002B04D07B689B6AEE
:102860007868984732E031E07B681B6C1A46082391
:1028700003FA02F2FB681340002B27D0BB6803F079
:102880000803002B22D07B681B687A6812681268E4
:1028900022F00E021A607B68DB6B7A68126C1146BC
:1028A00001228A405A607B6801229A637B68012278
:1028B00083F821207B68002283F820207B681B6B33
:1028C000002B03D07B681B6B7868984700BF1037DC
:1028D000BD4680BD00000240080002401C000240CE
:1028E0003000024044000240580002406C000240A8
:1028F00080B48BB000AF786039600023FB610023A7
:10290000BB6100237B6100233B6200233B6100230A
:102910007B6228E17B6A012202FA03F3FB613B68D8
:102920001A68FB691340BB61BA69FB699A4240F0BF
:1029300017813B685B68122B34D0122B0DD8022B09
:102940002BD0022B04D8002B31D0012B1CD049E016
:10295000032B44D0112B1BD044E0874A934226D04E
:10296000854A934206D8854A934220D0844A9342AE
:102970001DD037E0834A934219D0834A934216D040
:10298000824A934213D02DE03B68DB683B6229E02A
:102990003B68DB6804333B6224E03B68DB68083358
:1029A0003B621FE03B68DB680C333B621AE03B682C
:1029B0009B68002B02D104233B620FE03B689B68BD
:1029C000012B05D108233B627B68FA691A6105E097
:1029D00008233B627B68FA695A6103E002E0002346
:1029E0003B6200BFBB69FF2B01D87B6801E07B68BD
:1029F0000433FB60BB69FF2B02D87B6A9B0002E0BB
:102A00007B6A083B9B003B61FB681A683B690F21AE
:102A100001FA03F3DB431A403B69396A01FA03F315
:102A20001A43FB681A603B685B6803F08053002B15
:102A300000F09680564A564B9B6943F00103936120
:102A4000534B9B6903F00103BB60BB68514A7B6A2F
:102A50009B08023352F823307B617B6A03F0030347
:102A60009B001A460F239340DB437A6913407B6136
:102A70007B68494A934213D07B68484A93420DD001
:102A80007B68474A934207D07B68464A934201D10C
:102A9000032306E0042304E0022302E0012300E014
:102AA00000237A6A02F00302920093407A6913438A
:102AB0007B6138497B6A9B0802337A6941F823209D
:102AC0003B685B6803F48033002B06D03649364BF5
:102AD0001A68BB6913430B6006E03349324B1A682E
:102AE000BB69DB4313400B603B685B6803F4003356
:102AF000002B06D02C492C4B5A68BB6913434B6002
:102B000006E02949284B5A68BB69DB4313404B60F8
:102B10003B685B6803F48013002B06D02249224BEC
:102B20009A68BB6913438B6006E01F491E4B9A6885
:102B3000BB69DB4313408B603B685B6803F40013A5
:102B4000002B06D01849184BDA68BB691343CB60D9
:102B500006E01549144BDA68BB69DB431340CB60D0
:102B60007B6A01337B627B6A0F2B7FF6D3AE2C37F7
:102B7000BD465DF8047B7047000021100000111075
:102B8000000012100000311000003210000022106E
:102B9000001002400000014000080140000C01400C
:102BA00000100140001401400004014080B483B0D3
:102BB00000AF78600B467B8013467B707B78002BE0
:102BC00003D07A887B681A6103E07B881A047B68EB
:102BD0001A610C37BD465DF8047B704780B584B040
:102BE00000AF78600023FB600023BB607B68002B94
:102BF00001D10123E7E07B6893F83D30DBB2002B85
:102C000006D17B68002283F83C207868FDF7E2FD5E
:102C10007B68242283F83D207B681B687A681268F1
:102C2000126822F001021A6000F0A4FCB8607B6810
:102C30005B68674A934207D8BB68664A934294BF71
:102C400001230023DBB206E0BB68634A934294BFD2
:102C500001230023DBB2002B01D00123B3E0BB68CA
:102C60005E4AA2FB03239B0CFB607B681B68FA682F
:102C70005A607B681A687B685B6855498B4202D84A
:102C8000FB68013309E0FB684FF4967101FB03F325
:102C90005349A1FB03139B09013313627B68196835
:102CA0007B685B684A4A93420DD8BB685A1E7B68B2
:102CB0005B685B00B2FBF3F30133C3F30B03042B3C
:102CC00038BF04234FE07B689B68002B11D1BB68A1
:102CD000581E7B685A6813465B001344B0FBF3F33D
:102CE0000133C3F30B03002B0CBF01230023DBB222
:102CF00012E0BB68581E7B685A6813469B00134459
:102D00009A001344B0FBF3F30133C3F30B03002B1E
:102D10000CBF01230023DBB2002B01D0012322E0F2
:102D20007B689B68002B0ED1BB68581E7B685A6875
:102D300013465B001344B0FBF3F30133C3F30B03FF
:102D400043F400430FE0BB68581E7B685A68134683
:102D50009B0013449A001344B0FBF3F30133C3F315
:102D60000B0343F44043CB617B681B687A68D169ED
:102D70007A68126A0A431A607B681B687A6811696C
:102D80007A68D2680A439A607B681B687A685169DE
:102D90007A6892690A43DA607B681B687A6812680D
:102DA000126842F001021A607B6800221A647B6894
:102DB000202283F83D207B6800221A637B68002272
:102DC00083F83E20002318461037BD4680BD00BF63
:102DD000A08601007F841E00FF083D0083DE1B43A8
:102DE000D34D621080B586B000AF786000233B61A0
:102DF0007B681B6803F00103002B00F08580914B7A
:102E00005B6803F00C03042B0BD08E4B5B6803F064
:102E10000C03082B12D18B4B5B6803F48033002B1F
:102E20000CD0884B1B6803F40033002B05D07B6863
:102E30005B68002B01D101232CE265E07B685B68B5
:102E4000B3F5803F06D17F4A7E4B1B6843F4803345
:102E500013602EE07B685B68002B0CD1794A794BBC
:102E60001B6823F480331360764A764B1B6823F487
:102E7000802313601DE07B685B68B3F5A02F0CD145
:102E8000704A704B1B6843F4802313606D4A6D4B8E
:102E90001B6843F4803313600BE06A4A694B1B687C
:102EA00023F480331360674A664B1B6823F4802346
:102EB00013607B685B68002B13D0FFF75FF8386105
:102EC00008E0FFF75BF802463B69D31A642B01D98F
:102ED0000323DFE15B4B1B6803F40033002BF0D0CE
:102EE00012E0FFF74BF8386108E0FFF747F80246B9
:102EF0003B69D31A642B01D90323CBE1514B1B68E7
:102F000003F40033002BF0D17B681B6803F002034D
:102F1000002B63D04B4B5B6803F00C03002B0BD0F2
:102F2000484B5B6803F00C03082B1CD1454B5B68D6
:102F300003F48033002B16D1424B1B6803F00203CD
:102F4000002B05D07B681B69012B01D00123A1E177
:102F50003C493C4B1B6823F0F8027B685B69DB0053
:102F600013430B603AE07B681B69002B20D0364B83
:102F700001221A60FFF702F8386108E0FEF7FEFF51
:102F800002463B69D31A022B01D9032382E12D4B60
:102F90001B6803F00203002BF0D02A49294B1B6861
:102FA00023F0F8027B685B69DB0013430B6015E0DC
:102FB000254B00221A60FEF7E1FF386108E0FEF7BA
:102FC000DDFF02463B69D31A022B01D9032361E1DD
:102FD0001C4B1B6803F00203002BF0D17B681B68BD
:102FE00003F00803002B39D07B689B69002B19D0B4
:102FF000164B01221A60FEF7C1FF386108E0FEF7A8
:10300000BDFF02463B69D31A022B01D9032341E1DC
:103010000C4B5B6A03F00203002BF0D0012000F0A0
:1030200001FB1BE0094B00221A60FEF7A7FF386185
:103030000EE0FEF7A3FF02463B69D31A022B07D925
:10304000032327E100100240000042428004424274
:10305000924B5B6A03F00203002BEAD17B681B688A
:1030600003F00403002B00F0A6800023FB758B4BBC
:10307000DB6903F08053002B0DD1884A874BDB6955
:1030800043F08053D361854BDB6903F08053FB60D1
:10309000FB680123FB75824B1B6803F48073002BD4
:1030A00018D17F4A7E4B1B6843F480731360FEF790
:1030B00065FF386108E0FEF761FF02463B69D31AFD
:1030C000642B01D90323E5E0754B1B6803F480737F
:1030D000002BF0D07B68DB68012B06D16F4A6F4B69
:1030E0001B6A43F0010313622DE07B68DB68002B51
:1030F0000CD16A4A694B1B6A23F001031362674AC9
:10310000664B1B6A23F0040313621CE07B68DB68D8
:10311000052B0CD1614A614B1B6A43F00403136217
:103120005E4A5E4B1B6A43F0010313620BE05B4A8D
:103130005A4B1B6A23F001031362584A574B1B6A10
:1031400023F0040313627B68DB68002B15D0FEF7C5
:1031500015FF38610AE0FEF711FF02463B69D31AFA
:1031600041F28832934201D9032393E04B4B1B6A0F
:1031700003F00203002BEED014E0FEF7FFFE3861EF
:103180000AE0FEF7FBFE02463B69D31A41F28832A1
:10319000934201D903237DE0404B1B6A03F00203F5
:1031A000002BEED1FB7D012B05D13C4A3B4BDB696B
:1031B00023F08053D3617B68DB69002B69D0374BE8
:1031C0005B6803F00C03082B61D07B68DB69022B82
:1031D00046D1344B00221A60FEF7D0FE386108E079
:1031E000FEF7CCFE02463B69D31A022B01D903231A
:1031F00050E02A4B1B6803F00073002BF0D17B6872
:103200001B6AB3F5803F08D12449244B5B6823F443
:1032100000327B689B6813434B6020481F4B5B6800
:1032200023F474127B68196A7B685B6A0B4313434F
:1032300043601C4B01221A60FEF7A0FE386108E0D3
:10324000FEF79CFE02463B69D31A022B01D90323E9
:1032500020E0124B1B6803F00073002BF0D018E045
:10326000104B00221A60FEF789FE386108E0FEF775
:1032700085FE02463B69D31A022B01D9032309E0DC
:10328000064B1B6803F00073002BF0D101E0012313
:1032900000E0002318461837BD4680BD00100240EC
:1032A000007000406000424280B584B000AF78609A
:1032B00039600023FB60734B1B6803F007023B6817
:1032C0009A4210D26F496F4B1B6823F007023B688C
:1032D00013430B606B4B1B6803F007023B689A4279
:1032E00001D00123C9E07B681B6803F00203002BB7
:1032F00008D06549644B5B6823F0F0027B689B68EB
:1033000013434B607B681B6803F00103002B6BD0F9
:103310007B685B68012B07D15B4B1B6803F40033B0
:10332000002B15D10123A8E07B685B68022B07D135
:10333000554B1B6803F00073002B09D101239CE05F
:10334000514B1B6803F00203002B01D1012394E0D1
:103350004D494D4B5B6823F003027B685B68134368
:103360004B60FEF70BFEF8607B685B68012B12D1A7
:103370000AE0FEF703FE0246FB68D31A41F28832E8
:10338000934201D9032378E03F4B5B6803F00C03C1
:10339000042BEED128E07B685B68022B12D10AE097
:1033A000FEF7ECFD0246FB68D31A41F288329342E5
:1033B00001D9032361E0344B5B6803F00C03082B55
:1033C000EED111E00AE0FEF7D9FD0246FB68D31A00
:1033D00041F28832934201D903234EE02A4B5B68C5
:1033E00003F00C03002BEED1264B1B6803F0070201
:1033F0003B689A4210D92349224B1B6823F00702ED
:103400003B6813430B601F4B1B6803F007023B68CC
:103410009A4201D0012330E07B681B6803F004036B
:10342000002B08D01849184B5B6823F4E0627B68D6
:10343000DB6813434B607B681B6803F00803002BB9
:1034400009D01149104B5B6823F460527B681B69FB
:10345000DB0013434B6000F01DF801460A4B5B682C
:1034600003F0F0031B09094AD35C21FA03F3084A6D
:1034700013600020FDF75AFB002318461037BD46A5
:1034800080BD00BF002002400010024054450008EB
:103490000000002090B48AB000AF2B4B3C1D186890
:1034A00059689A68DB680FC4284A3B4612881A801C
:1034B0000023FB610023BB6100237B6200237B614F
:1034C00000233B62224B5B68FB61FB6903F00C034A
:1034D000042B02D0082B03D02DE01E4B3B622DE0C5
:1034E000FB6903F470139B0C07F12802134413F8D3
:1034F000243C7B61FB6903F48033002B13D0144B15
:103500005B6803F400335B0C07F12802134413F8E3
:10351000283CBB617B690F4A02FB03F2BB69B2FB2B
:10352000F3F37B6204E07B690B4A02FB03F37B62EB
:103530007B6A3B6202E0074B3B6200BF3B6A184676
:103540002837BD4690BC70474045000850450008EC
:103550000010024000127A0000093D0080B400AF64
:10356000034B1B681846BD465DF8047B704700BFDF
:103570000000002080B500AFFFF7F0FF0146054BCB
:103580005B6803F4E0631B0A034AD35C21FA03F38C
:10359000184680BD001002406445000880B500AFA9
:1035A000FFF7DCFF0146054B5B6803F46053DB0A61
:1035B000034AD35C21FA03F3184680BD0010024091
:1035C0006445000880B483B000AF786039607B68E0
:1035D0000F221A60114B5B6803F003027B685A608C
:1035E0000E4B5B6803F0F0027B689A600B4B5B68E4
:1035F00003F4E0627B68DA60084B5B6803F46053B5
:10360000DA087B681A61064B1B6803F007023B6807
:103610001A600C37BD465DF8047B7047001002400D
:103620000020024080B485B000AF78600A4B1B6870
:103630000A4AA2FB03235B0A7A6802FB03F3FB60DE
:1036400000BFFB685A1EFA60002BF9D11437BD4643
:103650005DF8047B704700BF00000020D34D62106E
:1036600080B586B000AF786000233B610023FB602B
:103670007B681B6803F00103002B7DD00023FB75E2
:103680004F4BDB6903F08053002B0DD14C4A4C4B60
:10369000DB6943F08053D361494BDB6903F080530E
:1036A000BB60BB680123FB75464B1B6803F480734A
:1036B000002B18D1434A434B1B6843F480731360BB
:1036C000FEF75CFC386108E0FEF758FC02463B69F7
:1036D000D31A642B01D903236DE03A4B1B6803F422
:1036E0008073002BF0D0364B1B6A03F44073FB60F1
:1036F000FB68002B2ED07B685B6803F44072FB688C
:103700009A4227D02E4B1B6A23F44073FB602E4B4A
:1037100001221A602C4B00221A60294AFB681362AE
:10372000FB6803F00103002B14D0FEF727FC38617F
:103730000AE0FEF723FC02463B69D31A41F28832C5
:10374000934201D9032336E01D4B1B6A03F00203A9
:10375000002BEED01A491A4B1B6A23F440727B6887
:103760005B6813430B62FB7D012B05D1144A144B9C
:10377000DB6923F08053D3617B681B6803F002038D
:10378000002B08D00E490E4B5B6823F440427B6847
:103790009B6813434B607B681B6803F01003002B8E
:1037A00008D00749064B5B6823F480027B68DB681E
:1037B00013434B60002318461837BD4680BD00BF39
:1037C00000100240007000404004424280B582B0C8
:1037D00000AF78607B68002B01D101231DE07B687E
:1037E00093F83D30DBB2002B06D17B68002283F8D2
:1037F0003C20786800F016F87B68022283F83D20B0
:103800007B681A687B6804331046194600F052FA48
:103810007B68012283F83D20002318460837BD4607
:1038200080BD00BF80B483B000AF78600C37BD4668
:103830005DF8047B704700BF80B483B000AF786050
:103840007B681B687A681268D26842F00102DA600D
:103850007B681B687A681268126842F001021A607D
:10386000002318460C37BD465DF8047B704700BF47
:1038700080B582B000AF78607B68002B01D1012356
:103880001DE07B6893F83D30DBB2002B06D17B68EE
:10389000002283F83C207868FDF720F87B6802223C
:1038A00083F83D207B681A687B680433104619460C
:1038B00000F000FA7B68012283F83D2000231846BF
:1038C0000837BD4680BD00BF80B582B000AF7860CC
:1038D0007B681B681B6903F00203002B22D07B6806
:1038E0001B68DB6803F00203002B1BD07B681B689E
:1038F0006FF002021A617B6801221A777B681B68ED
:103900009B6903F00303002B03D0786800F0B4F93F
:1039100005E0786800F0A6F9786800F0B7F97B68F0
:1039200000221A777B681B681B6903F00403002BD5
:1039300022D07B681B68DB6803F00403002B1BD0DC
:103940007B681B686FF004021A617B6802221A7799
:103950007B681B689B6903F44073002B03D0786875
:1039600000F08AF905E0786800F07CF9786800F0EA
:103970008DF97B6800221A777B681B681B6903F04E
:103980000803002B22D07B681B68DB6803F0080368
:10399000002B1BD07B681B686FF008021A617B68E4
:1039A00004221A777B681B68DB6903F00303002B92
:1039B00003D0786800F060F905E0786800F052F90B
:1039C000786800F063F97B6800221A777B681B68CF
:1039D0001B6903F01003002B22D07B681B68DB6897
:1039E00003F01003002B1BD07B681B686FF01002E4
:1039F0001A617B6808221A777B681B68DB6903F40D
:103A00004073002B03D0786800F036F905E0786841
:103A100000F028F9786800F039F97B6800221A77FD
:103A20007B681B681B6903F00103002B0ED07B68C9
:103A30001B68DB6803F00103002B07D07B681B6861
:103A40006FF001021A617868FCF704FE7B681B685E
:103A50001B6903F08003002B0ED07B681B68DB68BA
:103A600003F08003002B07D07B681B686FF0800297
:103A70001A61786800F074FB7B681B681B6903F0AF
:103A80004003002B0ED07B681B68DB6803F040030B
:103A9000002B07D07B681B686FF040021A617868C2
:103AA00000F0FEF87B681B681B6903F02003002B05
:103AB0000ED07B681B68DB6803F02003002B07D067
:103AC0007B681B686FF020021A61786800F03EFB8B
:103AD0000837BD4680BD00BF80B584B000AFF86038
:103AE000B9607A60FB6893F83C30012B01D1022366
:103AF000B4E0FB68012283F83C20FB68022283F8D3
:103B00003D207B680C2B00F29F8001A252F823F02D
:103B1000453B0008493C0008493C0008493C000876
:103B2000853B0008493C0008493C0008493C000826
:103B3000C73B0008493C0008493C0008493C0008D4
:103B4000073C0008FB681B681846B96800F018F9C4
:103B5000FB681B68FA681268926942F008029A6171
:103B6000FB681B68FA681268926922F004029A6185
:103B7000FB681B68FA6812689169BA6812690A439F
:103B80009A6162E0FB681B681846B96800F064F946
:103B9000FB681B68FA681268926942F400629A61D5
:103BA000FB681B68FA681268926922F480629A6165
:103BB000FB681B68FA6812689169BA681269120298
:103BC0000A439A6141E0FB681B681846B96800F037
:103BD000B3F9FB681B68FA681268D26942F0080200
:103BE000DA61FB681B68FA681268D26922F0040285
:103BF000DA61FB681B68FA681268D169BA681269F1
:103C00000A43DA6121E0FB681B681846B96800F0D6
:103C100003FAFB681B68FA681268D26942F4006212
:103C2000DA61FB681B68FA681268D26922F4806264
:103C3000DA61FB681B68FA681268D169BA681269B0
:103C400012020A43DA6100E000BFFB68012283F838
:103C50003D20FB68002283F83C20002318461037E3
:103C6000BD4680BD80B483B000AF78600C37BD46E0
:103C70005DF8047B704700BF80B483B000AF78600C
:103C80000C37BD465DF8047B704700BF80B483B03D
:103C900000AF78600C37BD465DF8047B704700BF0D
:103CA00080B483B000AF78600C37BD465DF8047B0C
:103CB000704700BF80B485B000AF786039600023E2
:103CC000FB607B681B68FB607B682A4A93420BD0D1
:103CD0007B68B3F1804F07D07B68274A934203D0BB
:103CE0007B68264A934208D1FB6823F07003FB608F
:103CF0003B685B68FA681343FB607B681D4A93422C
:103D00000BD07B68B3F1804F07D07B681A4A93428F
:103D100003D07B68194A934208D1FB6823F44073AF
:103D2000FB603B68DB68FA681343FB60FB6823F0C9
:103D30008003FB603B685B69FA681343FB607B6848
:103D4000FA681A603B689A687B68DA623B681A68AE
:103D50007B689A627B68074A934203D13B681A6981
:103D60007B681A637B6801225A611437BD465DF88F
:103D7000047B7047002C0140000400400008004014
:103D800080B487B000AF786039600023FB60002307
:103D90007B6100233B617B681B6A23F001027B6827
:103DA0001A627B681B6A7B617B685B683B617B682E
:103DB0009B69FB60FB6823F07003FB60FB6823F0EA
:103DC0000303FB603B681B68FA681343FB607B6975
:103DD00023F002037B613B689B687A6913437B6134
:103DE0007B681C4A93420CD17B6923F008037B61FA
:103DF0003B68DB687A6913437B617B6923F00403CA
:103E00007B617B68134A934211D13B6923F4807331
:103E10003B613B6923F400733B613B685B693A6932
:103E200013433B613B689B693A6913433B617B6881
:103E30003A695A607B68FA689A613B685A687B689D
:103E40005A637B687A691A621C37BD465DF8047B49
:103E5000704700BF002C014080B487B000AF78608D
:103E600039600023FB6000237B6100233B617B689A
:103E70001B6A23F010027B681A627B681B6A7B61F5
:103E80007B685B683B617B689B69FB60FB6823F434
:103E9000E043FB60FB6823F44073FB603B681B68F6
:103EA0001B02FA681343FB607B6923F020037B61EC
:103EB0003B689B681B017A6913437B617B681D4AE1
:103EC00093420DD17B6923F080037B613B68DB6803
:103ED0001B017A6913437B617B6923F040037B619B
:103EE0007B68144A934213D13B6923F480633B619E
:103EF0003B6923F400633B613B685B699B003A6963
:103F000013433B613B689B699B003A6913433B61E8
:103F10007B683A695A607B68FA689A613B685A68BC
:103F20007B689A637B687A691A621C37BD465DF8C4
:103F3000047B7047002C014080B487B000AF7860EC
:103F400039600023FB6000237B6100233B617B68B9
:103F50001B6A23F480727B681A627B681B6A7B6130
:103F60007B685B683B617B68DB69FB60FB6823F017
:103F70007003FB60FB6823F00303FB603B681B6876
:103F8000FA681343FB607B6923F400737B613B6831
:103F90009B681B027A6913437B617B681D4A9342CD
:103FA0000DD17B6923F400637B613B68DB681B02F6
:103FB0007A6913437B617B6923F480637B617B684F
:103FC000144A934213D13B6923F480533B613B690C
:103FD00023F400533B613B685B691B013A6913435F
:103FE0003B613B689B691B013A6913433B617B68FA
:103FF0003A695A607B68FA68DA613B685A687B689C
:10400000DA637B687A691A621C37BD465DF8047B07
:10401000704700BF002C014080B487B000AF7860CB
:10402000396000233B610023FB6000237B617B68D8
:104030001B6A23F480527B681A627B681B6AFB60F0
:104040007B685B687B617B68DB693B613B6923F470
:10405000E0433B613B6923F440733B613B681B6871
:104060001B023A6913433B61FB6823F40053FB6076
:104070003B689B681B03FA681343FB607B680F4A2D
:10408000934209D17B6923F480437B613B685B6980
:104090009B017A6913437B617B687A695A607B680C
:1040A0003A69DA613B685A687B681A647B68FA6827
:1040B0001A621C37BD465DF8047B7047002C014036
:1040C00080B483B000AF786039607B6893F83C308F
:1040D000012B01D1022332E07B68012283F83C20CE
:1040E0007B68022283F83D207B681B687A6812682F
:1040F000526822F070025A607B681B687A68126806
:1041000051683A6812680A435A607B681B687A688B
:104110001268926822F080029A607B681B687A6855
:10412000126891683A6852680A439A607B68012273
:1041300083F83D207B68002283F83C20002318464A
:104140000C37BD465DF8047B704700BF80B483B078
:1041500000AF78600C37BD465DF8047B704700BF48
:1041600080B483B000AF78600C37BD465DF8047B47
:10417000704700BF80B582B000AF78607B68002BCD
:1041800001D101233FE07B6893F83930DBB2002B8B
:1041900006D17B68002283F838207868FCF7D4FBCE
:1041A0007B68242283F839207B681B687A68126850
:1041B000D26822F40052DA60786800F029F87B684F
:1041C0001B687A681268126922F490421A617B684F
:1041D0001B687A681268526922F02A025A617B6869
:1041E0001B687A681268D26842F40052DA607B6811
:1041F0000022DA637B68202283F839207B68202242
:1042000083F83A20002318460837BD4680BD00BF1A
:10421000F0B585B000AF78600023FB607B681B6859
:104220007A681268126922F440517A68D2680A43A7
:104230001A617B689A687B681B691A437B685B69B3
:104240001343FA681343FB607B681A687B681B683A
:10425000DB6823F4B05323F00C03F9680B43D360FD
:104260007B681B687A681268526922F440717A6828
:1042700092690A435A617B681B686E4A93426BD10C
:104280007B681C68FFF78AF9024613469B001344BB
:104290009A001A447B685B689B00B2FBF3F3664AA2
:1042A000A2FB03235B091D01FFF778F902461346C1
:1042B0009B0013449A001A447B685B689B00B2FB26
:1042C000F3F6FFF76BF9024613469B0013449A007E
:1042D0001A447B685B689B00B2FBF3F3564AA2FB6F
:1042E00003235B09642202FB03F3F31A1B0132333D
:1042F000514AA2FB03235B0903F0F0031D44FFF7BF
:104300004DF9024613469B0013449A001A447B68F9
:104310005B689B00B2FBF3F6FFF740F902461346D9
:104320009B0013449A001A447B685B689B00B2FBB5
:10433000F3F3414AA2FB03235B09642202FB03F36C
:10434000F31A1B0132333C4AA2FB03235B0903F03F
:104350000F032B44A3606AE07B681C68FFF70AF92F
:10436000024613469B0013449A001A447B685B681C
:104370009B00B2FBF3F3304AA2FB03235B091D0150
:10438000FFF7F8F8024613469B0013449A001A44BC
:104390007B685B689B00B2FBF3F6FFF7EBF8024625
:1043A00013469B0013449A001A447B685B689B0089
:1043B000B2FBF3F3204AA2FB03235B09642202FB56
:1043C00003F3F31A1B0132331B4AA2FB03235B09DD
:1043D00003F0F0031D44FFF7CDF8024613469B009F
:1043E00013449A001A447B685B689B00B2FBF3F6A7
:1043F000FFF7C0F8024613469B0013449A001A4484
:104400007B685B689B00B2FBF3F30B4AA2FB0323C0
:104410005B09642202FB03F3F31A1B013233064AE1
:10442000A2FB03235B0903F00F032B44A3601437A3
:10443000BD46F0BD003801401F85EB51002103E06F
:104440000B4B5B58435004310A480B4B42189A42BD
:10445000F6D30A4A02E0002342F8043B084B9A4292
:10446000F9D3FCF713FC00F00FF8FBF7A3FE70473D
:1044700074450008000000200C0000200C00002003
:1044800098100020FEE700000E4B70B51E460E4C43
:104490000025E41AA410A54204D056F82530984708
:1044A0000135F8E700F016F8084B094C1E46E41AEF
:1044B000A4100025A54204D056F8253098470135B0
:1044C000F8E770BD6C4500086C4500086C450008B5
:1044D00070450008F8B500BFF8BC08BC9E467047A0
:0C44E000F8B500BFF8BC08BC9E46704751
:1044EC0064656661756C745461736B00EC44000810
:1044FC0045060008000000000000000080000000DD
:10450C002E2E2F5372632F6D61696E2E6300000087
:10451C002E2E2F5372632F73746D3332663178786D
:10452C005F68616C5F6D73702E63000049444C458D
:10453C000000000002030405060708090A0B0C0D15
:10454C000E0F10100102000000000000000000001F
:10455C00010203040607080900000000010203041D
:04456C007D010008C5
:0445700055010008E9
:0C45740000A24A04AAAAAAAA01000000A2
:040000050800443D6E
:00000001FF
