:020000040800F2
:1000000000500020B97100088520000891200008E8
:1000100099200008A1200008A92000080000000085
:10002000000000000000000000000000E1250008C2
:10003000B12000080000000091270008BD20000842
:1000400001720008017200080172000801720008C4
:1000500001720008017200080172000801720008B4
:10006000017200080172000801720008C92000082E
:1000700001720008D9200008E9200008F9200008D2
:100080000921000819210008017200080172000806
:100090000172000801720008017200080172000874
:1000A000017200082921000801720008017200088D
:1000B0000172000801720008017200080172000854
:1000C0000172000801720008017200080172000844
:1000D0000172000801720008017200080172000834
:1000E000017200080172000801720008000000009F
:1000F0000000000000000000000000000000000000
:0C01000000000000000000005FF808F1A3
:10011000044B05481B1A062B02D9044B03B11847A0
:10012000704700BF0F0000200C00002000000000FE
:1001300005490648091A891001EBD171491002D00E
:10014000034B03B1184770470C0000200C0000203F
:100150000000000010B5064C237843B9FFF7D8FF24
:10016000044B13B10448AFF300800123237010BD8A
:100170000C000020000000005072000808B5084B79
:100180001BB108480849AFF300800848036813B959
:10019000BDE80840CCE7064B002BF9D09847F7E7BD
:1001A0000000000050720008100000200C00002029
:1001B0000000000080F0004002E000BF81F000413C
:1001C00042001FBF5FEA410392EA030F7FEA226CFD
:1001D0007FEA236C6AD04FEA1262D2EB1363C1BF8D
:1001E000D218414048404140B8BF5B42192B88BFFC
:1001F000704710F0004F40F4000020F07F4018BF1F
:10020000404211F0004F41F4000121F07F4118BF3E
:10021000494292EA030F3FD0A2F1010241FA03FCE6
:1002200010EB0C00C3F1200301FA03F100F00043CE
:1002300002D5494260EB4000B0F5000F13D3B0F196
:10024000807F06D340084FEA310102F10102FE2A05
:1002500051D2B1F1004F40EBC25008BF20F0010075
:1002600040EA03007047490040EB000010F4000F23
:10027000A2F10102EDD1B0FA80FCACF1080CB2EBB6
:100280000C0200FA0CF0AABF00EBC2505242184315
:10029000BCBFD0401843704792F0000F81F40001BA
:1002A00006BF80F400000132013BB5E74FEA41038D
:1002B0007FEA226C18BF7FEA236C21D092EA030FF9
:1002C00004D092F0000F08BF0846704790EA010F73
:1002D0001CBF0020704712F07F4F04D1400028BFA0
:1002E00040F00040704712F100723CBF00F5000082
:1002F000704700F0004343F0FE4040F400007047B8
:100300007FEA226216BF08467FEA23630146420263
:1003100006BF5FEA412390EA010F40F48000704776
:100320004FF0000304E000BF10F0004348BF40421C
:100330005FEA000C08BF704743F0964301464FF058
:1003400000001CE050EA010208BF70474FF00003B4
:100350000AE000BF50EA010208BF704711F00043F5
:1003600002D5404261EB41015FEA010C02BF8446C5
:100370000146002043F0B64308BFA3F18053A3F524
:100380000003BCFA8CF2083AA3EBC25310DB01FA6B
:1003900002FC634400FA02FCC2F12002BCF1004FEF
:1003A00020FA02F243EB020008BF20F00100704780
:1003B00002F1200201FA02FCC2F1200250EA4C00D4
:1003C00021FA02F243EB020008BF20EADC7070471A
:1003D0004FF0FF0C1CEAD0521EBF1CEAD15392EA28
:1003E0000C0F93EA0C0F6FD01A4480EA010C400204
:1003F00018BF5FEA41211ED04FF0006343EA50105E
:1004000043EA5111A0FB01310CF00040B1F5000F9F
:100410003EBF490041EAD3715B0040EA010062F14E
:100420007F02FD2A1DD8B3F1004F40EBC25008BF38
:1004300020F00100704790F0000F0CF0004C08BF56
:1004400049024CEA502040EA51207F3AC2BFD2F123
:10045000FF0340EAC250704740F400004FF0000331
:10046000013A5DDC12F1190FDCBF00F0004070476B
:10047000C2F10002410021FA02F1C2F1200200FAA9
:1004800002FC5FEA310040F1000053EA4C0308BF70
:1004900020EADC70704792F0000F00F0004C02BFC1
:1004A000400010F4000F013AF9D040EA0C0093F03C
:1004B000000F01F0004C02BF490011F4000F013B96
:1004C000F9D041EA0C018FE70CEAD15392EA0C0F04
:1004D00018BF93EA0C0F0AD030F0004C18BF31F06F
:1004E000004CD8D180EA010000F00040704790F045
:1004F000000F17BF90F0004F084691F0000F91F0E9
:10050000004F14D092EA0C0F01D142020FD193EAAE
:100510000C0F03D14B0218BF084608D180EA010036
:1005200000F0004040F0FE4040F40000704740F012
:10053000FE4040F4400070474FF0FF0C1CEAD052E0
:100540001EBF1CEAD15392EA0C0F93EA0C0F69D03C
:10055000A2EB030280EA010C49024FEA402037D0A7
:100560004FF0805343EA111143EA10130CF000409E
:100570008B4238BF5B0042F17D024FF4000C8B428E
:1005800024BF5B1A40EA0C00B3EB510F24BFA3EB6E
:10059000510340EA5C00B3EB910F24BFA3EB91033E
:1005A00040EA9C00B3EBD10F24BFA3EBD10340EA98
:1005B000DC001B0118BF5FEA1C1CE0D1FD2A3FF6DE
:1005C00050AF8B4240EBC25008BF20F00100704793
:1005D0000CF0004C4CEA50207F32C2BFD2F1FF0336
:1005E00040EAC250704740F400004FF00003013A67
:1005F00037E792F0000F00F0004C02BF400010F40B
:10060000000F013AF9D040EA0C0093F0000F01F01E
:10061000004C02BF490011F4000F013BF9D041EA40
:100620000C0195E70CEAD15392EA0C0F08D1420273
:100630007FF47DAF93EA0C0F7FF470AF084676E746
:1006400093EA0C0F04D14B023FF44CAF08466EE71F
:1006500030F0004C18BF31F0004CCAD130F00042ED
:100660007FF45CAF31F000437FF43CAF5FE700BF45
:1006700080B584B002AF786000BFEE239BB2192230
:10068000009278681946074A012304F073F803467C
:10069000002BF2D148237868194600F015F9083785
:1006A000BD4680BD6773000880B586B002AF786034
:1006B000396000BFEE239BB2192200927868194678
:1006C0007B4A012304F056F80346002BF2D100BF09
:1006D000EE239AB21923194607F10C0300917868AA
:1006E00011461A46022304F053F90346002BEFD1BA
:1006F0003B7B1B029AB27B7B9BB213439BB29AB2A9
:100700003B681A8000BFEE239BB2192200927868E2
:100710001946684A012304F02DF80346002BF2D154
:1007200000BFEE239AB21923194607F10C0300917A
:10073000786811461A46022304F02AF90346002B72
:10074000EFD13B6802333A7B120291B27A7B92B2CC
:100750000A4392B292B21A8000BFEE239BB21922D2
:10076000009278681946544A012304F003F80346BE
:10077000002BF2D100BFEE239AB21923194607F1DC
:100780000C030091786811461A46022304F000F920
:100790000346002BEFD13B6804333A7B120291B23F
:1007A0007A7B92B20A4392B292B21A8000BFEE23D1
:1007B0009BB21922009278681946404A012303F03F
:1007C000D9FF0346002BF2D100BFEE239AB21923C2
:1007D000194607F10C030091786811461A46022366
:1007E00004F0D6F80346002BEFD13B6806333A7B82
:1007F000120291B27A7B92B20A4392B292B21A80FA
:1008000000BFEE239BB219220092786819462C4A49
:10081000012303F0AFFF0346002BF2D100BFEE230C
:100820009AB21923194607F10C0300917868114612
:100830001A46022304F0ACF80346002BEFD13B68C4
:1008400008333A7B120291B27A7B92B20A4392B297
:1008500092B21A8000BFEE239BB2192200927868F0
:100860001946184A012303F085FF0346002BF2D1F5
:1008700000BFEE239AB21923194607F10C03009129
:10088000786811461A46022304F082F80346002BCA
:10089000EFD13B680A333A7B120291B27A7B92B273
:1008A0000A4392B292B21A801037BD4680BD00BF93
:1008B0006A7300086B7300086C7300086D7300089E
:1008C0006E7300086F73000880B584B002AF786063
:1008D0000B46FB7000BFEE239AB219231946FB1C8E
:1008E0000091786811461A46012303F043FF03463E
:1008F000002BF0D10837BD4680BD00BF80B586B063
:1009000002AF7860396000BFEE239BB219220092DB
:1009100078681946124A012303F02CFF0346002B86
:10092000F2D100BFEE239AB21923194607F10C0346
:100930000091786811461A46032304F029F803460B
:10094000002BEFD13B7B1A047B7B1B021343BA7B4A
:1009500013431A463B681A601037BD4680BD00BF7E
:100960006673000880B582B000AF7860786800F0E8
:100970000FF87868002100F027F87868002100F06F
:1009800041F87868002100F085F80837BD4680BD41
:1009900080B586B002AF78606B233B7300237B7316
:1009A00000BFD0239AB21923194607F10C03009116
:1009B000786811461A46022303F0DCFE0346002B3A
:1009C000EFD11037BD4680BD80B586B002AF7860EC
:1009D0000B46FB7019233B73FB787B7300BFD0235E
:1009E0009AB21923194607F10C0300917868114651
:1009F0001A46022303F0BEFE0346002BEFD1103748
:100A0000BD4680BD80B586B002AF78600B46FB70F6
:100A100000BFD0239BB219220092786819461C4A65
:100A2000012303F0A7FE0346002BF2D100BFD02321
:100A30009AB21923194607F10F03009178681146FD
:100A40001A46012303F0A4FF0346002BEFD1FB7BE2
:100A5000DBB223F01803DAB2FB78DB00DBB213431E
:100A6000DBB2DBB2FB7300BFD0239AB21923194665
:100A700007F10F030091786811461A46012303F02D
:100A800079FE0346002BEFD11037BD4680BD00BF75
:100A90007073000880B586B002AF78600B46FB70BB
:100AA00000BFD0239BB219220092786819461C4AD5
:100AB000012303F05FFE0346002BF2D100BFD023D9
:100AC0009AB21923194607F10F030091786811466D
:100AD0001A46012303F05CFF0346002BEFD1FB7B9A
:100AE000DBB223F01803DAB2FB78DB00DBB213438E
:100AF000DBB2DBB2FB7300BFD0239AB219231946D5
:100B000007F10F030091786811461A46012303F09C
:100B100031FE0346002BEFD11037BD4680BD00BF2C
:100B20007173000880B586B002AF7860396000BF8D
:100B3000D0239BB219220092786819461B4A0123E0
:100B400003F018FE0346002BF2D100BFD0239AB267
:100B50001923194607F108030091786811461A46CF
:100B6000062303F015FF0346002BEFD13B7A1B024F
:100B70009AB27B7A9BB213439AB23B681A803B6865
:100B80000233BA7A120291B2FA7A92B20A4392B25C
:100B90001A803B6804333A7B120291B27A7B92B29C
:100BA0000A4392B21A801037BD4680BD72730008A6
:100BB00080B586B002AF7860396000BFD0239BB2A9
:100BC00019220092786819461B4A012303F0D2FDCE
:100BD0000346002BF2D100BFD0239AB21923194645
:100BE00007F108030091786811461A46062303F0BE
:100BF000CFFE0346002BEFD13B7A1B029AB27B7AE1
:100C00009BB213439AB23B681A803B680233BA7AAC
:100C1000120291B2FA7A92B20A4392B21A803B68F7
:100C200004333A7B120291B27A7B92B20A4392B2B7
:100C30001A801037BD4680BD7373000880B582B03E
:100C400000AF78607868002100F09CF87868042193
:100C500000F008F87868012100F04CF80837BD462C
:100C600080BD00BF80B586B002AF78600B46FB70D8
:100C700000BFD0239BB219220092786819461C4A03
:100C8000012303F077FD0346002BF2D100BFD023F0
:100C90009AB21923194607F10F030091786811469B
:100CA0001A46012303F074FE0346002BEFD1FB7BB1
:100CB000DBB223F01C03DAB2FB789B00DBB21343F8
:100CC000DBB2DBB2FB7300BFD0239AB21923194603
:100CD00007F10F030091786811461A46012303F0CB
:100CE00049FD0346002BEFD11037BD4680BD00BF44
:100CF0007473000880B586B002AF78600B46FB7055
:100D000000BFD0239BB219220092786819461C4A72
:100D1000012303F02FFD0346002BF2D100BFD023A7
:100D20009AB21923194607F10F030091786811460A
:100D30001A46012303F02CFE0346002BEFD1FB7B68
:100D4000DBB203F01F03DAB2FB785B01DBB21343C3
:100D5000DBB2DBB2FB7300BFD0239AB21923194672
:100D600007F10F030091786811461A46012303F03A
:100D700001FD0346002BEFD11037BD4680BD00BFFB
:100D80007573000880B586B002AF78600B46FB70C3
:100D9000D0239BB21922009278681946214A012378
:100DA00003F0E8FC0346FB7300BFD0239BB219227B
:100DB0000092786819461B4A012303F0DBFC0346C6
:100DC000002BF2D100BFD0239AB21923194607F1A4
:100DD0000E030091786811461A46012303F0D8FDEE
:100DE0000346002BEFD1BB7BDBB223F00303DAB267
:100DF000FB781343DBB2DBB2BB7300BFD0239AB2E4
:100E00001923194607F10E030091786811461A4616
:100E1000012303F0AFFC0346002BEFD11037BD4692
:100E200080BD00BF7673000890B587B002AF7860D0
:100E30003960D0239BB219221446786819460522DE
:100E4000234603F0DFFF0346FB73D0239BB2192236
:100E5000009278681946244A012303F08BFC03466C
:100E6000FB7300BFD0239BB2192200927868194609
:100E70001D4A012303F07EFC0346002BF2D100BF84
:100E8000D0239AB21923194607F108030091786814
:100E900011461A46062303F07BFD0346002BEFD1D3
:100EA0003B7A1B02DAB27B7ADBB21343DBB2DAB2F3
:100EB0003B681A703B680133BA7A1202D1B2FA7AEF
:100EC000D2B20A43D2B2D2B21A703B6802333A7B32
:100ED0001202D1B27A7BD2B20A43D2B2D2B21A7023
:100EE0001437BD4690BD00BF77730008B0B59AB007
:100EF00000AF374B0F221A70354B002283F8312098
:100F000002F064FA00F07AF800F07EFA00F038FAA5
:100F100000F034F900F0D4F900F004FA00F060F9C0
:100F200000F0C4F82B4B07F154041D460FCD0FC43D
:100F30002B68236007F154031846002101F0A4FC3C
:100F40000246254B1A60254B07F140041D460FCD84
:100F50000FC42B68236007F140031846002101F0FD
:100F600093FC02461E4B1A601E4B07F12C041D46D3
:100F70000FCD0FC42B68236007F12C031846002106
:100F800001F082FC0246184B1A60184B07F1180456
:100F90001D460FCD0FC42B68236007F118031846B8
:100FA000002101F071FC0246114B1A60114B3C1DEF
:100FB0001D460FCD0FC42B6823603B1D1846002132
:100FC00001F062FC02460C4B1A6001F055FCFEE792
:100FD000E40F00207C720008580E0020A072000868
:100FE000740D0020CC720008FC0D0020F072000887
:100FF000A41000200C730008540E002080B594B09B
:1010000000AF0223BB620123BB631023FB630023F9
:101010007B6407F12803184604F016FB0346002BF7
:1010200003D02048E52100F041FA0F237B61002323
:10103000BB610023FB6100233B6200237B6207F15D
:1010400014031846002104F061FD0346002B03D071
:101050001448F32100F02AFA02237B600023FB608E
:101060003B1D184604F02EFF0346002B03D00D480D
:10107000FA2100F01BFA04F0A3FE02460A4BA3FB80
:1010800002239B09184602F0B3FE042002F0BCFEC6
:101090004FF0FF300F21002202F080FE5037BD4696
:1010A00080BD00BF20730008D34D621080B584B0AE
:1010B00000AF2F4B2F4A1A602D4B4FF480729A606D
:1010C0002B4B0122DA602A4B00225A61284B4FF445
:1010D0006022DA61264B00225A60254B03221A61F6
:1010E000234802F0C9F90346002B04D022484FF4EC
:1010F0008D7100F0DBF903237B600123BB600023CB
:10110000FB603B1D1A48194602F08CFB0346002B7E
:1011100004D019484FF4927100F0C8F904237B60A1
:101120000223BB600023FB603B1D1148194602F0FF
:1011300079FB0346002B04D00F484FF4967100F062
:10114000B5F905237B600323BB600023FB603B1DD7
:101150000748194602F066FB0346002B04D00648F8
:101160004FF49A7100F0A2F91037BD4680BD00BF60
:10117000E40E0020002401402073000880B500AF79
:10118000134B144A1A60124B134A5A60104B002238
:101190009A600F4B0022DA600D4B4FF480421A61C7
:1011A0000B4B00225A610A4B00229A61084B002225
:1011B000DA61074B00221A62054803F0D7F90346AB
:1011C000002B04D005484FF4A47100F06FF980BDE6
:1011D000000E002000540040A0860100207300088B
:1011E00080B58AB000AF344B4FF080421A60324B6A
:1011F00001225A60304B00229A602F4B4EF6CF02EC
:10120000DA602D4B00221A612B4B00229A612A488A
:1012100004F060FF0346002B04D028484FF4AE7161
:1012200000F044F900233B6200237B6207F12003B6
:101230002148194605F0C0FB0346002B04D01F4887
:1012400040F2631100F032F960237B600023BB6041
:101250000023FB6000237B613B1D174819460022D9
:1012600005F094F80346002B04D014484FF4B671EF
:1012700000F01CF93B1D10481946042205F086F8C1
:101280000346002B04D00D4840F2711100F00EF916
:101290003B1D09481946082205F078F80346002B43
:1012A00004D006484FF4BB7100F000F9024800F08A
:1012B00087FD2837BD4680BD6410002020730008DC
:1012C00080B500AF134B144A1A60124B134A5A6090
:1012D000104B4FF480529A600E4B4FF40052DA607C
:1012E0000C4B4FF480621A610A4B0C225A61094B75
:1012F00000229A61074B0022DA61064805F0B6FB2E
:101300000346002B04D0064840F28B1100F0CEF8C3
:1013100080BD00BF580F002000380140A0860100AA
:101320002073000880B500AF124B134A1A60114BAE
:101330004FF4E1325A600F4B00229A600D4B0022AD
:10134000DA600C4B00221A610A4B0C225A61094BDD
:1013500000229A61074B0022DA61064805F086FBFD
:101360000346002B04D005484FF4CF7100F09EF8DF
:1013700080BD00BF780D00200048004020730008A9
:1013800080B582B000AF1F4A1E4B5B6943F001037A
:1013900053611C4B5B6903F001037B607B680B208E
:1013A0000521002202F0FAFC0B2002F013FD0D20B3
:1013B0000521002202F0F2FC0D2002F00BFD0E20B0
:1013C0000521002202F0EAFC0E2002F003FD0F20AE
:1013D0000521002202F0E2FC0F2002F0FBFC1020AD
:1013E0000521002202F0DAFC102002F0F3FC1120AB
:1013F0000521002202F0D2FC112002F0EBFC08379C
:10140000BD4680BD0010024080B588B000AF1D4AC7
:101410001C4B9B6943F0100393611A4B9B6903F0CB
:101420001003FB60FB68174A164B9B6943F00403EB
:101430009361144B9B6903F00403BB60BB68114AC2
:10144000104B9B6943F0080393610E4B9B6903F0BB
:1014500008037B607B680C484FF40051002203F0C6
:101460005BF84FF400533B6101237B610223FB6176
:1014700007F110030448194602F0F0FE2037BD467C
:1014800080BD00BF001002400010014080B582B056
:1014900000AF78607B681B68034A934201D101F07A
:1014A000ABFF0837BD4680BD002C014080B483B03F
:1014B00000AF78603960FEE790B593B000AF786018
:1014C0007F48FFF7BBFB7E48FFF74CFA7C48FFF7ED
:1014D000CFF8462387F84730562387F8463007F180
:1014E000140377481946FFF7DFF807F1280374481B
:1014F0001946FFF717FB734C3B8D1BB21846FEF7DE
:1015000013FF034618467049FEF762FF034618466C
:101510006E49FEF75DFF034623606D4C7B8D1BB269
:101520001846FEF701FF034618466749FEF750FFCD
:10153000034618466549FEF74BFF03462360654C9A
:10154000BB8D1BB21846FEF7EFFE034618465E49F8
:10155000FEF73EFF034618465C49FEF739FF034697
:10156000236007F1280356481946FFF721FB5A4C20
:101570003B8D1BB21846FEF7D7FE03461846574967
:10158000FEF726FF03462360554C7B8D1BB21846A1
:10159000FEF7CAFE034618465049FEF719FF0346F8
:1015A0002360504CBB8D1BB21846FEF7BDFE0346B0
:1015B00018464A49FEF70CFF0346236007F128034B
:1015C0003F481946FFF730FC474C3B8D1BB218468D
:1015D000FEF7AAFE03462360444CBB8D1BB218469F
:1015E000FEF7A2FE03462360414C7B8D1BB21846DA
:1015F000FEF79AFE034623603E4B1B78304819469F
:10160000FFF762F9072001F067F907F120032C4882
:101610001946FFF773F9384B1B7829481946FFF72D
:1016200053F9072001F058F907F12403244819461B
:10163000FFF764F93B6ABA8B12029B1A3B643B6C5E
:101640009B12FA8B02FB03F35B1303F5FA63FB6354
:101650007B6ADB09BA8A120992B202FB03F39B0A86
:10166000FA8A52009A1A3B6C1B1119463B8B1B09D4
:101670009BB218467B6ADB0903FB00F3DB0A788B1D
:101680001B1ADB0A03FB01F3DB0913441A464FF074
:101690000003C7E90C23194CD7E90C01FEF75AFEE9
:1016A0000346236016484FF4005102F04DFF154BDE
:1016B0004FF080521A60BFF34F8FBFF36F8F14E764
:1016C000000E0020E50F002040DA7F380AE81C41B8
:1016D000E90F0020ED0F0020F10F00203F1EFA3B24
:1016E000F50F0020F90F0020FD0F00200110002051
:1016F00005100020697300086873000811100020AD
:101700000010014004ED00E080B582B000AF7860C9
:10171000074808493222642305F0F6F9064B4FF0DA
:1017200080521A60BFF34F8FBFF36F8FF0E700BF97
:10173000780D0020E40F002004ED00E080B582B0B9
:1017400000AF78600C484FF4005102F0FDFE3C20E1
:1017500001F070FE094800F08BF800F0A7F802468F
:10176000074B1A60074B4FF080521A60BFF34F8F40
:10177000BFF36F8FE6E700BF00100140580F002055
:10178000E00F002004ED00E080B584B000AF786089
:101790001F48002104F0CAFC1D48042104F0C6FCC7
:1017A0001B48082104F0C2FC43F6D013FB604EF640
:1017B000D003BB60164B1B68164A52881146BA68A4
:1017C00002FB01F1FA68B1FBF2F25A63104B1B689D
:1017D000104A52881146BA6802FB01F1FA68B1FB5F
:1017E000F2F29A630A4B1B680A4A52881146BA6899
:1017F00002FB01F1FA68B1FBF2F2DA63064B4FF03B
:1018000080521A60BFF34F8FBFF36F8FD2E700BFD4
:1018100064100020C410002004ED00E080B582B008
:1018200000AF78600C480D49032201F0FDFE0C4B1F
:101830000A4A12881A600B4B084A52881A600A4BEF
:10184000064A92881A60094B4FF080521A60BFF323
:101850004F8FBFF36F8FEAE7E40E00205C1000208B
:10186000091000200D1000201110002004ED00E0F0
:10187000B0B58AB000AF786007F10C0378681946FC
:10188000192205F0D9F9084B1D4607F10C040FCCBD
:1018900028606960AA60EB6003CC286169612378E5
:1018A0002B762837BD46B0BDA810002080B400AF0D
:1018B000964B1B780F2B40F02F81944B1B7E002BF7
:1018C00040F02A81914B5B789AB2904B9B781B0237
:1018D0009BB213439BB29BB2C3F30A039AB28C4BE5
:1018E0001A808A4B9B78DB08DBB29AB2874BDB7895
:1018F0005B019BB213439BB29BB2C3F30A039AB240
:10190000834B5A80814BDB789B09DBB29AB27F4BC9
:101910001B799B009BB213439AB27C4B5B799B0271
:101920009BB213439BB29BB2C3F30A039AB2784BA8
:101930009A80764B5B795B08DBB29AB2734B9B79EA
:10194000DB019BB213439BB29BB2C3F30A039AB26F
:101950006F4BDA806D4B9B791B09DBB29AB26B4BF4
:10196000DB791B019BB213439BB29BB2C3F30A0307
:101970009AB2674B1A81654BDB79DB09DBB29AB20D
:10198000624B1B7A5B009BB213439AB25F4B5B7A4C
:101990005B029BB213439BB29BB2C3F30A039AB29E
:1019A0005B4B5A81594B5B7A9B08DBB29AB2574B1F
:1019B0009B7A9B019BB213439BB29BB2C3F30A0376
:1019C0009AB2534B9A81514B9B7A5B09DBB29AB224
:1019D0004E4BDB7ADB009BB213439BB29BB2C3F34B
:1019E0000A039AB24A4BDA81484B1B7B9AB2474BA7
:1019F0005B7B1B029BB213439BB29BB2C3F30A03F4
:101A00009AB2434B1A82414B5B7BDB08DBB29AB242
:101A10003E4B9B7B5B019BB213439BB29BB2C3F3D8
:101A20000A039AB23A4B5A82384B9B7B9B09DBB232
:101A30009AB2364BDB7B9B009BB213439AB2334B7B
:101A40001B7C9B029BB213439BB29BB2C3F30A0362
:101A50009AB22F4B9A822D4B1B7C5B08DBB29AB259
:101A60002A4B5B7CDB019BB213439BB29BB2C3F35B
:101A70000A039AB2264BDA82244B5B7C1B09DBB249
:101A80009AB2224B9B7C1B019BB213439BB29BB22D
:101A9000C3F30A039AB21E4B1A831C4B9B7CDB09CF
:101AA000DBB29AB2194BDB7C5B009BB213439AB258
:101AB000164B1B7D5B029BB213439BB29BB2C3F3DD
:101AC0000A039AB2124B5A83104B1B7D9B08DBB260
:101AD0009AB20E4B5B7D9B019BB213439BB29BB2B0
:101AE000C3F30A039AB20A4B9A83084B5B7D5B09E6
:101AF000DBB29AB2054B9B7DDB009BB213439BB2DA
:101B00009BB2C3F30A039AB204E000BFA8100020FE
:101B1000C4100020034BDA83024B1846BD465DF823
:101B2000047B7047C410002080B582B000AF254A06
:101B3000244B9B6943F001039361224B9B6903F0A3
:101B400001033B603B68032002F01EF96FF00B00BD
:101B50000021002202F022F96FF00A000021002289
:101B600002F01CF96FF009000021002202F016F9C2
:101B70006FF004000021002202F010F96FF0030062
:101B80000021002202F00AF96FF001000F2100226B
:101B900002F004F94FF0FF300F21002202F0FEF8AE
:101BA000094B5B687B607B6823F0E0637B607B684C
:101BB00043F000737B60044A7B6853600837BD467E
:101BC00080BD00BF001002400000014080B588B019
:101BD00000AF78607B681B68224A93423FD1224A5B
:101BE000214B9B6943F4007393611F4B9B6903F482
:101BF0000073FB60FB6838233B6103237B6107F1C3
:101C000010031A48194602F029FB194B194A1A60A9
:101C1000174B00225A60164B00229A60144B802208
:101C2000DA60134B4FF480721A61114B4FF48062EB
:101C30005A610F4B00229A610D4B0022DA610C4869
:101C400002F0FEF80346002B03D00B488B21FFF770
:101C50002DFC7B68064A1A62054A7B68536220376E
:101C6000BD4680BD00240140001002400008014034
:101C70009C0F0020080002403073000880B588B037
:101C800000AF78607B681B68374A934269D1C023F4
:101C90003B6112237B610323FB6107F1100333488F
:101CA000194602F0DBFA324A314BDB6943F4001388
:101CB000D3612F4BDB6903F40013FB60FB682D4BF2
:101CC0002D4A1A602B4B00225A602A4B00229A6040
:101CD000284B8022DA60274B00221A61254B002214
:101CE0005A61244B00229A61224B4FF44052DA6130
:101CF000204802F0A5F80346002B03D01F48D4214A
:101D0000FFF7D4FB7B681B4A9A631A4A7B685362CD
:101D10001B4B1C4A1A601A4B10225A60184B0022A7
:101D20009A60174B8022DA60154B00221A61144B1F
:101D300000225A61124B00229A61114B4FF440521B
:101D4000DA610F4802F07CF80346002B03D00B4801
:101D5000E421FFF7ABFB7B68094A5A63084A7B68BA
:101D600053622037BD4680BD00540040000C014046
:101D7000001002401810002080000240307300085C
:101D8000B80D00206C00024080B485B000AF7860D0
:101D90007B681B68B3F1804F0BD1084A074BDB69A6
:101DA00043F00103D361054BDB6903F00103FB60E2
:101DB000FB681437BD465DF8047B70470010024095
:101DC00080B586B000AF78607B681B68B3F1804F48
:101DD0000BD10723BB600223FB6002237B6107F169
:101DE00008030348194602F039FA1837BD4680BD8A
:101DF0000008014080B588B000AF78607B681B6840
:101E0000694A934279D1694A684B9B6943F480439C
:101E10009361664B9B6903F48043FB60FB684FF45E
:101E200000733B6102237B610323FB6107F1100315
:101E30005F48194602F012FA4FF480633B610023B9
:101E40007B610023BB6107F110035948194602F07A
:101E500005FA584B584A1A60564B00225A60554BA7
:101E600000229A60534B8022DA60524B00221A61A2
:101E7000504B00225A614F4B00229A614D4B4FF458
:101E80004052DA614B4801F0DBFF0346002B04D0DF
:101E90004A484FF4B771FFF709FB7B68454A5A631C
:101EA000444A7B685362464B464A1A60444B1022B0
:101EB0005A60434B00229A60414B8022DA60404BCB
:101EC00000221A613E4B00225A613D4B00229A616A
:101ED0003B4B0022DA613A4801F0B2FF0346002B87
:101EE00004D036484FF4BF71FFF7E0FA7B68344AFC
:101EF0001A63334A7B68536253E07B681B68324A3B
:101F000093424ED1294A294BDB6943F48023D361A4
:101F1000264BDB6903F48023BB60BB684FF480630E
:101F20003B6102237B610323FB6107F11003274818
:101F3000194602F093F94FF400633B6100237B6183
:101F40000023BB6107F110032048194602F086F90F
:101F50001F4B204A1A601E4B10225A601C4B002255
:101F60009A601B4B8022DA60194B00221A61184BD1
:101F700000225A61164B00229A61154B0022DA6149
:101F8000134801F05DFF0346002B04D00B4840F2DC
:101F9000A911FFF78BFA7B680D4A1A630C4A7B681C
:101FA00053622037BD4680BD00380140001002401A
:101FB00000080140140F0020580002403073000850
:101FC000A00E00204400024000480040000C0140E8
:101FD0005C0E00201C00024080B58CB000AF786021
:101FE0000023FB620023BB6219207968002201F004
:101FF000D5FE192001F0EEFE1E4A1E4B9B6943F4EC
:10200000006393611B4B9B6903F40063FB60FB68F7
:1020100007F1140207F110031046194603F004FFFC
:1020200003F0EEFEF862FB6A134AA2FB03239B0C4B
:10203000013BBB62114B124A1A60104B40F2E7326F
:10204000DA600E4ABB6A53600C4B00221A610B4BDC
:1020500000229A60094803F0EBFF0346002B04D1ED
:10206000064804F01BF8034600E001231846303709
:10207000BD4680BD0010024083DE1B43E4100020FB
:10208000002C014080B400AFBD465DF8047B704772
:1020900080B400AFFEE700BF80B400AFFEE700BF32
:1020A00080B400AFFEE700BF80B400AFFEE700BF22
:1020B00080B400AFBD465DF8047B704780B500AFCB
:1020C00000F01EFC80BD00BF80B500AF014801F0EC
:1020D0007FFF80BD9C0F002080B500AF014801F05C
:1020E00077FF80BD5C0E002080B500AF014801F095
:1020F0006FFF80BDA00E002080B500AF014801F049
:1021000067FF80BD140F002080B500AF014801F0CB
:102110005FFF80BDB80D002080B500AF014801F021
:1021200057FF80BD1810002080B500AF014804F0B3
:1021300025F880BDE410002080B400AF154A154B8F
:102140001B6843F0010313601249124B5A68124B8B
:1021500013404B600F4A0F4B1B6823F0847323F42A
:10216000803313600B4A0B4B1B6823F480231360EE
:10217000084A084B5B6823F4FE035360054B4FF499
:102180001F029A60054B4FF000629A60BD465DF8F1
:10219000047B7047001002400000FFF800ED00E0F3
:1021A00080B58AB000AF78600023FB6100F004FEC8
:1021B000574B1B68002B01D100F00CF9554B1A68E6
:1021C0007B681340002B40F08C807B68002B1CD078
:1021D00008227B6813447B607B6803F00703002BB5
:1021E00013D07B6823F0070308337B607B6803F020
:1021F0000703002B09D04FF0500383F31188BFF37E
:102200006F8FBFF34F8F7B61FEE77B68002B68D039
:10221000414B1B687A689A4263D8404B3B623F4B04
:102220001B687B6204E07B6A3B627B6A1B687B62A3
:102230007B6A5A687B689A4203D27B6A1B68002BD0
:10224000F1D1334B1B687A6A9A424AD03B6A1B68C9
:1022500008221344FB617B6A1A683B6A1A607B6A36
:102260005A687B68D21A08235B009A421ED97A6AA0
:102270007B681344BB61BB6903F00703002B09D0E3
:102280004FF0500383F31188BFF36F8FBFF34F8F6D
:102290003B61FEE77B6A5A687B68D21ABB695A6069
:1022A0007B6A7A685A60B86900F0F6F81A4B1A68C7
:1022B0007B6A5B68D31A184A1360174B1A68184B6D
:1022C0001B689A4203D2144B1B68154A13607B6A41
:1022D0005A68104B1B681A437B6A5A607B6A00225B
:1022E0001A6000F077FDFB6903F00703002B09D0AB
:1022F0004FF0500383F31188BFF36F8FBFF34F8FFD
:10230000FB60FEE7FB6918462837BD4680BD00BF6D
:10231000300C00203C0C0020340C0020280C002045
:10232000380C002080B586B000AF78607B687B6198
:102330007B68002B46D008235B427A6913447B619B
:102340007B693B613B695A68204B1B681340002B3B
:1023500009D14FF0500383F31188BFF36F8FBFF3A0
:102360004F8FFB60FEE73B691B68002B09D04FF0E5
:10237000500383F31188BFF36F8FBFF34F8FBB60A0
:10238000FEE73B695A68114B1B681340002B19D0BC
:102390003B691B68002B15D13B695A680B4B1B68C6
:1023A000DB431A403B695A6000F006FD3B695A68FE
:1023B000074B1B681344064A1360386900F06CF839
:1023C00000F008FD1837BD4680BD00BF3C0C002062
:1023D000340C002080B485B000AF4FF44063BB6084
:1023E000274BFB60FB6803F00703002B0CD0FB6856
:1023F0000733FB60FB6823F00703FB60BA68FB68E8
:10240000D31A1F4A1344BB60FB687B601D4A7B687C
:1024100013601C4B00225A607A68BB681344FB604F
:102420000822FB689B1AFB60FB6823F00703FB6034
:10243000FB68154A1360144B1B6800225A60124B4C
:102440001B6800221A607B683B603B68FA68D21AFE
:102450003B685A600C4B1A683B681A603B685B68C3
:102460000A4A13603B685B68094A1360094B4FF0E6
:1024700000421A601437BD465DF8047B704700BF08
:1024800028000020280C0020300C0020380C0020F0
:10249000340C00203C0C002080B485B000AF786084
:1024A000274BFB6002E0FB681B68FB60FB681A6857
:1024B0007B689A42F7D3FB68BB60FB685B68BA68CD
:1024C0001A447B689A4208D1FB685A687B685B684B
:1024D0001A44FB685A60FB687B607B68BB607B6862
:1024E0005B68BA681A44FB681B689A4218D1FB689B
:1024F0001A68144B1B689A420DD07B685A68FB68B7
:102500001B685B681A447B685A60FB681B681A6822
:102510007B681A6008E00B4B1A687B681A6003E05E
:10252000FB681A687B681A60FA687B689A4202D076
:10253000FB687A681A601437BD465DF8047B704703
:10254000280C0020300C002080B485B000AFF8606B
:10255000B9607A60FB68043BFB60FB684FF08072F7
:102560001A60FB68043BFB60BB6823F00102FB6858
:102570001A60FB68043BFB60094AFB681A60FB6851
:10258000143BFB607A68FB681A60FB68203BFB60C9
:10259000FB6818461437BD465DF8047B704700BFE2
:1025A000A525000880B483B000AF0C4B1B68B3F1C5
:1025B000FF3F09D04FF0500383F31188BFF36F8FB3
:1025C000BFF34F8F7B60FEE74FF0500383F311881A
:1025D000BFF36F8FBFF34F8F3B60FEE70400002017
:1025E000074B19680868B0E8F00F80F30988BFF35B
:1025F0006F8F4FF0000080F311884EF00D0E704782
:10260000480C002006480068006880F3088862B61D
:1026100061B6BFF34F8FBFF36F8F00DF00BF0000C5
:1026200008ED00E080B584B000AF284BFB60FB688C
:102630001B78DBB2BB60FB68FF221A70FB681B785B
:10264000DBB2FB71FB79DBB203F05003DAB2204B53
:102650001A70204B07221A6009E01E4B1B68013BD1
:102660001C4A1360FB79DBB25B00DBB2FB71FB79C8
:10267000DBB2DBB25BB2002BEFDB164B1B681B023D
:10268000144A1360134B1B6803F4E063114A136090
:10269000BB68DAB2FB681A700F4A0F4B1B6843F431
:1026A000700313600C4A0C4B1B6843F070431360BB
:1026B00000F0B0F8094B00221A60FFF7A3FFFFF704
:1026C00071FF002318461037BD4680BD00E400E0CE
:1026D000400C0020440C002020ED00E0040000200D
:1026E00080B483B000AF4FF0500383F31188BFF381
:1026F0006F8FBFF34F8F7B600E4B1B6801330D4A0A
:1027000013600C4B1B68012B0ED10B4B1B68DBB20B
:10271000002B09D04FF0500383F31188BFF36F8F64
:10272000BFF34F8F3B60FEE70C37BD465DF8047B7F
:10273000704700BF0400002004ED00E080B483B0C7
:1027400000AF104B1B68002B09D14FF0500383F3EF
:102750001188BFF36F8FBFF34F8F7B60FEE7094B8C
:102760001B68013B074A1360064B1B68002B04D112
:1027700000233B603B6883F311880C37BD465DF84E
:10278000047B7047040000200000000000000000EF
:10279000EFF30980BFF36F8F0D4B1A6820E9F00F3C
:1027A00010602DE908404FF0500080F3118800F0D0
:1027B0006DFC4FF0000080F31188BDE808401968F7
:1027C0000868B0E8F00F80F30988BFF36F8F704797
:1027D000480C002080B582B000AF4FF0500383F367
:1027E0001188BFF36F8FBFF34F8F7B6000F090FBBA
:1027F0000346002B03D0064B4FF080521A60002393
:102800003B603B6883F311880837BD4680BD00BF3D
:1028100004ED00E080B400AF074A084B1B6808498C
:10282000A1FB03139B09013B1360064B07221A60AF
:10283000BD465DF8047B704714E000E00000002016
:10284000D34D621010E000E080B485B000AF0346C5
:10285000FB800023FB60B7F90630842B05D0B7F965
:102860000620FB6813440333FB60FB6818461437EB
:10287000BD465DF8047B704780B500AF00F058FAA4
:102880000023184680BD00BFF0B587B002AF786066
:1028900039607B685E687B681D687B681B699CB2D9
:1028A0007B681B891BB21846FFF7CEFF03460093D7
:1028B00007F10C0301933046294622463B6800F09D
:1028C000DBF80346012B01D0002300E0FB6818462B
:1028D0001437BD46F0BD00BF80B584B000AF78604E
:1028E0007B68FB60FB68002B01D0FB6800E00123E4
:1028F000184600F0EBF9002318461037BD4680BD9E
:1029000080B500AF00F0E0FC0346012B01D0FFF7DB
:1029100061FF80BD80B483B000AF78607B6803F155
:1029200008027B685A607B684FF0FF329A607B68D0
:1029300003F108027B68DA607B6803F108027B68B8
:102940001A617B6800221A600C37BD465DF8047B73
:10295000704700BF80B483B000AF78607B6800220E
:102960001A610C37BD465DF8047B704780B485B0B2
:1029700000AF786039607B685B68FB603B68FA6831
:102980005A60FB689A683B689A60FB689B683A6883
:102990005A60FB683A689A603B687A681A617B689B
:1029A0001B685A1C7B681A601437BD465DF8047BAF
:1029B000704700BF80B485B000AF786039603B6875
:1029C0001B68BB60BB68B3F1FF3F03D17B681B6929
:1029D000FB600CE07B680833FB6002E0FB685B682F
:1029E000FB60FB685B681A68BB689A42F6D9FB68B3
:1029F0005A683B685A603B685B683A689A603B6813
:102A0000FA689A60FB683A685A603B687A681A61AB
:102A10007B681B685A1C7B681A601437BD465DF8DA
:102A2000047B704780B485B000AF78607B681B6919
:102A3000FB607B685B687A6892689A607B689B68D9
:102A40007A6852685A60FB685A687B689A4203D178
:102A50007B689A68FB685A607B6800221A61FB6891
:102A60001B685A1EFB681A60FB681B6818461437FF
:102A7000BD465DF8047B704780B58CB004AFF8604C
:102A8000B9603B601346FB80FB889B001846FFF74C
:102A900087FB78617B69002B0ED05420FFF780FB09
:102AA000F861FB69002B03D0FB697A691A6305E0C2
:102AB0007869FFF737FC01E00023FB61FB69002B1D
:102AC00013D0FA88BB6A0093FB6A0193FB690293F7
:102AD00000230393F868B9683B6800F00FF8F869C1
:102AE00000F088F80123BB6102E04FF0FF33BB61C7
:102AF000BB6918462037BD4680BD00BF80B588B091
:102B000000AFF860B9607A603B603B6B1A6B7B6822
:102B100003F18043013B9B001344BB61BB6923F07D
:102B20000703BB61BB6903F00703002B09D04FF01B
:102B3000500383F31188BFF36F8FBFF34F8F7B6117
:102B4000FEE70023FB6113E0BA68FB6913441978C0
:102B50003A6BFB69134430330A461A71BA68FB6951
:102B600013441B78002B00D105E0FB690133FB61A6
:102B7000FB690F2BE8D93B6B002283F84320BB6A2B
:102B8000062B01D90623BB623B6BBA6ADA623B6B48
:102B9000BA6A5A643B6B00229A643B6B0433184652
:102BA000FFF7D8FE3B6B18331846FFF7D3FE3B6B9D
:102BB0003A6B1A61BB6AC3F107023B6B9A613B6BCC
:102BC0003A6B5A623B6B0022DA643B6B002283F85B
:102BD0005020B869F9683A68FFF7B6FC02463B6BCB
:102BE0001A60FB6A002B02D0FB6A3A6B1A6020372E
:102BF000BD4680BD80B582B000AF7860FFF770FD44
:102C00002B4B1B6801332A4A13602A4B1B68002B8D
:102C100009D1284A7B681360254B1B68012B10D112
:102C200000F0A6FA0DE0244B1B68002B09D1214BC4
:102C30001B68DA6A7B68DB6A9A4202D81D4A7B68A5
:102C400013601E4B1B6801331C4A13607B68DB6AF0
:102C50001A46012303FA02F2194B1B681343184A60
:102C600013607B68DA6A13469B0013449B00154A85
:102C70001A447B68043310461946FFF777FEFFF7C6
:102C80005DFD0D4B1B68002B0ED00A4B1B68DA6AEA
:102C90007B68DB6A9A4207D20B4B4FF080521A6076
:102CA000BFF34F8FBFF36F8F0837BD4680BD00BFA6
:102CB000480D0020480C0020540D0020640D002019
:102CC000500D00204C0C002004ED00E080B584B0D5
:102CD00000AF78600023FB607B68002B16D0124B9E
:102CE0001B68002B09D04FF0500383F31188BFF30A
:102CF0006F8FBFF34F8FBB60FEE700F05DF8786821
:102D0000002100F0FFFA00F065F8F860FB68002B86
:102D100007D1064B4FF080521A60BFF34F8FBFF3BD
:102D20006F8F1037BD4680BD700D002004ED00E0B0
:102D300080B586B002AF00230093194B0193194868
:102D4000194980220023FFF797FEF860FB68012BEA
:102D500015D14FF0500383F31188BFF36F8FBFF38A
:102D60004F8FBB60114B4FF0FF321A60104B0122A6
:102D70001A60104B00221A60FFF754FC0DE0FB684C
:102D8000B3F1FF3F09D14FF0500383F31188BFF334
:102D90006F8FBFF34F8F7B60FEE71037BD4680BD5E
:102DA0006C0D0020413100084C730008680D0020B4
:102DB000540D00204C0D002080B400AF044B1B6864
:102DC0000133034A1360BD465DF8047B704700BFC2
:102DD000700D002080B584B000AF0023FB6000239D
:102DE000BB60424B1B68002B09D14FF0500383F3AB
:102DF0001188BFF36F8FBFF34F8F3B60FEE7FFF784
:102E00006FFC3A4B1B68013B384A1360374B1B6819
:102E1000002B63D1364B1B68002B5FD030E0354B65
:102E2000DB68DB68FB60FB6818331846FFF7FAFDC8
:102E3000FB6804331846FFF7F5FDFB68DB6A1A46AA
:102E4000012303FA02F22C4B1B6813432A4A136036
:102E5000FB68DA6A13469B0013449B00274A1A4416
:102E6000FB68043310461946FFF780FDFB68DA6AF9
:102E7000234B1B68DB6A9A4202D3224B01221A6061
:102E80001C4B1B68002BCAD1FB68002B01D000F043
:102E9000F7F91D4B1B687B607B68002B10D000F09E
:102EA00037F80346002B02D0164B01221A607B68CC
:102EB000013B7B607B68002BF1D1134B00221A6031
:102EC000104B1B68002B09D00123BB600F4B4FF048
:102ED00080521A60BFF34F8FBFF36F8FFFF72EFC46
:102EE000BB6818461037BD4680BD00BF700D00207E
:102EF000480D0020080D0020500D00204C0C002033
:102F0000480C00205C0D0020580D002004ED00E06E
:102F100080B586B000AF00237B61514B1B68002B4E
:102F200040F08E804F4B1B6801333B614D4A3B693B
:102F300013603B69002B1FD14B4B1B681B68002B98
:102F400009D04FF0500383F31188BFF36F8FBFF3A5
:102F50004F8F3B60FEE7444B1B68FB60434B1B6895
:102F6000414A1360414AFB681360414B1B680133BF
:102F70003F4A136000F084F93E4B1B683A699A425D
:102F80004FD3394B1B681B68002B01D1012300E094
:102F90000023002B04D0374B4FF0FF321A6040E083
:102FA000314B1B68DB68DB68BB60BB685B687B60C0
:102FB0003A697B689A4203D22E4A7B68136030E0FC
:102FC000BB6804331846FFF72DFDBB689B6A002BD6
:102FD00004D0BB6818331846FFF724FDBB68DB6AD2
:102FE0001A46012303FA02F2234B1B681343224AB9
:102FF0001360BB68DA6A13469B0013449B001F4AA8
:103000001A44BB68043310461946FFF7AFFCBB688F
:10301000DA6A1B4B1B68DB6A9A4201D301237B618E
:10302000AFE7174B1B68DA6A144913469B00134439
:103030009B000B441B68012B01D901237B6104E039
:10304000104B1B6801330F4A13600F4B1B68002B9A
:1030500001D001237B617B6918461837BD4680BDCE
:10306000700D00204C0D0020000D0020040D0020EC
:10307000600D0020680D0020500D00204C0C002039
:10308000480C0020580D00205C0D002080B487B053
:1030900000AF264B1B68002B03D0254B01221A6082
:1030A0003EE0234B00221A60224B1B68FB60FB684A
:1030B000B3FA83F3FB72FB7AC3F11F037B611E49F2
:1030C0007A6913469B0013449B000B441B68002B3A
:1030D00009D14FF0500383F31188BFF36F8FBFF313
:1030E0004F8F7B60FEE77A6913469B0013449B0079
:1030F000114A13443B613B695B685A683B695A60FB
:103100003B695A683B6908339A4204D13B695B6862
:103110005A683B695A603B695B68DB68074A136021
:103120001C37BD465DF8047B704700BF700D002062
:103130005C0D0020500D00204C0C0020480C00209D
:1031400080B582B000AF786000F050F8064B1B6885
:10315000012B07D9054B4FF080521A60BFF34F8FF8
:10316000BFF36F8FF0E700BF4C0C002004ED00E0D0
:1031700080B582B000AF00237B600CE07A68134614
:103180009B0013449B00114A13441846FFF7C2FBEF
:103190007B6801337B607B68062BEFD90C48FFF717
:1031A000B9FB0C48FFF7B6FB0B48FFF7B3FB0B4826
:1031B000FFF7B0FB0A48FFF7ADFB0A4B044A1A6061
:1031C000094B044A1A600837BD4680BD4C0C0020EC
:1031D000D80C0020EC0C0020080D00201C0D002055
:1031E000340D0020000D0020040D002080B582B0B9
:1031F00000AF28E0FFF7E0FD164B1B68002B0CBF6B
:1032000001230023DBB27B60FFF7E4FD7B68002B2A
:1032100019D1FFF765FA0F4BDB68DB683B603B6851
:1032200004331846FFF7FEFB0B4B1B68013B0A4AB1
:1032300013600A4B1B68013B084A1360FFF77EFAD4
:10324000386800F00DF8054B1B68002BD2D1083709
:10325000BD4680BD1C0D0020480D0020300D002013
:1032600080B582B000AF78607B681B6B1846FFF7B3
:1032700059F87868FFF756F80837BD4680BD00BF9B
:1032800080B483B000AF0E4B1B681B68002B01D1CC
:10329000012300E00023002B04D00A4B4FF0FF3243
:1032A0001A6008E0064B1B68DB68DB687B607B68A4
:1032B0005B68044A13600C37BD465DF8047B7047B9
:1032C000000D0020680D002080B483B000AF0B4BD0
:1032D0001B68002B02D101237B6008E0084B1B68B0
:1032E000002B02D102237B6001E000237B607B681E
:1032F00018460C37BD465DF8047B7047540D00201E
:10330000700D002080B584B000AF78603960284B24
:103310001B68FB60274B1B6804331846FFF782FBD2
:103320000346002B0BD1234B1B68DB6A1A46012393
:103330009340DA43204B1B6813401F4A13607B689D
:10334000B3F1FF3F0AD13B68002B07D0194B1B6834
:1033500004331A481946FFF709FB26E0FA687B6830
:103360001344BB60134B1B68BA685A60BA68FB68A9
:103370009A4209D2124B1A680E4B1B68043310464E
:103380001946FFF717FB10E00E4B1A68094B1B6834
:10339000043310461946FFF70DFB0B4B1B68BA6848
:1033A0009A4202D2084ABB6813601037BD4680BDFE
:1033B0004C0D0020480C0020500D0020340D002042
:1033C000040D0020000D0020680D002080B500AF26
:1033D000084A084B1B6843F010031360032000F0F9
:1033E000D3FC0020FEF7F8FDFEF79EFB00231846F5
:1033F00080BD00BF0020024080B400AF054B1B78A9
:103400001A46054B1B681344034A1360BD465DF81A
:10341000047B7047080000202411002080B400AF16
:10342000034B1B681846BD465DF8047B704700BF20
:103430002411002080B584B000AF7860FFF7EEFF64
:10344000B8607B68FB60FB68B3F1FF3F05D0094BB8
:103450001B781A46FB681344FB6000BFFFF7DEFFD2
:103460000246BB68D21AFB689A42F7D31037BD46B2
:1034700080BD00BF0800002080B586B000AF786036
:103480000023FB7500233B610023BB600023FB602E
:103490007B68002B01D10123BEE07B689B68002B79
:1034A0007B689B6A002B09D17B680022DA627B680B
:1034B000002283F824207868FEF788FB786800F003
:1034C000FBFA0346FB757B689B6A03F01003002B35
:1034D00040F09980FB7D002B40F095807B689B6AD3
:1034E00023F4885323F0020343F002027B689A62BC
:1034F0007B685A687B68DB691A437B68DB685B0022
:103500001343BA681343BB607B689B68B3F5807F45
:1035100003D07B689B68012B02D14FF4807300E0DD
:1035200000233A6913433B617B685B69012B19D126
:103530007B68DB68002B09D17B689B69013B5A03E0
:103540003B69134343F400633B610BE07B689B6A78
:1035500043F020027B689A627B68DB6A43F00102D9
:103560007B68DA627B681B687A681268526822F4AA
:1035700069413A690A435A607B681A687B681B682C
:103580009968274B0B40B9680B4393607B689B6835
:10359000B3F5807F03D07B689B68012B04D17B68E7
:1035A0001B69013B1B05FB607B681B687A6812681E
:1035B000D26A22F47001FA680A43DA627B681B68F7
:1035C0009A68184B1340BA6893420BD17B6800226B
:1035D000DA627B689B6A23F0030343F001027B6895
:1035E0009A6218E07B689B6A23F0120343F0100292
:1035F0007B689A627B68DB6A43F001027B68DA626F
:103600000123FB7507E07B689B6A43F010027B682F
:103610009A620123FB75FB7D18461837BD4680BDB5
:10362000FDF7E1FFFE0E1FFF80B586B000AFF8602A
:10363000B9607A600023FB75FB681B68654A93429A
:1036400004D0FB681B68644A934206D1614B5B68F7
:1036500003F47023002B40F0B680FB6893F824300D
:10366000012B01D10223B1E0FB68012283F8242061
:10367000F86800F0CFF90346FB75FB7D002B40F0A6
:103680009D80FB689B6A23F4706323F0010343F47D
:103690008072FB689A62FB681B684F4A934205D1AF
:1036A0004C4B5B6803F47023002B16D1FB689B6ABC
:1036B00023F48012FB689A62FB681B685B6803F462
:1036C0008063002B08D0FB689B6A23F4405343F4CB
:1036D0008052FB689A621EE01DE0FB689B6A43F41F
:1036E0008012FB689A62FB681B683A4A934204D0D6
:1036F000FB681B68384A93420DD1364B5B6803F474
:103700008063002B07D0FB689B6A23F4405343F48B
:103710008052FB689A62FB689B6A03F48053002B1B
:1037200006D0FB68DB6A23F00602FB68DA6202E07F
:10373000FB680022DA62FB68002283F82420FB6821
:103740001B6A264A9A62FB681B6A254ADA62FB6892
:103750001B6A244A1A63FB681B686FF002021A6036
:10376000FB681B68FA681268926842F480729A607B
:10377000FB681A6AFB681B684C331946BB68104625
:103780001A467B6800F0C4FBFB681B689B6803F467
:103790006023B3F5602F08D1FB681B68FA681268D4
:1037A000926842F4A0029A600FE0FB681B68FA6816
:1037B0001268926842F480129A6006E0FB68002268
:1037C00083F8242001E00123FB75FB7D18461837A0
:1037D000BD4680BD00240140002801402D3B00086B
:1037E000A93B0008C53B000880B483B000AF7860F7
:1037F0000C37BD465DF8047B704700BF80B483B0D2
:1038000000AF78600C37BD465DF8047B704700BFA1
:1038100080B483B000AF78600C37BD465DF8047BA0
:10382000704700BF90B484B000AF78603960002367
:10383000FB730023BB607B6893F82430012B01D11C
:103840000223DCE07B68012283F824203B685B686C
:10385000062B1CD87B6819687B681B68586B3B6813
:103860005A6813469B001344053B1A461F23934096
:10387000DB4318403B681C683B685A6813469B0052
:103880001344053B04FA03F303434B633CE03B68FA
:103890005B680C2B1CD87B6819687B681B68186BED
:1038A0003B685A6813469B001344233B1A461F2368
:1038B0009340DB4318403B681C683B685A681346DA
:1038C0009B001344233B04FA03F303430B631BE005
:1038D0007B6819687B681B68D86A3B685A6813461E
:1038E0009B001344413B1A461F239340DB4318407F
:1038F0003B681C683B685A6813469B001344413B75
:1039000004FA03F30343CB623B681B68092B1CD901
:103910007B6819687B681B68D8683B681A6813461F
:103920005B0013441E3B1A4607239340DB431840B9
:103930003B689C683B681A6813465B0013441E3B57
:1039400004FA03F30343CB6019E07B6819687B68D2
:103950001B6818693B681A6813465B0013441A46D3
:1039600007239340DB4318403B689C683B681A6818
:1039700013465B00134404FA03F303430B613B68F3
:103980001B68102B03D03B681B68112B32D17B685E
:103990001B681D4A934225D17B681B689B6803F412
:1039A0000003002B26D17B681B687A681268926836
:1039B00042F400029A603B681B68102B1AD1134B2B
:1039C0001B68134AA2FB03239A0C13469B00134463
:1039D0005B00BB6002E0BB68013BBB60BB68002BC7
:1039E000F9D107E07B689B6A43F020027B689A620A
:1039F0000123FB737B68002283F82420FB7B18469D
:103A00001037BD4690BC70470024014000000020E4
:103A100083DE1B4380B584B000AF78600023FB6079
:103A20000023BB607B681B689B6803F00103002BCD
:103A300039D17B681B687A681268926842F001028B
:103A40009A601B4B1B681B4AA2FB03239B0CBB60A9
:103A500002E0BB68013BBB60BB68002BF9D1FFF7FC
:103A6000DDFCF86018E0FFF7D9FC0246FB68D31ACA
:103A7000022B11D97B689B6A43F010027B689A6223
:103A80007B68DB6A43F001027B68DA627B680022B4
:103A900083F82420012307E07B681B689B6803F000
:103AA0000103002BDFD0002318461037BD4680BD30
:103AB0000000002083DE1B4380B584B000AF786037
:103AC0000023FB607B681B689B6803F00103002BED
:103AD00027D07B681B687A681268926822F001021E
:103AE0009A60FFF79BFCF86014E0FFF797FC024632
:103AF000FB68D31A022B0DD97B689B6A43F0100236
:103B00007B689A627B68DB6A43F001027B68DA6259
:103B1000012307E07B681B689B6803F00103002B0F
:103B2000E3D1002318461037BD4680BD80B584B070
:103B300000AF78607B685B6AFB60FB689B6A03F0A0
:103B40005003002B27D1FB689B6A43F40072FB688B
:103B50009A62FB681B689B6803F46023B3F5602FCF
:103B600015D1FB68DB68002B11D1FB689B6A23F43D
:103B70008072FB689A62FB689B6A03F48053002B97
:103B800005D1FB689B6A43F00102FB689A62F86802
:103B9000FFF72AFE04E0FB681B6A1B6B78689847F6
:103BA0001037BD4680BD00BF80B584B000AF7860DF
:103BB0007B685B6AFB60F868FFF720FE1037BD4644
:103BC00080BD00BF80B584B000AF78607B685B6A61
:103BD000FB60FB689B6A43F04002FB689A62FB68EB
:103BE000DB6A43F00402FB68DA62F868FFF710FE54
:103BF0001037BD4680BD00BF80B485B000AF78608F
:103C00007B6803F00703FB600C4BDB68BB60BA68A2
:103C10004FF6FF031340BB60FB681A02BB681343F7
:103C200043F0BF6343F40033BB60044ABB68D36016
:103C30001437BD465DF8047B704700BF00ED00E01F
:103C400080B400AF044BDB6803F4E0631B0A184642
:103C5000BD465DF8047B704700ED00E080B483B0A2
:103C600000AF0346FB71084997F907305B09FA7901
:103C700002F01F02012000FA02F241F823200C3763
:103C8000BD465DF8047B704700E100E080B483B07E
:103C900000AF03463960FB7197F90730002B0BDA50
:103CA0000D49FB7903F00F03043B3A68D2B21201CD
:103CB000D2B20B441A7609E0084997F907303A68FE
:103CC000D2B21201D2B20B4483F800230C37BD46A6
:103CD0005DF8047B704700BF00ED00E000E100E00C
:103CE00080B489B000AFF860B9607A60FB6803F017
:103CF0000703FB61FB69C3F10703042B28BF0423FF
:103D0000BB61FB690433062B02D9FB69033B00E06E
:103D100000237B61BB69012202FA03F35A1EBB68D0
:103D20001A407B699A407B69012101FA03F3591E0D
:103D30007B680B40134318462437BD465DF8047B6F
:103D4000704700BF80B582B000AF78607B68013BF0
:103D5000B3F1807F01D301230FE00A4A7B68013B66
:103D600053604FF0FF300F21FFF790FF054B00220B
:103D70009A60044B07221A60002318460837BD4694
:103D800080BD00BF10E000E080B582B000AF786079
:103D90007868FFF731FF0837BD4680BD80B586B033
:103DA00000AF0346B9607A60FB7300237B61FFF7C5
:103DB00047FF78617869B9687A68FFF791FF024632
:103DC00097F90F3018461146FFF760FF1837BD46C8
:103DD00080BD00BF80B582B000AF0346FB7197F98C
:103DE00007301846FFF73AFF0837BD4680BD00BFD1
:103DF00080B582B000AF78607868FFF7A3FF034614
:103E000018460837BD4680BD80B483B000AF7860E7
:103E10007B68042B06D1094A084B1B6843F0040356
:103E2000136005E0054A054B1B6823F0040313608B
:103E30000C37BD465DF8047B704700BF10E000E022
:103E400080B485B000AF78600023FB607B68002BF6
:103E500001D101234FE07B681B681A46294B1344AC
:103E6000294AA2FB03231B099A007B681A647B681A
:103E7000264ADA637B68022283F821207B681B686C
:103E80001B68FB60FB6823F47F5323F03003FB6067
:103E90007B685A687B689B681A437B68DB681A43B7
:103EA0007B681B691A437B685B691A437B689B6963
:103EB0001A437B68DB691343FA681343FB607B6832
:103EC0001B68FA681A607B6800229A627B6800228D
:103ED000DA627B6800221A637B6800225A637B687F
:103EE00000229A637B68012283F821207B680022EC
:103EF00083F82020002318461437BD465DF8047B64
:103F0000704700BFF8FFFDBFCDCCCCCC0000024015
:103F100080B586B000AFF860B9607A603B6000237E
:103F2000FB75FB6893F82030012B01D102234AE096
:103F3000FB68012283F82020FB6893F82130012BD5
:103F40003AD1FB68022283F82120FB6800229A63A1
:103F5000FB681B68FA681268126822F001021A6096
:103F6000F868B9687A683B6800F04AF9FB68DB6A70
:103F7000002B08D0FB681B68FA681268126842F0D0
:103F80000E021A600FE0FB681B68FA68126812687C
:103F900022F004021A60FB681B68FA681268126853
:103FA00042F00A021A60FB681B68FA68126812681D
:103FB00042F001021A6005E0FB68002283F820202D
:103FC0000223FB75FB7D18461837BD4680BD00BF38
:103FD00080B584B000AF78607B68DB6B1B68FB60EA
:103FE0007B681B681B68BB607B681B6C1A460423DC
:103FF00003FA02F2FB681340002B55D0BB6803F0B4
:104000000403002B50D07B681B681B6803F020035F
:10401000002B07D17B681B687A681268126822F04F
:1040200004021A606F4A7B681B6819466E4B9942FE
:104030002ED07B681B6819466C4B994226D07B6852
:104040001B6819466A4B99421DD07B681B6819464C
:10405000684B994214D07B681B681946664B99429D
:104060000BD07B681B681946644B994202D14FF410
:1040700080030EE04FF080630BE04FF4802308E0F4
:104080004FF4804305E04FF4806302E0402300E0FA
:10409000042353607B68DB6A002B04D07B68DB6AF7
:1040A000786898479AE099E07B681B6C1A4602236F
:1040B00003FA02F2FB681340002B5DD0BB6803F0EB
:1040C0000203002B58D07B681B681B6803F0200399
:1040D000002B0BD17B681B687A681268126822F08B
:1040E0000A021A607B68012283F821203D4A7B681E
:1040F0001B6819463C4B99422ED07B681B681946B9
:104100003A4B994226D07B681B681946384B994236
:104110001DD07B681B681946364B994214D07B68CA
:104120001B681946344B99420BD07B681B681946B3
:10413000324B994202D14FF400130EE04FF000735E
:104140000BE04FF4003308E04FF4005305E04FF468
:10415000007302E0202300E0022353607B6800220A
:1041600083F820207B689B6A002B04D07B689B6AC5
:104170007868984732E031E07B681B6C1A46082368
:1041800003FA02F2FB681340002B27D0BB6803F050
:104190000803002B22D07B681B687A6812681268BB
:1041A00022F00E021A607B68DB6B7A68126C114693
:1041B00001228A405A607B6801229A637B6801224F
:1041C00083F821207B68002283F820207B681B6B0A
:1041D000002B03D07B681B6B7868984700BF1037B3
:1041E000BD4680BD00000240080002401C000240A5
:1041F0003000024044000240580002406C0002407F
:1042000080B485B000AFF860B9607A603B60FB684D
:10421000DB6BFA68126C114601228A405A60FB6817
:104220001B683A685A60FB685B68102B08D1FB6812
:104230001B687A689A60FB681B68BA68DA6007E0F6
:10424000FB681B68BA689A60FB681B687A68DA606A
:104250001437BD465DF8047B704700BF80B48BB057
:1042600000AF786039600023FB610023BB6100234D
:104270007B6100233B6200233B6100237B6228E1DA
:104280007B6A012202FA03F3FB613B681A68FB694F
:104290001340BB61BA69FB699A4240F017813B68E1
:1042A0005B68122B34D0122B0DD8022B2BD0022B93
:1042B00004D8002B31D0012B1CD049E0032B44D073
:1042C000112B1BD044E0874A934226D0854A934263
:1042D00006D8854A934220D0844A93421DD037E0C5
:1042E000834A934219D0834A934216D0824A93421A
:1042F00013D02DE03B68DB683B6229E03B68DB685C
:1043000004333B6224E03B68DB6808333B621FE018
:104310003B68DB680C333B621AE03B689B68002B10
:1043200002D104233B620FE03B689B68012B05D15F
:1043300008233B627B68FA691A6105E008233B6247
:104340007B68FA695A6103E002E000233B6200BF28
:10435000BB69FF2B01D87B6801E07B680433FB60FD
:10436000BB69FF2B02D87B6A9B0002E07B6A083B9B
:104370009B003B61FB681A683B690F2101FA03F35C
:10438000DB431A403B69396A01FA03F31A43FB68BD
:104390001A603B685B6803F08053002B00F0968046
:1043A000564A564B9B6943F001039361534B9B69FB
:1043B00003F00103BB60BB68514A7B6A9B08023370
:1043C00052F823307B617B6A03F003039B001A469B
:1043D0000F239340DB437A6913407B617B68494A32
:1043E000934213D07B68484A93420DD07B68474A7A
:1043F000934207D07B68464A934201D1032306E0EB
:10440000042304E0022302E0012300E000237A6A8F
:1044100002F00302920093407A6913437B613849AA
:104420007B6A9B0802337A6941F823203B685B680A
:1044300003F48033002B06D03649364B1A68BB692B
:1044400013430B6006E03349324B1A68BB69DB4308
:1044500013400B603B685B6803F40033002B06D00D
:104460002C492C4B5A68BB6913434B6006E0294921
:10447000284B5A68BB69DB4313404B603B685B6861
:1044800003F48013002B06D02249224B9A68BB69A3
:1044900013438B6006E01F491E4B9A68BB69DB43E0
:1044A00013408B603B685B6803F40013002B06D05D
:1044B0001849184BDA68BB691343CB6006E015490D
:1044C000144BDA68BB69DB431340CB607B6A013372
:1044D0007B627B6A0F2B7FF6D3AE2C37BD465DF82F
:1044E000047B704700002110000011100000121022
:1044F00000003110000032100000221000100240B5
:104500000000014000080140000C01400010014083
:10451000001401400004014080B483B000AF786013
:104520000B467B8013467B707B78002B03D07A8808
:104530007B681A6103E07B881A047B681A610C3778
:10454000BD465DF8047B704780B483B000AF7860EF
:104550000B467B807B68DA687B885A407B68DA6030
:104560000C37BD465DF8047B704700BF80B584B052
:1045700000AF78600023FB600023BB607B68002BEA
:1045800001D10123E7E07B6893F83D30DBB2002BDB
:1045900006D17B68002283F83C207868FDF76EFB2B
:1045A0007B68242283F83D207B681B687A68126848
:1045B000126822F001021A6001F00EFCB8607B68FC
:1045C0005B68674A934207D8BB68664A934294BFC8
:1045D00001230023DBB206E0BB68634A934294BF29
:1045E00001230023DBB2002B01D00123B3E0BB6821
:1045F0005E4AA2FB03239B0CFB607B681B68FA6886
:104600005A607B681A687B685B6855498B4202D8A0
:10461000FB68013309E0FB684FF4967101FB03F37B
:104620005349A1FB03139B09013313627B6819688B
:104630007B685B684A4A93420DD8BB685A1E7B6808
:104640005B685B00B2FBF3F30133C3F30B03042B92
:1046500038BF04234FE07B689B68002B11D1BB68F7
:10466000581E7B685A6813465B001344B0FBF3F393
:104670000133C3F30B03002B0CBF01230023DBB278
:1046800012E0BB68581E7B685A6813469B001344AF
:104690009A001344B0FBF3F30133C3F30B03002B75
:1046A0000CBF01230023DBB2002B01D0012322E049
:1046B0007B689B68002B0ED1BB68581E7B685A68CC
:1046C00013465B001344B0FBF3F30133C3F30B0356
:1046D00043F400430FE0BB68581E7B685A681346DA
:1046E0009B0013449A001344B0FBF3F30133C3F36C
:1046F0000B0343F44043CB617B681B687A68D16944
:104700007A68126A0A431A607B681B687A681169C2
:104710007A68D2680A439A607B681B687A68516934
:104720007A6892690A43DA607B681B687A68126863
:10473000126842F001021A607B6800221A647B68EA
:10474000202283F83D207B6800221A637B680022C8
:1047500083F83E20002318461037BD4680BD00BFB9
:10476000A08601007F841E00FF083D0083DE1B43FE
:10477000D34D621080B588B002AFF8607A601A46F7
:104780000B467B8113463B8100237B61FEF746FE8F
:104790007861FB6893F83D30DBB2202B40F0EF806E
:1047A0007B690093F86878490122192300F09EFD87
:1047B0000346002B01D00223E2E0FB6893F83C3073
:1047C000012B01D10223DBE0FB68012283F83C20AE
:1047D000FB681B681B6803F00103002B07D1FB6813
:1047E0001B68FA681268126842F001021A60FB68DE
:1047F0001B68FA681268126822F400621A60FB688B
:10480000212283F83D20FB68102283F83E20FB68BC
:1048100000221A64FB687A685A62FB683A895A85F2
:10482000FB685A4ADA62FB685B8D9AB2FB681A85AC
:104830007B89F86819463A6A7B6900F011FC0346E7
:10484000002B0FD0FB681B6C042B05D1FB680022EA
:1048500083F83C20012393E0FB68002283F83C208E
:1048600003238DE000233B61FB681B685B693B61B0
:10487000FB681B689B693B613B6966E0F868396AC5
:104880007A6900F0F3FD0346002B0FD0FB681B6C28
:10489000042B09D1FB681B68FA681268126842F49D
:1048A00000721A6001236BE0032369E0FB681A6859
:1048B000FB685B6A581CF96848621B781361FB68E7
:1048C0005B8D9BB2013B9AB2FB685A85FB681B8DDE
:1048D000013B9AB2FB681A85FB681B685B6903F0B1
:1048E0000403002B19D0FB681B8D002B15D0FB682F
:1048F0001A68FB685B6A581CF96848621B78136188
:10490000FB685B8D9BB2013B9AB2FB685A85FB68E2
:104910001B8D013B9AB2FB681A85F868396A7A697F
:1049200000F0E2FD0346002B0FD0FB681B6C042B4C
:1049300009D1FB681B68FA681268126842F40072B9
:104940001A6001231CE003231AE0FB681B8D002B77
:1049500094D1FB681B68FA681268126842F400720E
:104960001A60FB68202283F83D20FB68002283F850
:104970003E20FB68002283F83C20002300E0022355
:1049800018461837BD4680BD020010000000FFFF2A
:1049900080B58CB002AFF8607A601A460B467B8116
:1049A00013463B8100237B62FEF738FD7862FB688B
:1049B00093F83D30DBB2202B40F01D827B6A0093E0
:1049C000F86888490122192300F090FC0346002B67
:1049D00001D0022310E2FB6893F83C30012B01D197
:1049E000022309E2FB68012283F83C20FB681B6874
:1049F0001B6803F00103002B07D1FB681B68FA68F2
:104A00001268126842F001021A60FB681B68FA68BB
:104A10001268126822F400621A60FB68222283F88E
:104A20003D20FB68102283F83E20FB6800221A64B8
:104A3000FB687A685A62FB683A895A85FB686A4A59
:104A4000DA62FB685B8D9AB2FB681A857B89F8682D
:104A500019463A6B7B6A00F083FB0346002B0FD0AC
:104A6000FB681B6C042B05D1FB68002283F83C20FB
:104A70000123C1E1FB68002283F83C200323BBE152
:104A8000FB681B8D002B13D100233B62FB681B6866
:104A90005B693B62FB681B689B693B623B6AFB6826
:104AA0001B68FA681268126842F400721A6056E0D5
:104AB000FB681B8D012B1DD1FB681B68FA6812680F
:104AC000126822F480621A6072B60023FB61FB68F0
:104AD0001B685B69FB61FB681B689B69FB61FB6989
:104AE000FB681B68FA681268126842F400721A6068
:104AF00062B634E0FB681B8D022B1DD1FB681B687E
:104B0000FA681268126842F400621A6072B60023F2
:104B1000BB61FB681B685B69BB61FB681B689B69C9
:104B2000BB61BB69FB681B68FA681268126822F4F3
:104B300080621A6062B612E0FB681B68FA6812684D
:104B4000126842F480621A6000237B61FB681B6874
:104B50005B697B61FB681B689B697B617B6937E1F3
:104B6000FB681B8D032B00F2EE80FB681B8D012B75
:104B700027D1F868396B7A6A00F0F4FC0346002B01
:104B800007D0FB681B6C202B01D1032334E10123E8
:104B900032E1FB685B6A591CFA685162FA68126874
:104BA0001269D2B21A70FB681B8D013B9AB2FB6886
:104BB0001A85FB685B8D9BB2013B9AB2FB685A85F4
:104BC00006E1FB681B8D022B4BD17B6A0093F868D2
:104BD000064900223B6B00F089FB0346002B07D0FF
:104BE000032309E1020010000000FFFF04000100A0
:104BF00072B6FB681B68FA681268126842F40072A9
:104C00001A60FB685B6A591CFA685162FA6812689C
:104C10001269D2B21A70FB681B8D013B9AB2FB6815
:104C20001A85FB685B8D9BB2013B9AB2FB685A8583
:104C300062B6FB685B6A591CFA685162FA681268CE
:104C40001269D2B21A70FB681B8D013B9AB2FB68E5
:104C50001A85FB685B8D9BB2013B9AB2FB685A8553
:104C6000B6E07B6A0093F868654900223B6B00F070
:104C70003DFB0346002B01D00323BDE0FB681B680E
:104C8000FA681268126822F480621A6072B6FB68D1
:104C90005B6A591CFA685162FA6812681269D2B2EA
:104CA0001A70FB681B8D013B9AB2FB681A85FB6882
:104CB0005B8D9BB2013B9AB2FB685A857B6A00937D
:104CC000F8684F4900223B6B00F010FB0346002BB5
:104CD00001D0032390E0FB681B68FA681268126831
:104CE00042F400721A60FB685B6A591CFA685162F0
:104CF000FA6812681269D2B21A70FB681B8D013B08
:104D00009AB2FB681A85FB685B8D9BB2013B9AB235
:104D1000FB685A8562B6FB685B6A591CFA68516287
:104D2000FA6812681269D2B21A70FB681B8D013BD7
:104D30009AB2FB681A85FB685B8D9BB2013B9AB205
:104D4000FB685A8544E0F868396B7A6A00F00AFC1F
:104D50000346002B07D0FB681B6C202B01D10323DB
:104D60004AE0012348E0FB685B6A591CFA6851621B
:104D7000FA6812681269D2B21A70FB681B8D013B87
:104D80009AB2FB681A85FB685B8D9BB2013B9AB2B5
:104D9000FB685A85FB681B685B6903F00403002B02
:104DA00016D0FB685B6A591CFA685162FA6812688F
:104DB0001269D2B21A70FB681B8D013B9AB2FB6874
:104DC0001A85FB685B8D9BB2013B9AB2FB685A85E2
:104DD000FB681B8D002B7FF4C3AEFB68202283F899
:104DE0003D20FB68002283F83E20FB68002283F808
:104DF0003C20002300E0022318462837BD4680BD32
:104E00000400010080B58CB002AFF8607A603B60AE
:104E10000B467B8100237B6200233B620023FB6106
:104E20000023BB6101237B61FEF7F8FA7862FB681F
:104E300093F83D30DBB2202B40F008817B6A009371
:104E4000F86885490122192300F050FA0346002B27
:104E500001D00223FBE0FB6893F83C30012B01D129
:104E60000223F4E0FB68012283F83C20FB681B6806
:104E70001B6803F00103002B07D1FB681B68FA686D
:104E80001268126842F001021A60FB681B68FA6837
:104E90001268126822F400621A60FB68242283F808
:104EA0003D20FB6800221A64FB686C4ADA62FB68EA
:104EB0001B68FA681268126842F480721A607B6A92
:104EC0000093F8684FF0011100223B6800F00EFAE1
:104ED0000346002B01D00323B9E0FB681B687A89E5
:104EE000D2B202F0FE021A61FEF798FA7862FB680D
:104EF0001B685B6903F00203002B14BF012300232E
:104F0000DBB23B62FB681B685B6903F48063002BC8
:104F100014BF01230023DBB2FB61FB6893F83D3033
:104F2000DBB2BB6129E03B68002B07D0FEF776FAC5
:104F300002467B6AD21A3B689A4203D9FB68A022D8
:104F400083F83D20FB681B685B6903F00203002BBC
:104F500014BF01230023DBB23B62FB681B685B6963
:104F600003F48063002B14BF01230023DBB2FB6139
:104F7000FB6893F83D30DBB2BB613B6A002B05D187
:104F8000FB69002B02D1BB69A02BCCD1FB6820228E
:104F900083F83D20FB681B685B6903F00203002B6C
:104FA00029D0FB681B68FA681268126842F4007224
:104FB0001A6000233B61FB681B685B693B61FB680F
:104FC0001B689B693B613B697B6A0093F8682249D7
:104FD0000122192300F08AF90346002B01D0032394
:104FE00035E0FB68202283F83D20FB68002283F82F
:104FF0003C2000232BE0FB681B68FA6812681268EB
:1050000042F400721A60FB681B686FF480625A6198
:105010007B6A0093F86810490122192300F066F9B1
:105020000346002B01D0032311E07B695A1C7A61EF
:105030007A689342FFF43BAFFB68202283F83D205F
:10504000FB68002283F83C20012300E0022318467D
:105050002837BD4680BD00BF020010000000FFFFE2
:1050600080B588B002AFF8607A603B600B467B8108
:10507000FB68DB6A7B617B69042B06D07B69012BB3
:1050800003D07B6913F5803F08D1FB681B68FA6881
:105090001268126842F480721A600BE0FB681B6BA6
:1050A000122B07D1FB681B68FA681268126842F479
:1050B00080721A603B680093F8684FF0011100227B
:1050C0007B6800F013F90346002B01D003233FE077
:1050D000FB681B69B3F5804F07D1FB681B687A89B1
:1050E000D2B202F0FE021A6120E0FB681B687A89E6
:1050F00002F44072D211D2B262F00F02D2B21A613F
:10510000F86815497A683B6800F042F90346002BBD
:1051100007D0FB681B6C042B01D1012318E003238B
:1051200016E0FB681B687A89D2B21A61F8680B49ED
:105130007A683B6800F02CF90346002B07D0FB6827
:105140001B6C042B01D1012302E0032300E00023A8
:1051500018461837BD4680BD080001000200010056
:1051600080B588B002AFF8607A603B600B467B8107
:10517000FB68DB6A7B61FB681B68FA68126812686F
:1051800042F480621A607B69042B06D07B69012B94
:1051900003D07B6913F5803F08D1FB681B68FA6870
:1051A0001268126842F480721A600BE0FB681B6B95
:1051B000112B07D1FB681B68FA681268126842F469
:1051C00080721A603B680093F8684FF0011100226A
:1051D0007B6800F08BF80346002B01D003237DE0B1
:1051E000FB681B69B3F5804F08D1FB681B687A899F
:1051F000D2B242F00102D2B21A615DE0FB681B68D4
:105200007A8902F44072D211D2B262F00F02D2B2A5
:105210001A61F86833497A683B6800F0B9F80346C8
:10522000002B07D0FB681B6C042B01D1012355E038
:10523000032353E0FB681B687A89D2B21A61F868CD
:1052400029497A683B6800F0A3F80346002B07D091
:10525000FB681B6C042B01D101233FE003233DE0DD
:1052600000233B61FB681B685B693B61FB681B6853
:105270009B693B613B69FB681B68FA6812681268AE
:1052800042F480721A603B680093F8684FF0011195
:1052900000227B6800F02AF80346002B01D003238C
:1052A0001CE0FB681B687A8902F44072D211D2B20A
:1052B00062F00E02D2B21A61F8680B497A683B6854
:1052C00000F066F80346002B07D0FB681B6C042B2C
:1052D00001D1012302E0032300E000231846183720
:1052E000BD4680BD080001000200010080B584B009
:1052F00000AFF860B9603B601346FB711FE03B688C
:10530000B3F1FF3F1BD03B68002B07D0FEF786F8B8
:105310000246BB69D21A3B689A4210D9FB68002248
:105320001A63FB68202283F83D20FB68002283F883
:105330003E20FB68002283F83C20032323E0BB6867
:105340001B0CDBB2012B0DD1FB681B685B69DA43D8
:10535000BB6813409BB2002B0CBF01230023DBB2C0
:105360001A460CE0FB681B689B69DA43BB68134074
:105370009BB2002B0CBF01230023DBB21A46FB7942
:105380009A42BCD0002318461037BD4680BD00BFEE
:1053900080B584B000AFF860B9607A603B603FE0F0
:1053A000FB681B685B6903F48063002B1CD0FB68FF
:1053B0001B68FA681268126842F400721A60FB688F
:1053C0001B686FF480625A61FB6804221A64FB68F0
:1053D00000221A63FB68202283F83D20FB6800222C
:1053E00083F83C2001233CE07B68B3F1FF3F17D0FA
:1053F0007B68002B07D0FEF711F802463B68D21AF3
:105400007B689A420CD9FB6800221A63FB68202251
:1054100083F83D20FB68002283F83C20032320E032
:10542000BB681B0CDBB2012B0CD1FB681B685B69F2
:10543000DA43BB6813409BB2002B14BF0123002347
:10544000DBB20BE0FB681B689B69DA43BB68134067
:105450009BB2002B14BF01230023DBB2002B9FD192
:10546000002318461037BD4680BD00BF80B584B00C
:1054700000AFF860B9607A6029E0F86800F0BCF825
:105480000346002B01D0012329E0BB68B3F1FF3FA5
:105490001DD0BB68002B07D0FDF7C0FF02467B681C
:1054A000D21ABB689A4212D9FB681B6C43F02002E7
:1054B000FB681A64FB6800221A63FB68202283F8E9
:1054C0003D20FB68002283F83C20032307E0FB68B3
:1054D0001B685B6903F08003002BCED000231846C5
:1054E0001037BD4680BD00BF80B584B000AFF86006
:1054F000B9607A6029E0F86800F07EF80346002B76
:1055000001D0012329E0BB68B3F1FF3F1DD0BB6888
:10551000002B07D0FDF782FF02467B68D21ABB68DA
:105520009A4212D9FB681B6C43F02002FB681A6494
:10553000FB6800221A63FB68202283F83D20FB6889
:10554000002283F83C20032307E0FB681B685B69AB
:1055500003F00403002BCED0002318461037BD46BD
:1055600080BD00BF80B584B000AFF860B9607A60DC
:1055700036E0FB681B685B6903F01003002B14D056
:10558000FB681B686FF010025A61FB6800221A6406
:10559000FB6800221A63FB68202283F83D20FB6829
:1055A000002283F83C20012322E0BB68002B07D0B7
:1055B000FDF734FF02467B68D21ABB689A420FD9C6
:1055C000FB681B6C43F02002FB681A64FB68202216
:1055D00083F83D20FB68002283F83C20032307E08A
:1055E000FB681B685B6903F04003002BC1D00023FC
:1055F00018461037BD4680BD80B483B000AF7860D8
:105600007B681B685B6903F48063002B14D07B68A4
:105610001B686FF480625A617B6804221A647B689D
:1056200000221A637B68202283F83D207B680022D9
:1056300083F83C20012300E0002318460C37BD46C8
:105640005DF8047B704700BF80B586B000AF78601E
:1056500000233B617B681B6803F00103002B00F013
:105660008580914B5B6803F00C03042B0BD08E4BB1
:105670005B6803F00C03082B12D18B4B5B6803F4BF
:105680008033002B0CD0884B1B6803F40033002BB5
:1056900005D07B685B68002B01D101232CE265E01B
:1056A0007B685B68B3F5803F06D17F4A7E4B1B6801
:1056B00043F4803313602EE07B685B68002B0CD1D1
:1056C000794A794B1B6823F480331360764A764B12
:1056D0001B6823F4802313601DE07B685B68B3F5CF
:1056E000A02F0CD1704A704B1B6843F480231360C9
:1056F0006D4A6D4B1B6843F4803313600BE06A4ABC
:10570000694B1B6823F480331360674A664B1B6840
:1057100023F4802313607B685B68002B13D0FDF7B4
:105720007DFE386108E0FDF779FE02463B69D31A39
:10573000642B01D90323DFE15B4B1B6803F40033C7
:10574000002BF0D012E0FDF769FE386108E0FDF7AC
:1057500065FE02463B69D31A642B01D90323CBE1D2
:10576000514B1B6803F40033002BF0D17B681B689E
:1057700003F00203002B63D04B4B5B6803F00C0378
:10578000002B0BD0484B5B6803F00C03082B1CD19B
:10579000454B5B6803F48033002B16D1424B1B68EA
:1057A00003F00203002B05D07B681B69012B01D09D
:1057B0000123A1E13C493C4B1B6823F0F8027B68C4
:1057C0005B69DB0013430B603AE07B681B69002BCD
:1057D00020D0364B01221A60FDF720FE386108E028
:1057E000FDF71CFE02463B69D31A022B01D90323A5
:1057F00082E12D4B1B6803F00203002BF0D02A49F5
:10580000294B1B6823F0F8027B685B69DB001343BC
:105810000B6015E0254B00221A60FDF7FFFD386193
:1058200008E0FDF7FBFD02463B69D31A022B01D9C4
:10583000032361E11C4B1B6803F00203002BF0D132
:105840007B681B6803F00803002B39D07B689B69D9
:10585000002B19D0164B01221A60FDF7DFFD3861CD
:1058600008E0FDF7DBFD02463B69D31A022B01D9A4
:10587000032341E10C4B5B6A03F00203002BF0D0E1
:10588000012000F001FB1BE0094B00221A60FDF72C
:10589000C5FD38610EE0FDF7C1FD02463B69D31A34
:1058A000022B07D9032327E10010024000004242E7
:1058B00080044242924B5B6A03F00203002BEAD160
:1058C0007B681B6803F00403002B00F0A680002314
:1058D000FB758B4BDB6903F08053002B0DD1884A9D
:1058E000874BDB6943F08053D361854BDB6903F061
:1058F0008053FB60FB680123FB75824B1B6803F43C
:105900008073002B18D17F4A7E4B1B6843F4807351
:105910001360FDF783FD386108E0FDF77FFD024667
:105920003B69D31A642B01D90323E5E0754B1B684F
:1059300003F48073002BF0D07B68DB68012B06D169
:105940006F4A6F4B1B6A43F0010313622DE07B68C3
:10595000DB68002B0CD16A4A694B1B6A23F00103F8
:105960001362674A664B1B6A23F0040313621CE050
:105970007B68DB68052B0CD1614A614B1B6A43F0E5
:10598000040313625E4A5E4B1B6A43F00103136219
:105990000BE05B4A5A4B1B6A23F001031362584A1F
:1059A000574B1B6A23F0040313627B68DB68002BF0
:1059B00015D0FDF733FD38610AE0FDF72FFD0246F3
:1059C0003B69D31A41F28832934201D9032393E011
:1059D0004B4B1B6A03F00203002BEED014E0FDF7E3
:1059E0001DFD38610AE0FDF719FD02463B69D31A37
:1059F00041F28832934201D903237DE0404B1B6A78
:105A000003F00203002BEED1FB7D012B05D13C4AB4
:105A10003B4BDB6923F08053D3617B68DB69002B50
:105A200069D0374B5B6803F00C03082B61D07B68AF
:105A3000DB69022B46D1344B00221A60FDF7EEFCE5
:105A4000386108E0FDF7EAFC02463B69D31A022BF5
:105A500001D9032350E02A4B1B6803F00073002B8D
:105A6000F0D17B681B6AB3F5803F08D12449244BF1
:105A70005B6823F400327B689B6813434B602048CB
:105A80001F4B5B6823F474127B68196A7B685B6A3E
:105A90000B43134343601C4B01221A60FDF7BEFC0D
:105AA000386108E0FDF7BAFC02463B69D31A022BC5
:105AB00001D9032320E0124B1B6803F00073002B75
:105AC000F0D018E0104B00221A60FDF7A7FC3861F7
:105AD00008E0FDF7A3FC02463B69D31A022B01D96B
