:020000040800F2
:1000000000500020A1580008E9110008F51100086F
:10001000FD110008051200080D1200080000000084
:100020000000000000000000000000005117000860
:100030001512000800000000011900082112000834
:10004000E9580008E9580008E9580008E95800088C
:10005000E9580008E9580008E9580008E95800087C
:10006000E9580008E9580008E95800082D1200086E
:10007000E95800083D1200084D1200085D12000802
:100080006D1200087D120008E9580008E9580008C0
:10009000E9580008E9580008E9580008E95800083C
:1000A000E95800088D120008E9580008E9580008CE
:1000B000E9580008E9580008E9580008E95800081C
:1000C000E9580008E9580008E9580008E95800080C
:1000D000E9580008E9580008E9580008E9580008FC
:1000E000E9580008E9580008E95800080000000035
:1000F0000000000000000000000000000000000000
:0C01000000000000000000005FF808F1A3
:10011000044B05481B1A062B02D9044B03B11847A0
:10012000704700BF0F0000200C00002000000000FE
:1001300005490648091A891001EBD171491002D00E
:10014000034B03B1184770470C0000200C0000203F
:100150000000000010B5064C237843B9FFF7D8FF24
:10016000044B13B10448AFF300800123237010BD8A
:100170000C000020000000003859000808B5084BAA
:100180001BB108480849AFF300800848036813B959
:10019000BDE80840CCE7064B002BF9D09847F7E7BD
:1001A0000000000038590008100000200C0000205A
:1001B0000000000080F0004002E000BF81F000413C
:1001C00042001FBF5FEA410392EA030F7FEA226CFD
:1001D0007FEA236C6AD04FEA1262D2EB1363C1BF8D
:1001E000D218414048404140B8BF5B42192B88BFFC
:1001F000704710F0004F40F4000020F07F4018BF1F
:10020000404211F0004F41F4000121F07F4118BF3E
:10021000494292EA030F3FD0A2F1010241FA03FCE6
:1002200010EB0C00C3F1200301FA03F100F00043CE
:1002300002D5494260EB4000B0F5000F13D3B0F196
:10024000807F06D340084FEA310102F10102FE2A05
:1002500051D2B1F1004F40EBC25008BF20F0010075
:1002600040EA03007047490040EB000010F4000F23
:10027000A2F10102EDD1B0FA80FCACF1080CB2EBB6
:100280000C0200FA0CF0AABF00EBC2505242184315
:10029000BCBFD0401843704792F0000F81F40001BA
:1002A00006BF80F400000132013BB5E74FEA41038D
:1002B0007FEA226C18BF7FEA236C21D092EA030FF9
:1002C00004D092F0000F08BF0846704790EA010F73
:1002D0001CBF0020704712F07F4F04D1400028BFA0
:1002E00040F00040704712F100723CBF00F5000082
:1002F000704700F0004343F0FE4040F400007047B8
:100300007FEA226216BF08467FEA23630146420263
:1003100006BF5FEA412390EA010F40F48000704776
:100320004FF0000304E000BF10F0004348BF40421C
:100330005FEA000C08BF704743F0964301464FF058
:1003400000001CE050EA010208BF70474FF00003B4
:100350000AE000BF50EA010208BF704711F00043F5
:1003600002D5404261EB41015FEA010C02BF8446C5
:100370000146002043F0B64308BFA3F18053A3F524
:100380000003BCFA8CF2083AA3EBC25310DB01FA6B
:1003900002FC634400FA02FCC2F12002BCF1004FEF
:1003A00020FA02F243EB020008BF20F00100704780
:1003B00002F1200201FA02FCC2F1200250EA4C00D4
:1003C00021FA02F243EB020008BF20EADC7070471A
:1003D0004FF0FF0C1CEAD0521EBF1CEAD15392EA28
:1003E0000C0F93EA0C0F6FD01A4480EA010C400204
:1003F00018BF5FEA41211ED04FF0006343EA50105E
:1004000043EA5111A0FB01310CF00040B1F5000F9F
:100410003EBF490041EAD3715B0040EA010062F14E
:100420007F02FD2A1DD8B3F1004F40EBC25008BF38
:1004300020F00100704790F0000F0CF0004C08BF56
:1004400049024CEA502040EA51207F3AC2BFD2F123
:10045000FF0340EAC250704740F400004FF0000331
:10046000013A5DDC12F1190FDCBF00F0004070476B
:10047000C2F10002410021FA02F1C2F1200200FAA9
:1004800002FC5FEA310040F1000053EA4C0308BF70
:1004900020EADC70704792F0000F00F0004C02BFC1
:1004A000400010F4000F013AF9D040EA0C0093F03C
:1004B000000F01F0004C02BF490011F4000F013B96
:1004C000F9D041EA0C018FE70CEAD15392EA0C0F04
:1004D00018BF93EA0C0F0AD030F0004C18BF31F06F
:1004E000004CD8D180EA010000F00040704790F045
:1004F000000F17BF90F0004F084691F0000F91F0E9
:10050000004F14D092EA0C0F01D142020FD193EAAE
:100510000C0F03D14B0218BF084608D180EA010036
:1005200000F0004040F0FE4040F40000704740F012
:10053000FE4040F4400070474FF0FF0C1CEAD052E0
:100540001EBF1CEAD15392EA0C0F93EA0C0F69D03C
:10055000A2EB030280EA010C49024FEA402037D0A7
:100560004FF0805343EA111143EA10130CF000409E
:100570008B4238BF5B0042F17D024FF4000C8B428E
:1005800024BF5B1A40EA0C00B3EB510F24BFA3EB6E
:10059000510340EA5C00B3EB910F24BFA3EB91033E
:1005A00040EA9C00B3EBD10F24BFA3EBD10340EA98
:1005B000DC001B0118BF5FEA1C1CE0D1FD2A3FF6DE
:1005C00050AF8B4240EBC25008BF20F00100704793
:1005D0000CF0004C4CEA50207F32C2BFD2F1FF0336
:1005E00040EAC250704740F400004FF00003013A67
:1005F00037E792F0000F00F0004C02BF400010F40B
:10060000000F013AF9D040EA0C0093F0000F01F01E
:10061000004C02BF490011F4000F013BF9D041EA40
:100620000C0195E70CEAD15392EA0C0F08D1420273
:100630007FF47DAF93EA0C0F7FF470AF084676E746
:1006400093EA0C0F04D14B023FF44CAF08466EE71F
:1006500030F0004C18BF31F0004CCAD130F00042ED
:100660007FF45CAF31F000437FF43CAF5FE700BF45
:1006700080B586B002AF78606B233B7300237B7339
:1006800000BFD02399B207F10C026423009378686D
:10069000022302F05BFE0346002BF2D11037BD4669
:1006A00080BD00BF80B586B002AF7860396000BF02
:1006B000D0239AB26423009378681146184A012324
:1006C00002F044FE0346002BF2D100BFD02399B2C2
:1006D00007F10C02642300937868022302F044FFC0
:1006E0000346002BF2D13B7B1B029AB27B7B9BB271
:1006F00013439BB21BB21846FFF716FE034618467B
:100700000849FFF719FF034618460749FFF758FD48
:1007100003461A463B681A601037BD4680BD00BFCD
:10072000DE5900080000AA43B81E1242B0B58AB0D4
:1007300000AF1D4B0F221A701B4B00225A7301F0A1
:100740001BFE00F03BF800F017FA00F0D1F900F0C2
:10075000CDF800F06DF900F09DF900F0F9F800F027
:1007600085F8124B07F114041D460FCD0FC42B68FA
:10077000236007F114031846002101F03DF90246F9
:100780000B4B1A600B4B3C461D460FCD0FC42B681C
:1007900023603B461846002101F02EF90246064B25
:1007A0001A6001F021F9FEE7F80F00205C590008FB
:1007B000B00F002084590008700E002080B594B05E
:1007C00000AF0223BB620123BB631023FB63002342
:1007D0007B6407F12803184603F0F4FB0346002B63
:1007E00003D02048D92100F019FA0F237B610023A0
:1007F000BB610023FB6100233B6200237B6207F1A6
:1008000014031846002103F03FFE0346002B03D0DB
:100810001448E72100F002FA02237B600023FB600A
:100820003B1D184604F00CF80346002B03D00D487E
:10083000EE2100F0F3F903F081FF02460A4BA3FB1F
:1008400002239B09184602F0D1F8042002F0DAF8DE
:100850004FF0FF300F21002202F09EF85037BD46C6
:1008600080BD00BF98590008D34D621080B584B098
:1008700000AF1B4B1B4A1A60194B00229A60184BA1
:100880000022DA60164B00225A61154B4FF46022A9
:10089000DA61134B00225A60114B01221A61104891
:1008A00001F09EFD0346002B04D00F484FF48771E2
:1008B00000F0B4F903237B600123BB600023FB60DD
:1008C0003B1D0748194601F063FE0346002B04D088
:1008D00005484FF48C7100F0A1F91037BD4680BD7A
:1008E000FC0E0020002401409859000880B500AF9C
:1008F000134B144A1A60124B134A5A60104B0022D1
:100900009A600F4B0022DA600D4B4FF480421A615F
:100910000B4B00225A610A4B00229A61084B0022BD
:10092000DA61074B00221A62054802F00BFC03460D
:10093000002B04D005484FF4967100F06FF980BD8C
:10094000000E002000540040A086010098590008C5
:1009500080B58AB000AF344B4FF080421A60324B02
:1009600000225A60304B00229A602F4B4EF6CF0285
:10097000DA602D4B00221A612B4B00229A612A4823
:1009800004F066F80346002B04D028484FF4A07109
:1009900000F044F900233B6200237B6207F120034F
:1009A0002148194604F07CFC0346002B04D01F4864
:1009B00040F2471100F032F960237B600023BB60F6
:1009C0000023FB6000237B613B1D17481946002272
:1009D00004F072F90346002B04D014484FF4A871B8
:1009E00000F01CF93B1D10481946042204F064F97C
:1009F0000346002B04D00D4840F2551100F00EF9CB
:100A00003B1D09481946082204F056F90346002BFD
:100A100004D006484FF4AD7100F000F9024800F030
:100A200081FA2837BD4680BD6C1000209859000817
:100A300080B500AF134B144A1A60124B134A5A6028
:100A4000104B4FF480529A600E4B4FF40052DA6014
:100A50000C4B4FF480621A610A4B0C225A61094B0D
:100A600000229A61074B0022DA61064804F072FC0A
:100A70000346002B04D0064840F26F1100F0CEF878
:100A800080BD00BF700F002000380140A08601002B
:100A90009859000880B500AF124B134A1A60114BE9
:100AA0004FF4E1325A600F4B00229A600D4B002246
:100AB000DA600C4B00221A610A4B0C225A61094B76
:100AC00000229A61074B0022DA61064804F042FCDA
:100AD0000346002B04D005484FF4C17100F09EF886
:100AE00080BD00BF780D00200048004098590008E4
:100AF00080B582B000AF1F4A1E4B5B6943F0010313
:100B000053611C4B5B6903F001037B607B680B2026
:100B10000521002201F040FF0B2001F059FF0D20BC
:100B20000521002201F038FF0D2001F051FF0E20B9
:100B30000521002201F030FF0E2001F049FF0F20B7
:100B40000521002201F028FF0F2001F041FF1020B5
:100B50000521002201F020FF102001F039FF1120B3
:100B60000521002201F018FF112001F031FF0837A4
:100B7000BD4680BD0010024080B588B000AF1D4A60
:100B80001C4B9B6943F0100393611A4B9B6903F064
:100B90001003FB60FB68174A164B9B6943F0040384
:100BA0009361144B9B6903F00403BB60BB68114A5B
:100BB000104B9B6943F0080393610E4B9B6903F054
:100BC00008037B607B680C484FF40051002202F060
:100BD000A1FA4FF400533B6101237B610223FB61C7
:100BE00007F110030448194602F036F92037BD46D4
:100BF00080BD00BF001002400010014080B582B0EF
:100C000000AF78607B681B68034A934201D101F012
:100C1000C9FB0837BD4680BD002C014080B483B0BD
:100C200000AF78603960FEE780B584B000AF7860CF
:100C30000848FFF71DFD07F10C0306481946FFF7AA
:100C400031FD054B4FF080521A60BFF34F8FBFF359
:100C50006F8FF0E7000E002004ED00E080B582B059
:100C600000AF786006480749122204F0C1FB064B2A
:100C70004FF080521A60BFF34F8FBFF36F8FF1E7D1
:100C8000780D0020F80F002004ED00E080B582B060
:100C900000AF254A244B9B6943F001039361224B2B
:100CA0009B6903F001033B603B68032001F06AFE8F
:100CB0006FF00B000021002201F06EFE6FF00A00C1
:100CC0000021002201F068FE6FF0090000210022DF
:100CD00001F062FE6FF004000021002201F05CFED2
:100CE0006FF003000021002201F056FE6FF00100BA
:100CF0000F21002201F050FE4FF0FF300F210022A3
:100D000001F04AFE094B5B687B607B6823F0E0637F
:100D10007B607B6843F000737B60044A7B685360B0
:100D20000837BD4680BD00BF0010024000000140F2
:100D300080B588B000AF78607B681B68224A934218
:100D40003FD1224A214B9B6943F4007393611F4BAF
:100D50009B6903F40073FB60FB6838233B6103234A
:100D60007B6107F110031A48194602F075F8194B18
:100D7000194A1A60174B00225A60164B00229A60DB
:100D8000144B8022DA60134B4FF480721A61114BBE
:100D90004FF480625A610F4B00229A610D4B002282
:100DA000DA610C4801F04AFE0346002B03D00B48E1
:100DB0008B21FFF733FF7B68064A1A62054A7B687E
:100DC00053622037BD4680BD002401400010024020
:100DD00000080140B40F002008000240A859000894
:100DE00080B588B000AF78607B681B68374A934253
:100DF00069D1C0233B6112237B610323FB6107F1AF
:100E000010033348194602F027F8324A314BDB69A8
:100E100043F40013D3612F4BDB6903F40013FB6031
:100E2000FB682D4B2D4A1A602B4B00225A602A4B2F
:100E300000229A60284B8022DA60274B00221A6138
:100E4000254B00225A61244B00229A61224B4FF419
:100E50004052DA61204801F0F1FD0346002B03D037
:100E60001F48D421FFF7DAFE7B681B4A9A631A4AAF
:100E70007B6853621B4B1C4A1A601A4B10225A6043
:100E8000184B00229A60174B8022DA60154B002223
:100E90001A61144B00225A61124B00229A61114BC5
:100EA0004FF44052DA610F4801F0C8FD0346002BB1
:100EB00003D00B48E421FFF7B1FE7B68094A5A636F
:100EC000084A7B6853622037BD4680BD005400400D
:100ED000000C014000100240081000208000024079
:100EE000A8590008B80D00206C00024080B485B0FD
:100EF00000AF78607B681B68B3F1804F0BD1084A64
:100F0000074BDB6943F00103D361054BDB6903F059
:100F10000103FB60FB681437BD465DF8047B704736
:100F20000010024080B586B000AF78607B681B6817
:100F3000B3F1804F0BD10723BB600223FB60022378
:100F40007B6107F108030348194601F085FF183754
:100F5000BD4680BD0008014080B588B000AF786014
:100F60007B681B68694A934279D1694A684B9B69DF
:100F700043F480439361664B9B6903F48043FB60B9
:100F8000FB684FF400733B6102237B610323FB6129
:100F900007F110035F48194601F05EFF4FF48063CC
:100FA0003B6100237B610023BB6107F110035948BB
:100FB000194601F051FF584B584A1A60564B00220F
:100FC0005A60554B00229A60534B8022DA60524B94
:100FD00000221A61504B00225A614F4B00229A6145
:100FE0004D4B4FF44052DA614B4801F027FD034668
:100FF000002B04D04A484FF4B771FFF70FFE7B680F
:10100000454A5A63444A7B685362464B464A1A60D3
:10101000444B10225A60434B00229A60414B80227D
:10102000DA60404B00221A613E4B00225A613D4B70
:1010300000229A613B4B0022DA613A4801F0FEFC43
:101040000346002B04D036484FF4BF71FFF7E6FD8E
:101050007B68344A1A63334A7B68536253E07B6887
:101060001B68324A93424ED1294A294BDB6943F42B
:101070008023D361264BDB6903F48023BB60BB680C
:101080004FF480633B6102237B610323FB6107F123
:1010900010032748194601F0DFFE4FF400633B615F
:1010A00000237B610023BB6107F110032048194630
:1010B00001F0D2FE1F4B204A1A601E4B10225A60CC
:1010C0001C4B00229A601B4B8022DA60194B0022D5
:1010D0001A61184B00225A61164B00229A61154B77
:1010E0000022DA61134801F0A9FC0346002B04D06A
:1010F0000B4840F2A911FFF791FD7B680D4A1A6376
:101100000C4A7B6853622037BD4680BD00380140E1
:1011100000100240000801402C0F0020580002403F
:10112000A8590008B80E00204400024000480040C2
:10113000000C0140740E00201C00024080B58CB0F1
:1011400000AF78600023FB620023BB62192079683E
:10115000002201F021FC192001F03AFC1E4A1E4B2E
:101160009B6943F4006393611B4B9B6903F4006329
:10117000FB60FB6807F1140207F1100310461946E3
:1011800003F010FB03F0FAFAF862FB6A134AA2FBC1
:1011900003239B0C013BBB62114B124A1A60104B9C
:1011A00040F2E732DA600E4ABB6A53600C4B002211
:1011B0001A610B4B00229A60094803F0F7FB0346C3
:1011C000002B04D1064803F027FC034600E001236E
:1011D00018463037BD4680BD0010024083DE1B43F9
:1011E000AC100020002C014080B400AFBD465DF87B
:1011F000047B704780B400AFFEE700BF80B400AF4F
:10120000FEE700BF80B400AFFEE700BF80B400AFD0
:10121000FEE700BF80B400AFBD465DF8047B7047B9
:1012200080B500AF00F010FC80BD00BF80B500AFFE
:10123000014801F0CBFC80BDB40F002080B500AFA9
:10124000014801F0C3FC80BD740E002080B500AFE2
:10125000014801F0BBFC80BDB80E002080B500AF96
:10126000014801F0B3FC80BD2C0F002080B500AF19
:10127000014801F0ABFC80BDB80D002080B500AF87
:10128000014801F0A3FC80BD0810002080B500AF2C
:10129000014803F009FC80BDAC10002080B400AF11
:1012A000154A154B1B6843F0010313601249124B9A
:1012B0005A68124B13404B600F4A0F4B1B6823F0C8
:1012C000847323F4803313600B4A0B4B1B6823F4A5
:1012D00080231360084A084B5B6823F4FE035360C5
:1012E000054B4FF41F029A60054B4FF000629A6065
:1012F000BD465DF8047B7047001002400000FFF817
:1013000000ED00E080B58AB000AF78600023FB619B
:1013100000F08CFD574B1B68002B01D100F00CF93D
:10132000554B1A687B681340002B40F08C807B681B
:10133000002B1CD008227B6813447B607B6803F081
:101340000703002B13D07B6823F0070308337B606F
:101350007B6803F00703002B09D04FF0500383F3A1
:101360001188BFF36F8FBFF34F8F7B61FEE77B6800
:10137000002B68D0414B1B687A689A4263D8404B77
:101380003B623F4B1B687B6204E07B6A3B627B6A8B
:101390001B687B627B6A5A687B689A4203D27B6ACD
:1013A0001B68002BF1D1334B1B687A6A9A424AD0F2
:1013B0003B6A1B6808221344FB617B6A1A683B6A1C
:1013C0001A607B6A5A687B68D21A08235B009A42CB
:1013D0001ED97A6A7B681344BB61BB6903F00703BB
:1013E000002B09D04FF0500383F31188BFF36F8FA8
:1013F000BFF34F8F3B61FEE77B6A5A687B68D21A66
:10140000BB695A607B6A7A685A60B86900F0F6F87E
:101410001A4B1A687B6A5B68D31A184A1360174B19
:101420001A68184B1B689A4203D2144B1B68154A62
:1014300013607B6A5A68104B1B681A437B6A5A60B8
:101440007B6A00221A6000F0FFFCFB6903F00703CF
:10145000002B09D04FF0500383F31188BFF36F8F37
:10146000BFF34F8FFB60FEE7FB6918462837BD4688
:1014700080BD00BF300C00203C0C0020340C00204C
:10148000280C0020380C002080B586B000AF7860B2
:101490007B687B617B68002B46D008235B427A69BE
:1014A00013447B617B693B613B695A68204B1B6835
:1014B0001340002B09D14FF0500383F31188BFF381
:1014C0006F8FBFF34F8FFB60FEE73B691B68002BFC
:1014D00009D04FF0500383F31188BFF36F8FBFF330
:1014E0004F8FBB60FEE73B695A68114B1B68134086
:1014F000002B19D03B691B68002B15D13B695A683A
:101500000B4B1B68DB431A403B695A6000F08EFCB2
:101510003B695A68074B1B681344064A13603869D5
:1015200000F06CF800F090FC1837BD4680BD00BF9D
:101530003C0C0020340C002080B485B000AF4FF488
:101540004063BB60274BFB60FB6803F00703002B85
:101550000CD0FB680733FB60FB6823F00703FB60DC
:10156000BA68FB68D31A1F4A1344BB60FB687B60F0
:101570001D4A7B6813601C4B00225A607A68BB6866
:101580001344FB600822FB689B1AFB60FB6823F096
:101590000703FB60FB68154A1360144B1B680022AD
:1015A0005A60124B1B6800221A607B683B603B68E4
:1015B000FA68D21A3B685A600C4B1A683B681A608A
:1015C0003B685B680A4A13603B685B68094A1360C2
:1015D000094B4FF000421A601437BD465DF8047B9A
:1015E000704700BF28000020280C0020300C00208D
:1015F000380C0020340C00203C0C002080B485B056
:1016000000AF7860274BFB6002E0FB681B68FB6063
:10161000FB681A687B689A42F7D3FB68BB60FB687B
:101620005B68BA681A447B689A4208D1FB685A68BA
:101630007B685B681A44FB685A60FB687B607B6868
:10164000BB607B685B68BA681A44FB681B689A4297
:1016500018D1FB681A68144B1B689A420DD07B683E
:101660005A68FB681B685B681A447B685A60FB68B1
:101670001B681A687B681A6008E00B4B1A687B6865
:101680001A6003E0FB681A687B681A60FA687B6876
:101690009A4202D0FB687A681A601437BD465DF83A
:1016A000047B7047280C0020300C002080B485B0EB
:1016B00000AFF860B9607A60FB68043BFB60FB68D0
:1016C0004FF080721A60FB68043BFB60BB6823F03C
:1016D0000102FB681A60FB68043BFB60094AFB6877
:1016E0001A60FB68143BFB607A68FB681A60FB6851
:1016F000203BFB60FB6818461437BD465DF8047B51
:10170000704700BF0917000880B483B000AF0C4BCE
:101710001B68B3F1FF3F09D04FF0500383F31188EA
:10172000BFF36F8FBFF34F8F7B60FEE74FF0500327
:1017300083F31188BFF36F8FBFF34F8F3B60FEE7DA
:101740000400002000000000000000000000000075
:10175000074B19680868B0E8F00F80F30988BFF3F9
:101760006F8F4FF0000080F311884EF00D0E704720
:10177000480C002006480068006880F3088862B6BC
:1017800061B6BFF34F8FBFF36F8F00DF00BF000064
:1017900008ED00E080B584B000AF284BFB60FB682B
:1017A0001B78DBB2BB60FB68FF221A70FB681B78FA
:1017B000DBB2FB71FB79DBB203F05003DAB2204BF2
:1017C0001A70204B07221A6009E01E4B1B68013B70
:1017D0001C4A1360FB79DBB25B00DBB2FB71FB7967
:1017E000DBB2DBB25BB2002BEFDB164B1B681B02DC
:1017F000144A1360134B1B6803F4E063114A13602F
:10180000BB68DAB2FB681A700F4A0F4B1B6843F4CF
:10181000700313600C4A0C4B1B6843F07043136059
:1018200000F0B0F8094B00221A60FFF7A3FFFFF7A2
:101830006BFF002318461037BD4680BD00E400E072
:10184000400C0020440C002020ED00E004000020AB
:1018500080B483B000AF4FF0500383F31188BFF31F
:101860006F8FBFF34F8F7B600E4B1B6801330D4AA8
:1018700013600C4B1B68012B0ED10B4B1B68DBB2AA
:10188000002B09D04FF0500383F31188BFF36F8F03
:10189000BFF34F8F3B60FEE70C37BD465DF8047B1E
:1018A000704700BF0400002004ED00E080B483B066
:1018B00000AF104B1B68002B09D14FF0500383F38E
:1018C0001188BFF36F8FBFF34F8F7B60FEE7094B2B
:1018D0001B68013B074A1360064B1B68002B04D1B1
:1018E00000233B603B6883F311880C37BD465DF8ED
:1018F000047B70470400002000000000000000008E
:10190000EFF30980BFF36F8F0D4B1A6820E9F00FDA
:1019100010602DE908404FF0500080F3118800F06E
:10192000EFFB4FF0000080F31188BDE80840196814
:101930000868B0E8F00F80F30988BFF36F8F704735
:10194000480C002080B582B000AF4FF0500383F305
:101950001188BFF36F8FBFF34F8F7B6000F012FBD6
:101960000346002B03D0064B4FF080521A60002331
:101970003B603B6883F311880837BD4680BD00BFDC
:1019800004ED00E080B400AF074A084B1B6808492B
:10199000A1FB03139B09013B1360064B07221A604E
:1019A000BD465DF8047B704714E000E000000020B5
:1019B000D34D621010E000E080B485B000AF034664
:1019C000FB800023FB60B7F90630842B05D0B7F904
:1019D0000620FB6813440333FB60FB68184614378A
:1019E000BD465DF8047B704780B500AF00F0DAF9C2
:1019F0000023184680BD00BFF0B587B002AF786005
:101A000039607B685E687B681D687B681B699CB277
:101A10007B681B891BB21846FFF7CEFF0346009375
:101A200007F10C0301933046294622463B6800F03B
:101A30008FF80346012B01D0002300E0FB68184615
:101A40001437BD46F0BD00BF80B500AF00F076FC96
:101A50000346012B01D0FFF775FF80BD80B483B032
:101A600000AF78607B6803F108027B685A607B688E
:101A70004FF0FF329A607B6803F108027B68DA60FE
:101A80007B6803F108027B681A617B6800221A6098
:101A90000C37BD465DF8047B704700BF80B483B04F
:101AA00000AF78607B6800221A610C37BD465DF894
:101AB000047B704780B485B000AF786039607B6884
:101AC0005B68FB603B68FA685A60FB689A683B6831
:101AD0009A60FB689B683A685A60FB683A689A604B
:101AE0003B687A681A617B681B685A1C7B681A60BD
:101AF0001437BD465DF8047B704700BF80B485B0E5
:101B000000AF78607B681B69FB607B685B687A6804
:101B100092689A607B689B687A6852685A60FB6832
:101B20005A687B689A4203D17B689A68FB685A605E
:101B30007B6800221A61FB681B685A1EFB681A60EA
:101B4000FB681B6818461437BD465DF8047B704778
:101B500080B58CB004AFF860B9603B601346FB8081
:101B6000FB889B001846FFF7CDFB78617B69002B53
:101B70000ED05420FFF7C6FBF861FB69002B03D0A1
:101B8000FB697A691A6305E07869FFF77DFC01E07B
:101B90000023FB61FB69002B13D0FA88BB6A00931A
:101BA000FB6A0193FB69029300230393F868B96809
:101BB0003B6800F00FF8F86900F088F80123BB617A
:101BC00002E04FF0FF33BB61BB6918462037BD46CA
:101BD00080BD00BF80B588B000AFF860B9607A60A2
:101BE0003B603B6B1A6B7B6803F18043013B9B00BE
:101BF0001344BB61BB6923F00703BB61BB6903F0FE
:101C00000703002B09D04FF0500383F31188BFF373
:101C10006F8FBFF34F8F7B61FEE70023FB6113E003
:101C2000BA68FB69134419783A6BFB691344303383
:101C30000A461A71BA68FB6913441B78002B00D15D
:101C400005E0FB690133FB61FB690F2BE8D93B6BB6
:101C5000002283F84320BB6A062B01D90623BB620E
:101C60003B6BBA6ADA623B6BBA6A5A643B6B00221E
:101C70009A643B6B04331846FFF710FF3B6B183335
:101C80001846FFF70BFF3B6B3A6B1A61BB6AC3F157
:101C900007023B6B9A613B6B3A6B5A623B6B0022CB
:101CA000DA643B6B002283F85020B869F9683A681F
:101CB000FFF7FCFC02463B6B1A60FB6A002B02D06C
:101CC000FB6A3A6B1A602037BD4680BD80B582B092
:101CD00000AF7860FFF7BCFD2B4B1B6801332A4A2D
:101CE00013602A4B1B68002B09D1284A7B681360BC
:101CF000254B1B68012B10D100F074FA0DE0244B2A
:101D00001B68002B09D1214B1B68DA6A7B68DB6AF0
:101D10009A4202D81D4A7B6813601E4B1B68013330
:101D20001C4A13607B68DB6A1A46012303FA02F23D
:101D3000194B1B681343184A13607B68DA6A134611
:101D40009B0013449B00154A1A447B6804331046D9
:101D50001946FFF7AFFEFFF7A9FD0D4B1B68002BDF
:101D60000ED00A4B1B68DA6A7B68DB6A9A4207D29C
:101D70000B4B4FF080521A60BFF34F8FBFF36F8F42
:101D80000837BD4680BD00BF480D0020480C00202C
:101D9000540D0020640D0020500D00204C0C00203C
:101DA00004ED00E080B586B002AF00230093194B2C
:101DB00001931948194980220023FFF7C9FEF860F2
:101DC000FB68012B15D14FF0500383F31188BFF34B
:101DD0006F8FBFF34F8FBB60114B4FF0FF321A6014
:101DE000104B01221A60104B00221A60FFF7D2FC40
:101DF0000DE0FB68B3F1FF3F09D14FF0500383F3CF
:101E00001188BFF36F8FBFF34F8F7B60FEE71037F2
:101E1000BD4680BD6C0D0020B5210008C4590008E6
:101E2000680D0020540D00204C0D002080B400AF40
:101E3000044B1B680133034A1360BD465DF8047B05
:101E4000704700BF700D002080B584B000AF002344
:101E5000FB600023BB60424B1B68002B09D14FF095
:101E6000500383F31188BFF36F8FBFF34F8F3B6035
:101E7000FEE7FFF7EDFC3A4B1B68013B384A136065
:101E8000374B1B68002B63D1364B1B68002B5FD090
:101E900030E0354BDB68DB68FB60FB6818331846C5
:101EA000FFF72CFEFB6804331846FFF727FEFB689C
:101EB000DB6A1A46012303FA02F22C4B1B68134318
:101EC0002A4A1360FB68DA6A13469B0013449B009E
:101ED000274A1A44FB68043310461946FFF7EAFD07
:101EE000FB68DA6A234B1B68DB6A9A4202D3224BF7
:101EF00001221A601C4B1B68002BCAD1FB68002B07
:101F000001D000F0F7F91D4B1B687B607B68002B4C
:101F100010D000F037F80346002B02D0164B0122F8
:101F20001A607B68013B7B607B68002BF1D1134B0F
:101F300000221A60104B1B68002B09D00123BB60E4
:101F40000F4B4FF080521A60BFF34F8FBFF36F8F6C
:101F5000FFF7ACFCBB6818461037BD4680BD00BF1C
:101F6000700D0020480D0020080D0020500D0020AD
:101F70004C0C0020480C00205C0D0020580D002067
:101F800004ED00E080B586B000AF00237B61514BCB
:101F90001B68002B40F08E804F4B1B6801333B6168
:101FA0004D4A3B6913603B69002B1FD14B4B1B68AB
:101FB0001B68002B09D04FF0500383F31188BFF347
:101FC0006F8FBFF34F8F3B60FEE7444B1B68FB6096
:101FD000434B1B68414A1360414AFB681360414B05
:101FE0001B6801333F4A136000F084F93E4B1B68C5
:101FF0003A699A424FD3394B1B681B68002B01D1B9
:10200000012300E00023002B04D0374B4FF0FF32B8
:102010001A6040E0314B1B68DB68DB68BB60BB6863
:102020005B687B603A697B689A4203D22E4A7B6880
:10203000136030E0BB6804331846FFF75FFDBB68F0
:102040009B6A002B04D0BB6818331846FFF756FD77
:10205000BB68DB6A1A46012303FA02F2234B1B68B2
:102060001343224A1360BB68DA6A13469B00134489
:102070009B001F4A1A44BB68043310461946FFF7F9
:1020800019FDBB68DA6A1B4B1B68DB6A9A4201D3F5
:1020900001237B61AFE7174B1B68DA6A14491346CB
:1020A0009B0013449B000B441B68012B01D90123A7
:1020B0007B6104E0104B1B6801330F4A13600F4B28
:1020C0001B68002B01D001237B617B691846183700
:1020D000BD4680BD700D00204C0D0020000D00207D
:1020E000040D0020600D0020680D0020500D002020
:1020F0004C0C0020480C0020580D00205C0D0020E6
:1021000080B487B000AF264B1B68002B03D0254B53
:1021100001221A603EE0234B00221A60224B1B680A
:10212000FB60FB68B3FA83F3FB72FB7AC3F11F0316
:102130007B611E497A6913469B0013449B000B4444
:102140001B68002B09D14FF0500383F31188BFF3B4
:102150006F8FBFF34F8F7B60FEE77A6913469B005A
:1021600013449B00114A13443B613B695B685A6806
:102170003B695A603B695A683B6908339A4204D10B
:102180003B695B685A683B695A603B695B68DB681E
:10219000074A13601C37BD465DF8047B704700BFDB
:1021A000700D00205C0D0020500D00204C0C002014
:1021B000480C002080B582B000AF786000F050F885
:1021C000064B1B68012B07D9054B4FF080521A6054
:1021D000BFF34F8FBFF36F8FF0E700BF4C0C0020B1
:1021E00004ED00E080B582B000AF00237B600CE01E
:1021F0007A6813469B0013449B00114A1344184607
:10220000FFF72CFC7B6801337B607B68062BEFD9E2
:102210000C48FFF723FC0C48FFF720FC0B48FFF7A6
:102220001DFC0B48FFF71AFC0A48FFF717FC0A4B86
:10223000044A1A60094B044A1A600837BD4680BD3B
:102240004C0C0020D80C0020EC0C0020080D0020C5
:102250001C0D0020340D0020000D0020040D002076
:1022600080B582B000AF28E0FFF7E0FD164B1B6899
:10227000002B0CBF01230023DBB27B60FFF7E4FDE2
:102280007B68002B19D1FFF7E3FA0F4BDB68DB68A3
:102290003B603B6804331846FFF730FC0B4B1B6870
:1022A000013B0A4A13600A4B1B68013B084A136052
:1022B000FFF7FCFA386800F00DF8054B1B68002B9F
:1022C000D2D10837BD4680BD1C0D0020480D00202E
:1022D000300D002080B582B000AF78607B681B6B4A
:1022E0001846FFF7D1F87868FFF7CEF80837BD46F3
:1022F00080BD00BF80B483B000AF0E4B1B681B686D
:10230000002B01D1012300E00023002B04D00A4B55
:102310004FF0FF321A6008E0064B1B68DB68DB6891
:102320007B607B685B68044A13600C37BD465DF8D0
:10233000047B7047000D0020680D002080B483B03E
:1023400000AF0B4B1B68002B02D101237B6008E020
:10235000084B1B68002B02D102237B6001E00023A5
:102360007B607B6818460C37BD465DF8047B704780
:10237000540D0020700D002080B500AF084A084BB6
:102380001B6843F010031360032000F0FBFA0020E9
:10239000FEF7D4FEFEF77AFC0023184680BD00BF8E
:1023A0000020024080B400AF054B1B781A46054B55
:1023B0001B681344034A1360BD465DF8047B7047F5
:1023C00008000020EC10002080B400AF034B1B6815
:1023D0001846BD465DF8047B704700BFEC10002036
:1023E00080B586B000AF78600023FB7500233B61A9
:1023F0000023BB600023FB607B68002B01D101231D
:10240000BEE07B689B68002B7B689B6A002B09D130
:102410007B680022DA627B68002283F824207868D7
:10242000FEF786FC786800F0ABF90346FB757B6825
:102430009B6A03F01003002B40F09980FB7D002B7A
:1024400040F095807B689B6A23F4885323F0020355
:1024500043F002027B689A627B685A687B68DB699A
:102460001A437B68DB685B001343BA681343BB60A5
:102470007B689B68B3F5807F03D07B689B68012BEA
:1024800002D14FF4807300E000233A6913433B61AB
:102490007B685B69012B19D17B68DB68002B09D154
:1024A0007B689B69013B5A033B69134343F4006318
:1024B0003B610BE07B689B6A43F020027B689A6279
:1024C0007B68DB6A43F001027B68DA627B681B6829
:1024D0007A681268526822F469413A690A435A607C
:1024E0007B681A687B681B689968274B0B40B96842
:1024F0000B4393607B689B68B3F5807F03D07B6858
:102500009B68012B04D17B681B69013B1B05FB60A9
:102510007B681B687A681268D26A22F47001FA68D4
:102520000A43DA627B681B689A68184B1340BA68E2
:1025300093420BD17B680022DA627B689B6A23F0AE
:10254000030343F001027B689A6218E07B689B6A90
:1025500023F0120343F010027B689A627B68DB6A07
:1025600043F001027B68DA620123FB7507E07B68B8
:102570009B6A43F010027B689A620123FB75FB7D26
:1025800018461837BD4680BDFDF7E1FFFE0E1FFF60
:1025900090B484B000AF786039600023FB730023EF
:1025A000BB607B6893F82430012B01D10223DCE06F
:1025B0007B68012283F824203B685B68062B1CD8CB
:1025C0007B6819687B681B68586B3B685A681346C0
:1025D0009B001344053B1A461F239340DB431840DE
:1025E0003B681C683B685A6813469B001344053BD4
:1025F00004FA03F303434B633CE03B685B680C2B3A
:102600001CD87B6819687B681B68186B3B685A6824
:1026100013469B001344233B1A461F239340DB437E
:1026200018403B681C683B685A6813469B0013447B
:10263000233B04FA03F303430B631BE07B68196835
:102640007B681B68D86A3B685A6813469B00134432
:10265000413B1A461F239340DB4318403B681C68EC
:102660003B685A6813469B001344413B04FA03F34A
:102670000343CB623B681B68092B1CD97B68196834
:102680007B681B68D8683B681A6813465B00134474
:102690001E3B1A4607239340DB4318403B689C6867
:1026A0003B681A6813465B0013441E3B04FA03F3AD
:1026B0000343CB6019E07B6819687B681B68186965
:1026C0003B681A6813465B0013441A46072393407D
:1026D000DB4318403B689C683B681A6813465B0004
:1026E000134404FA03F303430B613B681B68102B8C
:1026F00003D03B681B68112B32D17B681B681D4AD5
:10270000934225D17B681B689B6803F40003002B70
:1027100026D17B681B687A681268926842F40002CE
:102720009A603B681B68102B1AD1134B1B68134A25
:10273000A2FB03239A0C13469B0013445B00BB606F
:1027400002E0BB68013BBB60BB68002BF9D107E02E
:102750007B689B6A43F020027B689A620123FB73CB
:102760007B68002283F82420FB7B18461037BD4687
:1027700090BC7047002401400000002083DE1B4312
:1027800080B584B000AF78600023FB607B681B6875
:102790009B6803F00103002B27D07B681B687A68D5
:1027A0001268926822F001029A60FFF70DFEF8604D
:1027B00014E0FFF709FE0246FB68D31A022B0DD97D
:1027C0007B689B6A43F010027B689A627B68DB6AD5
:1027D00043F001027B68DA62012307E07B681B6833
:1027E0009B6803F00103002BE3D100231846103748
:1027F000BD4680BD80B485B000AF78607B6803F0D3
:102800000703FB600C4BDB68BB60BA684FF6FF0345
:102810001340BB60FB681A02BB68134343F0BF63FD
:1028200043F40033BB60044ABB68D3601437BD4631
:102830005DF8047B704700BF00ED00E080B400AF9E
:10284000044BDB6803F4E0631B0A1846BD465DF8E1
:10285000047B704700ED00E080B483B000AF034616
:10286000FB71084997F907305B09FA7902F01F02FA
:10287000012000FA02F241F823200C37BD465DF832
:10288000047B704700E100E080B483B000AF0346F2
:102890003960FB7197F90730002B0BDA0D49FB7992
:1028A00003F00F03043B3A68D2B21201D2B20B44D8
:1028B0001A7609E0084997F907303A68D2B212014E
:1028C000D2B20B4483F800230C37BD465DF8047B7D
:1028D000704700BF00ED00E000E100E080B489B087
:1028E00000AFF860B9607A60FB6803F00703FB6132
:1028F000FB69C3F10703042B28BF0423BB61FB69F9
:102900000433062B02D9FB69033B00E000237B6103
:10291000BB69012202FA03F35A1EBB681A407B69A5
:102920009A407B69012101FA03F3591E7B680B4031
:10293000134318462437BD465DF8047B704700BF3B
:1029400080B582B000AF78607B68013BB3F1807FD7
:1029500001D301230FE00A4A7B68013B53604FF02B
:10296000FF300F21FFF790FF054B00229A60044BC8
:1029700007221A60002318460837BD4680BD00BFF5
:1029800010E000E080B582B000AF78607868FFF7B3
:1029900031FF0837BD4680BD80B586B000AF034625
:1029A000B9607A60FB7300237B61FFF747FF7861B2
:1029B0007869B9687A68FFF791FF024697F90F3096
:1029C00018461146FFF760FF1837BD4680BD00BFAF
:1029D00080B582B000AF0346FB7197F90730184607
:1029E000FFF73AFF0837BD4680BD00BF80B582B013
:1029F00000AF78607868FFF7A3FF034618460837F2
:102A0000BD4680BD80B483B000AF78607B68042B86
:102A100006D1094A084B1B6843F00403136005E024
:102A2000054A054B1B6823F0040313600C37BD46B1
:102A30005DF8047B704700BF10E000E080B485B013
:102A400000AF78600023FB607B68002B01D101237D
:102A50004FE07B681B681A46294B1344294AA2FBA6
:102A600003231B099A007B681A647B68264ADA6391
:102A70007B68022283F821207B681B681B68FB604F
:102A8000FB6823F47F5323F03003FB607B685A68B4
:102A90007B689B681A437B68DB681A437B681B6909
:102AA0001A437B685B691A437B689B691A437B689E
:102AB000DB691343FA681343FB607B681B68FA68A1
:102AC0001A607B6800229A627B680022DA627B6867
:102AD00000221A637B6800225A637B6800229A6393
:102AE0007B68012283F821207B68002283F8202064
:102AF000002318461437BD465DF8047B704700BFBD
:102B0000F8FFFDBFCDCCCCCC0000024080B586B034
:102B100000AFF860B9607A603B600023FB75FB682A
:102B200093F82030012B01D102234AE0FB680122F7
:102B300083F82020FB6893F82130012B3AD1FB6801
:102B4000022283F82120FB6800229A63FB681B683D
:102B5000FA681268126822F001021A60F868B9680F
:102B60007A683B6800F04AF9FB68DB6A002B08D002
:102B7000FB681B68FA681268126842F00E021A605D
:102B80000FE0FB681B68FA681268126822F0040202
:102B90001A60FB681B68FA681268126842F00A0241
:102BA0001A60FB681B68FA681268126842F001023A
:102BB0001A6005E0FB68002283F820200223FB75E1
:102BC000FB7D18461837BD4680BD00BF80B584B078
:102BD00000AF78607B68DB6B1B68FB607B681B6801
:102BE0001B68BB607B681B6C1A46042303FA02F265
:102BF000FB681340002B55D0BB6803F00403002B87
:102C000050D07B681B681B6803F02003002B07D1A2
:102C10007B681B687A681268126822F004021A60E6
:102C20006F4A7B681B6819466E4B99422ED07B68B1
:102C30001B6819466C4B994226D07B681B68194665
:102C40006A4B99421DD07B681B681946684B9942B4
:102C500014D07B681B681946664B99420BD07B6881
:102C60001B681946644B994202D14FF480030EE071
:102C70004FF080630BE04FF4802308E04FF4804373
:102C800005E04FF4806302E0402300E0042353603A
:102C90007B68DB6A002B04D07B68DB6A7868984726
:102CA0009AE099E07B681B6C1A46022303FA02F251
:102CB000FB681340002B5DD0BB6803F00203002BC0
:102CC00058D07B681B681B6803F02003002B0BD1D6
:102CD0007B681B687A681268126822F00A021A6020
:102CE0007B68012283F821203D4A7B681B681946D6
:102CF0003C4B99422ED07B681B6819463A4B99424F
:102D000026D07B681B681946384B99421DD07B68DA
:102D10001B681946364B994214D07B681B681946CC
:102D2000344B99420BD07B681B681946324B994251
:102D300002D14FF400130EE04FF000730BE04FF49C
:102D4000003308E04FF4005305E04FF4007302E055
:102D5000202300E0022353607B68002283F82020B8
:102D60007B689B6A002B04D07B689B6A78689847D5
:102D700032E031E07B681B6C1A46082303FA02F24A
:102D8000FB681340002B27D0BB6803F00803002B1F
:102D900022D07B681B687A681268126822F00E02E3
:102DA0001A607B68DB6B7A68126C114601228A40DC
:102DB0005A607B6801229A637B68012283F8212094
:102DC0007B68002283F820207B681B6B002B03D0DC
:102DD0007B681B6B7868984700BF1037BD4680BD85
:102DE00000000240080002401C0002403000024087
:102DF00044000240580002406C00024080B485B09C
:102E000000AFF860B9607A603B60FB68DB6BFA6822
:102E1000126C114601228A405A60FB681B683A68AE
:102E20005A60FB685B68102B08D1FB681B687A68E6
:102E30009A60FB681B68BA68DA6007E0FB681B6889
:102E4000BA689A60FB681B687A68DA601437BD4616
:102E50005DF8047B704700BF80B48BB000AF786032
:102E600039600023FB610023BB6100237B610023E9
:102E70003B6200233B6100237B6228E17B6A0122E5
:102E800002FA03F3FB613B681A68FB691340BB61FC
:102E9000BA69FB699A4240F017813B685B68122B64
:102EA00034D0122B0DD8022B2BD0022B04D8002BA0
:102EB00031D0012B1CD049E0032B44D0112B1BD067
:102EC00044E0874A934226D0854A934206D8854AF1
:102ED000934220D0844A93421DD037E0834A9342E4
:102EE00019D0834A934216D0824A934213D02DE0E0
:102EF0003B68DB683B6229E03B68DB6804333B628C
:102F000024E03B68DB6808333B621FE03B68DB681A
:102F10000C333B621AE03B689B68002B02D1042310
:102F20003B620FE03B689B68012B05D108233B62A5
:102F30007B68FA691A6105E008233B627B68FA69DD
:102F40005A6103E002E000233B6200BFBB69FF2B34
:102F500001D87B6801E07B680433FB60BB69FF2B11
:102F600002D87B6A9B0002E07B6A083B9B003B61C6
:102F7000FB681A683B690F2101FA03F3DB431A402F
:102F80003B69396A01FA03F31A43FB681A603B682C
:102F90005B6803F08053002B00F09680564A564B36
:102FA0009B6943F001039361534B9B6903F0010359
:102FB000BB60BB68514A7B6A9B08023352F82330DE
:102FC0007B617B6A03F003039B001A460F23934047
:102FD000DB437A6913407B617B68494A934213D093
:102FE0007B68484A93420DD07B68474A934207D09A
:102FF0007B68464A934201D1032306E0042304E0A0
:10300000022302E0012300E000237A6A02F00302B7
:10301000920093407A6913437B6138497B6A9B082D
:1030200002337A6941F823203B685B6803F48033FC
:10303000002B06D03649364B1A68BB6913430B6028
:1030400006E03349324B1A68BB69DB4313400B601F
:103050003B685B6803F40033002B06D02C492C4BF3
:103060005A68BB6913434B6006E02949284B5A68EC
:10307000BB69DB4313404B603B685B6803F4801320
:10308000002B06D02249224B9A68BB6913438B6000
:1030900006E01F491E4B9A68BB69DB4313408B60F7
:1030A0003B685B6803F40013002B06D01849184BEB
:1030B000DA68BB691343CB6006E01549144BDA6844
:1030C000BB69DB431340CB607B6A01337B627B6A65
:1030D0000F2B7FF6D3AE2C37BD465DF8047B7047CF
:1030E000000021100000111000001210000031102B
:1030F00000003210000022100010024000000140C9
:1031000000080140000C0140001001400014014083
:103110000004014080B483B000AF78600B467B8030
:1031200013467B707B78002B03D07A887B681A610A
:1031300003E07B881A047B681A610C37BD465DF892
:10314000047B704780B584B000AF78600023FB60DB
:103150000023BB607B68002B01D10123E7E07B6883
:1031600093F83D30DBB2002B06D17B68002283F858
:103170003C207868FDF734FE7B68242283F83D20EC
:103180007B681B687A681268126822F001021A6074
:1031900001F0E0FAB8607B685B68674A934207D841
:1031A000BB68664A934294BF01230023DBB206E06A
:1031B000BB68634A934294BF01230023DBB2002B18
:1031C00001D00123B3E0BB685E4AA2FB03239B0C42
:1031D000FB607B681B68FA685A607B681A687B68CA
:1031E0005B6855498B4202D8FB68013309E0FB68F4
:1031F0004FF4967101FB03F35349A1FB03139B09A1
:10320000013313627B6819687B685B684A4A9342A2
:103210000DD8BB685A1E7B685B685B00B2FBF3F39A
:103220000133C3F30B03042B38BF04234FE07B6847
:103230009B68002B11D1BB68581E7B685A681346E7
:103240005B001344B0FBF3F30133C3F30B03002B18
:103250000CBF01230023DBB212E0BB68581E7B6861
:103260005A6813469B0013449A001344B0FBF3F3CF
:103270000133C3F30B03002B0CBF01230023DBB28C
:10328000002B01D0012322E07B689B68002B0ED12C
:10329000BB68581E7B685A6813465B001344B0FB3A
:1032A000F3F30133C3F30B0343F400430FE0BB68B4
:1032B000581E7B685A6813469B0013449A001344B7
:1032C000B0FBF3F30133C3F30B0343F44043CB618F
:1032D0007B681B687A68D1697A68126A0A431A6047
:1032E0007B681B687A6811697A68D2680A439A60B9
:1032F0007B681B687A6851697A6892690A43DA6068
:103300007B681B687A681268126842F001021A60D2
:103310007B6800221A647B68202283F83D207B684A
:1033200000221A637B68002283F83E20002318469F
:103330001037BD4680BD00BFA08601007F841E00FF
:10334000FF083D0083DE1B43D34D621080B588B07B
:1033500002AFF8607A601A460B467B8113463B81C8
:1033600000237B61FFF730F87861FB6893F83D300C
:10337000DBB2202B40F0EF807B690093F86878493E
:103380000122192300F070FC0346002B01D0022318
:10339000E2E0FB6893F83C30012B01D10223DBE033
:1033A000FB68012283F83C20FB681B681B6803F064
:1033B0000103002B07D1FB681B68FA6812681268CA
:1033C00042F001021A60FB681B68FA681268126812
:1033D00022F400621A60FB68212283F83D20FB681A
:1033E000102283F83E20FB6800221A64FB687A688A
:1033F0005A62FB683A895A85FB685A4ADA62FB6866
:103400005B8D9AB2FB681A857B89F86819463A6A1F
:103410007B6900F0E3FA0346002B0FD0FB681B6CBE
:10342000042B05D1FB68002283F83C20012393E0A4
:10343000FB68002283F83C2003238DE000233B61DE
:10344000FB681B685B693B61FB681B689B693B61B0
:103450003B6966E0F868396A7A6900F0C5FC0346A2
:10346000002B0FD0FB681B6C042B09D1FB681B6879
:10347000FA681268126842F400721A6001236BE065
:10348000032369E0FB681A68FB685B6A581CF968EB
:1034900048621B781361FB685B8D9BB2013B9AB25B
:1034A000FB685A85FB681B8D013B9AB2FB681A8545
:1034B000FB681B685B6903F00403002B19D0FB68F1
:1034C0001B8D002B15D0FB681A68FB685B6A581CC3
:1034D000F96848621B781361FB685B8D9BB2013B06
:1034E0009AB2FB685A85FB681B8D013B9AB2FB6858
:1034F0001A85F868396A7A6900F0B4FC0346002B33
:103500000FD0FB681B6C042B09D1FB681B68FA68A1
:103510001268126842F400721A6001231CE003234F
:103520001AE0FB681B8D002B94D1FB681B68FA68BE
:103530001268126842F400721A60FB68202283F855
:103540003D20FB68002283F83E20FB68002283F8C0
:103550003C20002300E0022318461837BD4680BDFA
:10356000020010000000FFFF80B58CB002AFF860D1
:103570007A601A460B467B8113463B8100237B62AF
:10358000FEF722FF7862FB6893F83D30DBB2202B18
:1035900040F01D827B6A0093F86888490122192354
:1035A00000F062FB0346002B01D0022310E2FB680F
:1035B00093F83C30012B01D1022309E2FB68012280
:1035C00083F83C20FB681B681B6803F00103002B99
:1035D00007D1FB681B68FA681268126842F00102A2
:1035E0001A60FB681B68FA681268126822F40062AD
:1035F0001A60FB68222283F83D20FB68102283F8C2
:103600003E20FB6800221A64FB687A685A62FB68F5
:103610003A895A85FB686A4ADA62FB685B8D9AB21E
:10362000FB681A857B89F86819463A6B7B6A00F05B
:1036300055FA0346002B0FD0FB681B6C042B05D1F9
:10364000FB68002283F83C200123C1E1FB680022D3
:1036500083F83C200323BBE1FB681B8D002B13D1B7
:1036600000233B62FB681B685B693B62FB681B686D
:103670009B693B623B6AFB681B68FA6812681268C8
:1036800042F400721A6056E0FB681B8D012B1DD1BD
:10369000FB681B68FA681268126822F480621A607C
:1036A00072B60023FB61FB681B685B69FB61FB680A
:1036B0001B689B69FB61FB69FB681B68FA68126801
:1036C000126842F400721A6062B634E0FB681B8D27
:1036D000022B1DD1FB681B68FA681268126842F45D
:1036E00000621A6072B60023BB61FB681B685B69ED
:1036F000BB61FB681B689B69BB61BB69FB681B689E
:10370000FA681268126822F480621A6062B612E0E7
:10371000FB681B68FA681268126842F480621A60DB
:1037200000237B61FB681B685B697B61FB681B682E
:103730009B697B617B6937E1FB681B8D032B00F282
:10374000EE80FB681B8D012B27D1F868396B7A6AF4
:1037500000F0C6FB0346002B07D0FB681B6C202B38
:1037600001D1032334E1012332E1FB685B6A591C78
:10377000FA685162FA6812681269D2B21A70FB686C
:103780001B8D013B9AB2FB681A85FB685B8D9BB26F
:10379000013B9AB2FB685A8506E1FB681B8D022B40
:1037A0004BD17B6A0093F868064900223B6B00F01E
:1037B0005BFA0346002B07D0032309E10200100047
:1037C0000000FFFF0400010072B6FB681B68FA6886
:1037D0001268126842F400721A60FB685B6A591C36
:1037E000FA685162FA6812681269D2B21A70FB68FC
:1037F0001B8D013B9AB2FB681A85FB685B8D9BB2FF
:10380000013B9AB2FB685A8562B6FB685B6A591C39
:10381000FA685162FA6812681269D2B21A70FB68CB
:103820001B8D013B9AB2FB681A85FB685B8D9BB2CE
:10383000013B9AB2FB685A85B6E07B6A0093F86850
:10384000654900223B6B00F00FFA0346002B01D0C4
:103850000323BDE0FB681B68FA681268126822F453
:1038600080621A6072B6FB685B6A591CFA68516222
:10387000FA6812681269D2B21A70FB681B8D013B9C
:103880009AB2FB681A85FB685B8D9BB2013B9AB2CA
:10389000FB685A857B6A0093F8684F4900223B6BAE
:1038A00000F0E2F90346002B01D0032390E0FB680F
:1038B0001B68FA681268126842F400721A60FB68AA
:1038C0005B6A591CFA685162FA6812681269D2B2CE
:1038D0001A70FB681B8D013B9AB2FB681A85FB6866
:1038E0005B8D9BB2013B9AB2FB685A8562B6FB685E
:1038F0005B6A591CFA685162FA6812681269D2B29E
:103900001A70FB681B8D013B9AB2FB681A85FB6835
:103910005B8D9BB2013B9AB2FB685A8544E0F86824
:10392000396B7A6A00F0DCFA0346002B07D0FB689B
:103930001B6C202B01D103234AE0012348E0FB68E4
:103940005B6A591CFA685162FA6812681269D2B24D
:103950001A70FB681B8D013B9AB2FB681A85FB68E5
:103960005B8D9BB2013B9AB2FB685A85FB681B6872
:103970005B6903F00403002B16D0FB685B6A591CDB
:10398000FA685162FA6812681269D2B21A70FB685A
:103990001B8D013B9AB2FB681A85FB685B8D9BB25D
:1039A000013B9AB2FB685A85FB681B8D002B7FF4A4
:1039B000C3AEFB68202283F83D20FB68002283F819
:1039C0003E20FB68002283F83C20002300E0022315
:1039D00018462837BD4680BD0400010080B588B078
:1039E00002AFF8607A603B600B467B81FB68DB6A64
:1039F0007B617B69042B06D07B69012B03D07B693B
:103A000013F5803F08D1FB681B68FA6812681268DA
:103A100042F480721A600BE0FB681B6B122B07D11B
:103A2000FB681B68FA681268126842F480721A60B8
:103A30003B680093F8684FF0011100227B6800F0AA
:103A400013F90346002B01D003233FE0FB681B69F9
:103A5000B3F5804F07D1FB681B687A89D2B202F0B8
:103A6000FE021A6120E0FB681B687A8902F440724A
:103A7000D211D2B262F00F02D2B21A61F8681549BF
:103A80007A683B6800F042F90346002B07D0FB68D8
:103A90001B6C042B01D1012318E0032316E0FB6803
:103AA0001B687A89D2B21A61F8680B497A683B6858
:103AB00000F02CF90346002B07D0FB681B6C042B8D
:103AC00001D1012302E0032300E000231846183748
:103AD000BD4680BD080001000200010080B588B02D
:103AE00002AFF8607A603B600B467B81FB68DB6A63
:103AF0007B61FB681B68FA681268126842F4806296
:103B00001A607B69042B06D07B69012B03D07B698B
:103B100013F5803F08D1FB681B68FA6812681268C9
:103B200042F480721A600BE0FB681B6B112B07D10B
:103B3000FB681B68FA681268126842F480721A60A7
:103B40003B680093F8684FF0011100227B6800F099
:103B50008BF80346002B01D003237DE0FB681B6933
:103B6000B3F5804F08D1FB681B687A89D2B242F066
:103B70000102D2B21A615DE0FB681B687A8902F427
:103B80004072D211D2B262F00F02D2B21A61F8685A
:103B900033497A683B6800F0B9F80346002B07D038
:103BA000FB681B6C042B01D1012355E0032353E078
:103BB000FB681B687A89D2B21A61F86829497A6869
:103BC0003B6800F0A3F80346002B07D0FB681B6C92
:103BD000042B01D101233FE003233DE000233B619F
:103BE000FB681B685B693B61FB681B689B693B6109
:103BF0003B69FB681B68FA681268126842F48072BD
:103C00001A603B680093F8684FF0011100227B684E
:103C100000F02AF80346002B01D003231CE0FB68C8
:103C20001B687A8902F44072D211D2B262F00E029D
:103C3000D2B21A61F8680B497A683B6800F066F8FE
:103C40000346002B07D0FB681B6C042B01D101231A
:103C500002E0032300E0002318461837BD4680BD6C
:103C6000080001000200010080B584B000AFF860D8
:103C7000B9603B601346FB711FE03B68B3F1FF3F47
:103C80001BD03B68002B07D0FEF79EFB0246BB69AA
:103C9000D21A3B689A4210D9FB6800221A63FB686B
:103CA000202283F83D20FB68002283F83E20FB6839
:103CB000002283F83C20032323E0BB681B0CDBB20B
:103CC000012B0DD1FB681B685B69DA43BB681340AD
:103CD0009BB2002B0CBF01230023DBB21A460CE081
:103CE000FB681B689B69DA43BB6813409BB2002BDF
:103CF0000CBF01230023DBB21A46FB799A42BCD0E9
:103D0000002318461037BD4680BD00BF80B584B083
:103D100000AFF860B9607A603B603FE0FB681B6809
:103D20005B6903F48063002B1CD0FB681B68FA6896
:103D30001268126842F400721A60FB681B686FF424
:103D400080625A61FB6804221A64FB6800221A63CD
:103D5000FB68202283F83D20FB68002283F83C208A
:103D600001233CE07B68B3F1FF3F17D07B68002B59
:103D700007D0FEF729FB02463B68D21A7B689A42BD
:103D80000CD9FB6800221A63FB68202283F83D20CF
:103D9000FB68002283F83C20032320E0BB681B0C57
:103DA000DBB2012B0CD1FB681B685B69DA43BB6893
:103DB00013409BB2002B14BF01230023DBB20BE0A6
:103DC000FB681B689B69DA43BB6813409BB2002BFE
:103DD00014BF01230023DBB2002B9FD10023184620
:103DE0001037BD4680BD00BF80B584B000AFF8601D
:103DF000B9607A6029E0F86800F0BCF80346002B4F
:103E000001D0012329E0BB68B3F1FF3F1DD0BB689F
:103E1000002B07D0FEF7D8FA02467B68D21ABB689F
:103E20009A4212D9FB681B6C43F02002FB681A64AB
:103E3000FB6800221A63FB68202283F83D20FB68A0
:103E4000002283F83C20032307E0FB681B685B69C2
:103E500003F08003002BCED0002318461037BD4658
:103E600080BD00BF80B584B000AFF860B9607A60F3
:103E700029E0F86800F07EF80346002B01D001230A
:103E800029E0BB68B3F1FF3F1DD0BB68002B07D012
:103E9000FEF79AFA02467B68D21ABB689A4212D998
:103EA000FB681B6C43F02002FB681A64FB6800226D
:103EB0001A63FB68202283F83D20FB68002283F808
:103EC0003C20032307E0FB681B685B6903F00403E5
:103ED000002BCED0002318461037BD4680BD00BF52
:103EE00080B584B000AFF860B9607A6036E0FB68F6
:103EF0001B685B6903F01003002B14D0FB681B6880
:103F00006FF010025A61FB6800221A64FB680022FD
:103F10001A63FB68202283F83D20FB68002283F8A7
:103F20003C20012322E0BB68002B07D0FEF74CFAAF
:103F300002467B68D21ABB689A420FD9FB681B6C99
:103F400043F02002FB681A64FB68202283F83D20BE
:103F5000FB68002283F83C20032307E0FB681B6812
:103F60005B6903F04003002BC1D0002318461037D3
:103F7000BD4680BD80B483B000AF78607B681B68AD
:103F80005B6903F48063002B14D07B681B686FF4BB
:103F900080625A617B6804221A647B6800221A637B
:103FA0007B68202283F83D207B68002283F83C2038
:103FB000012300E0002318460C37BD465DF8047B62
:103FC000704700BF80B586B000AF786000233B61CA
:103FD0007B681B6803F00103002B00F08580914B88
:103FE0005B6803F00C03042B0BD08E4B5B6803F073
:103FF0000C03082B12D18B4B5B6803F48033002B2E
:104000000CD0884B1B6803F40033002B05D07B6871
:104010005B68002B01D101232CE265E07B685B68C3
:10402000B3F5803F06D17F4A7E4B1B6843F4803353
:1040300013602EE07B685B68002B0CD1794A794BCA
:104040001B6823F480331360764A764B1B6823F495
:10405000802313601DE07B685B68B3F5A02F0CD153
:10406000704A704B1B6843F4802313606D4A6D4B9C
:104070001B6843F4803313600BE06A4A694B1B688A
:1040800023F480331360674A664B1B6823F4802354
:1040900013607B685B68002B13D0FEF795F93861DD
:1040A00008E0FEF791F902463B69D31A642B01D967
:1040B0000323DFE15B4B1B6803F40033002BF0D0DC
:1040C00012E0FEF781F9386108E0FEF77DF902465B
:1040D0003B69D31A642B01D90323CBE1514B1B68F5
:1040E00003F40033002BF0D17B681B6803F002035C
:1040F000002B63D04B4B5B6803F00C03002B0BD001
:10410000484B5B6803F00C03082B1CD1454B5B68E4
:1041100003F48033002B16D1424B1B6803F00203DB
:10412000002B05D07B681B69012B01D00123A1E185
:104130003C493C4B1B6823F0F8027B685B69DB0061
:1041400013430B603AE07B681B69002B20D0364B91
:1041500001221A60FEF738F9386108E0FEF734F9F9
:1041600002463B69D31A022B01D9032382E12D4B6E
:104170001B6803F00203002BF0D02A49294B1B686F
:1041800023F0F8027B685B69DB0013430B6015E0EA
:10419000254B00221A60FEF717F9386108E0FEF798
:1041A00013F902463B69D31A022B01D9032361E1BB
:1041B0001C4B1B6803F00203002BF0D17B681B68CB
:1041C00003F00803002B39D07B689B69002B19D0C2
:1041D000164B01221A60FEF7F7F8386108E0FEF787
:1041E000F3F802463B69D31A022B01D9032341E1BC
:1041F0000C4B5B6A03F00203002BF0D0012000F0AF
:1042000001FB1BE0094B00221A60FEF7DDF8386164
:104210000EE0FEF7D9F802463B69D31A022B07D904
:10422000032327E100100240000042428004424282
:10423000924B5B6A03F00203002BEAD17B681B6898
:1042400003F00403002B00F0A6800023FB758B4BCA
:10425000DB6903F08053002B0DD1884A874BDB6963
:1042600043F08053D361854BDB6903F08053FB60DF
:10427000FB680123FB75824B1B6803F48073002BE2
:1042800018D17F4A7E4B1B6843F480731360FEF79E
:104290009BF8386108E0FEF797F802463B69D31AAD
:1042A000642B01D90323E5E0754B1B6803F480738D
:1042B000002BF0D07B68DB68012B06D16F4A6F4B77
:1042C0001B6A43F0010313622DE07B68DB68002B5F
:1042D0000CD16A4A694B1B6A23F001031362674AD7
:1042E000664B1B6A23F0040313621CE07B68DB68E7
:1042F000052B0CD1614A614B1B6A43F00403136226
:104300005E4A5E4B1B6A43F0010313620BE05B4A9B
:104310005A4B1B6A23F001031362584A574B1B6A1E
:1043200023F0040313627B68DB68002B15D0FEF7D3
:104330004BF838610AE0FEF747F802463B69D31AAA
:1043400041F28832934201D9032393E04B4B1B6A1D
:1043500003F00203002BEED014E0FEF735F83861CD
:104360000AE0FEF731F802463B69D31A41F288327F
:10437000934201D903237DE0404B1B6A03F0020303
:10438000002BEED1FB7D012B05D13C4A3B4BDB6979
:1043900023F08053D3617B68DB69002B69D0374BF6
:1043A0005B6803F00C03082B61D07B68DB69022B90
:1043B00046D1344B00221A60FEF706F8386108E057
:1043C000FEF702F802463B69D31A022B01D90323F8
:1043D00050E02A4B1B6803F00073002BF0D17B6880
:1043E0001B6AB3F5803F08D12449244B5B6823F452
:1043F00000327B689B6813434B6020481F4B5B680F
:1044000023F474127B68196A7B685B6A0B4313435D
:1044100043601C4B01221A60FDF7D6FF386108E0AB
:10442000FDF7D2FF02463B69D31A022B01D90323C1
:1044300020E0124B1B6803F00073002BF0D018E053
:10444000104B00221A60FDF7BFFF386108E0FDF74E
:10445000BBFF02463B69D31A022B01D9032309E0B3
:10446000064B1B6803F00073002BF0D101E0012321
:1044700000E0002318461837BD4680BD00100240FA
:10448000007000406000424280B584B000AF7860A8
:1044900039600023FB60734B1B6803F007023B6825
:1044A0009A4210D26F496F4B1B6823F007023B689A
:1044B00013430B606B4B1B6803F007023B689A4287
:1044C00001D00123C9E07B681B6803F00203002BC5
:1044D00008D06549644B5B6823F0F0027B689B68F9
:1044E00013434B607B681B6803F00103002B6BD008
:1044F0007B685B68012B07D15B4B1B6803F40033BF
:10450000002B15D10123A8E07B685B68022B07D143
:10451000554B1B6803F00073002B09D101239CE06D
:10452000514B1B6803F00203002B01D1012394E0DF
:104530004D494D4B5B6823F003027B685B68134376
:104540004B60FDF741FFF8607B685B68012B12D17F
:104550000AE0FDF739FF0246FB68D31A41F28832C0
:10456000934201D9032378E03F4B5B6803F00C03CF
:10457000042BEED128E07B685B68022B12D10AE0A5
:10458000FDF722FF0246FB68D31A41F288329342BC
:1045900001D9032361E0344B5B6803F00C03082B63
:1045A000EED111E00AE0FDF70FFF0246FB68D31AD7
:1045B00041F28832934201D903234EE02A4B5B68D3
:1045C00003F00C03002BEED1264B1B6803F007020F
:1045D0003B689A4210D92349224B1B6823F00702FB
:1045E0003B6813430B601F4B1B6803F007023B68DB
:1045F0009A4201D0012330E07B681B6803F004037A
:10460000002B08D01849184B5B6823F4E0627B68E4
:10461000DB6813434B607B681B6803F00803002BC7
:1046200009D01149104B5B6823F460527B681B6909
:10463000DB0013434B6000F01DF801460A4B5B683A
:1046400003F0F0031B09094AD35C21FA03F3084A7B
:1046500013600020FCF772FD002318461037BD469A
:1046600080BD00BF0020024000100240E059000859
:104670000000002090B48AB000AF2B4B3C1D18689E
:1046800059689A68DB680FC4284A3B4612881A802A
:104690000023FB610023BB6100237B6200237B615D
:1046A00000233B62224B5B68FB61FB6903F00C0358
:1046B000042B02D0082B03D02DE01E4B3B622DE0D3
:1046C000FB6903F470139B0C07F12802134413F8E1
:1046D000243C7B61FB6903F48033002B13D0144B23
:1046E0005B6803F400335B0C07F12802134413F8F2
:1046F000283CBB617B690F4A02FB03F2BB69B2FB3A
:10470000F3F37B6204E07B690B4A02FB03F37B62F9
:104710007B6A3B6202E0074B3B6200BF3B6A184684
:104720002837BD4690BC7047CC590008DC590008BA
:104730000010024000127A0000093D0080B400AF72
:10474000034B1B681846BD465DF8047B704700BFED
:104750000000002080B500AFFFF7F0FF0146054BD9
:104760005B6803F4E0631B0A034AD35C21FA03F39A
:10477000184680BD00100240F059000880B500AF17
:10478000FFF7DCFF0146054B5B6803F46053DB0A6F
:10479000034AD35C21FA03F3184680BD001002409F
:1047A000F059000880B483B000AF786039607B684E
:1047B0000F221A60114B5B6803F003027B685A609A
:1047C0000E4B5B6803F0F0027B689A600B4B5B68F2
:1047D00003F4E0627B68DA60084B5B6803F46053C3
:1047E000DA087B681A61064B1B6803F007023B6816
:1047F0001A600C37BD465DF8047B7047001002401C
:104800000020024080B485B000AF78600A4B1B687E
:104810000A4AA2FB03235B0A7A6802FB03F3FB60EC
:1048200000BFFB685A1EFA60002BF9D11437BD4651
:104830005DF8047B704700BF00000020D34D62107C
:1048400080B586B000AF786000233B610023FB6039
:104850007B681B6803F00103002B7DD00023FB75F0
:104860004F4BDB6903F08053002B0DD14C4A4C4B6E
:10487000DB6943F08053D361494BDB6903F080531C
:10488000BB60BB680123FB75464B1B6803F4807358
:10489000002B18D1434A434B1B6843F480731360C9
:1048A000FDF792FD386108E0FDF78EFD02463B6999
:1048B000D31A642B01D903236DE03A4B1B6803F430
:1048C0008073002BF0D0364B1B6A03F44073FB60FF
:1048D000FB68002B2ED07B685B6803F44072FB689A
:1048E0009A4227D02E4B1B6A23F44073FB602E4B59
:1048F00001221A602C4B00221A60294AFB681362BD
:10490000FB6803F00103002B14D0FDF75DFD386157
:104910000AE0FDF759FD02463B69D31A41F288329D
:10492000934201D9032336E01D4B1B6A03F00203B7
:10493000002BEED01A491A4B1B6A23F440727B6895
:104940005B6813430B62FB7D012B05D1144A144BAA
:10495000DB6923F08053D3617B681B6803F002039B
:10496000002B08D00E490E4B5B6823F440427B6855
:104970009B6813434B607B681B6803F01003002B9C
:1049800008D00749064B5B6823F480027B68DB682C
:1049900013434B60002318461837BD4680BD00BF47
:1049A00000100240007000404004424280B582B0D6
:1049B00000AF78607B68002B01D101231DE07B688C
:1049C00093F83D30DBB2002B06D17B68002283F8E0
:1049D0003C20786800F016F87B68022283F83D20BE
:1049E0007B681A687B6804331046194600F052FA57
:1049F0007B68012283F83D20002318460837BD4616
:104A000080BD00BF80B483B000AF78600C37BD4676
:104A10005DF8047B704700BF80B483B000AF78605E
:104A20007B681B687A681268D26842F00102DA601B
:104A30007B681B687A681268126842F001021A608B
:104A4000002318460C37BD465DF8047B704700BF55
:104A500080B582B000AF78607B68002B01D1012364
:104A60001DE07B6893F83D30DBB2002B06D17B68FC
:104A7000002283F83C207868FCF738FA7B68022231
:104A800083F83D207B681A687B680433104619461A
:104A900000F000FA7B68012283F83D2000231846CD
:104AA0000837BD4680BD00BF80B582B000AF7860DA
:104AB0007B681B681B6903F00203002B22D07B6814
:104AC0001B68DB6803F00203002B1BD07B681B68AC
:104AD0006FF002021A617B6801221A777B681B68FB
:104AE0009B6903F00303002B03D0786800F0B4F94E
:104AF00005E0786800F0A6F9786800F0B7F97B68FF
:104B000000221A777B681B681B6903F00403002BE3
:104B100022D07B681B68DB6803F00403002B1BD0EA
:104B20007B681B686FF004021A617B6802221A77A7
:104B30007B681B689B6903F44073002B03D0786883
:104B400000F08AF905E0786800F07CF9786800F0F8
:104B50008DF97B6800221A777B681B681B6903F05C
:104B60000803002B22D07B681B68DB6803F0080376
:104B7000002B1BD07B681B686FF008021A617B68F2
:104B800004221A777B681B68DB6903F00303002BA0
:104B900003D0786800F060F905E0786800F052F919
:104BA000786800F063F97B6800221A777B681B68DD
:104BB0001B6903F01003002B22D07B681B68DB68A5
:104BC00003F01003002B1BD07B681B686FF01002F2
:104BD0001A617B6808221A777B681B68DB6903F41B
:104BE0004073002B03D0786800F036F905E0786850
:104BF00000F028F9786800F039F97B6800221A770C
:104C00007B681B681B6903F00103002B0ED07B68D7
:104C10001B68DB6803F00103002B07D07B681B686F
:104C20006FF001021A617868FBF7E8FF7B681B6888
:104C30001B6903F08003002B0ED07B681B68DB68C8
:104C400003F08003002B07D07B681B686FF08002A5
:104C50001A61786800F074FB7B681B681B6903F0BD
:104C60004003002B0ED07B681B68DB6803F0400319
:104C7000002B07D07B681B686FF040021A617868D0
:104C800000F0FEF87B681B681B6903F02003002B13
:104C90000ED07B681B68DB6803F02003002B07D075
:104CA0007B681B686FF020021A61786800F03EFB99
:104CB0000837BD4680BD00BF80B584B000AFF86046
:104CC000B9607A60FB6893F83C30012B01D1022374
:104CD000B4E0FB68012283F83C20FB68022283F8E1
:104CE0003D207B680C2B00F29F8001A252F823F03C
:104CF000254D0008294E0008294E0008294E0008BD
:104D0000654D0008294E0008294E0008294E00086C
:104D1000A74D0008294E0008294E0008294E00081A
:104D2000E74D0008FB681B681846B96800F018F9E1
:104D3000FB681B68FA681268926942F008029A617F
:104D4000FB681B68FA681268926922F004029A6193
:104D5000FB681B68FA6812689169BA6812690A43AD
:104D60009A6162E0FB681B681846B96800F064F954
:104D7000FB681B68FA681268926942F400629A61E3
:104D8000FB681B68FA681268926922F480629A6173
:104D9000FB681B68FA6812689169BA6812691202A6
:104DA0000A439A6141E0FB681B681846B96800F045
:104DB000B3F9FB681B68FA681268D26942F008020E
:104DC000DA61FB681B68FA681268D26922F0040293
:104DD000DA61FB681B68FA681268D169BA681269FF
:104DE0000A43DA6121E0FB681B681846B96800F0E5
:104DF00003FAFB681B68FA681268D26942F4006221
:104E0000DA61FB681B68FA681268D26922F4806272
:104E1000DA61FB681B68FA681268D169BA681269BE
:104E200012020A43DA6100E000BFFB68012283F846
:104E30003D20FB68002283F83C20002318461037F1
:104E4000BD4680BD80B483B000AF78600C37BD46EE
:104E50005DF8047B704700BF80B483B000AF78601A
:104E60000C37BD465DF8047B704700BF80B483B04B
:104E700000AF78600C37BD465DF8047B704700BF1B
:104E800080B483B000AF78600C37BD465DF8047B1A
:104E9000704700BF80B485B000AF786039600023F0
:104EA000FB607B681B68FB607B682A4A93420BD0DF
:104EB0007B68B3F1804F07D07B68274A934203D0C9
:104EC0007B68264A934208D1FB6823F07003FB609D
:104ED0003B685B68FA681343FB607B681D4A93423A
:104EE0000BD07B68B3F1804F07D07B681A4A93429E
:104EF00003D07B68194A934208D1FB6823F44073BE
:104F0000FB603B68DB68FA681343FB60FB6823F0D7
:104F10008003FB603B685B69FA681343FB607B6856
:104F2000FA681A603B689A687B68DA623B681A68BC
:104F30007B689A627B68074A934203D13B681A698F
:104F40007B681A637B6801225A611437BD465DF89D
:104F5000047B7047002C0140000400400008004022
:104F600080B487B000AF786039600023FB60002315
:104F70007B6100233B617B681B6A23F001027B6835
:104F80001A627B681B6A7B617B685B683B617B683C
:104F90009B69FB60FB6823F07003FB60FB6823F0F8
:104FA0000303FB603B681B68FA681343FB607B6983
:104FB00023F002037B613B689B687A6913437B6142
:104FC0007B681C4A93420CD17B6923F008037B6108
:104FD0003B68DB687A6913437B617B6923F00403D8
:104FE0007B617B68134A934211D13B6923F4807340
:104FF0003B613B6923F400733B613B685B693A6941
:1050000013433B613B689B693A6913433B617B688F
:105010003A695A607B68FA689A613B685A687B68AB
:105020005A637B687A691A621C37BD465DF8047B57
:10503000704700BF002C014080B487B000AF78609B
:1050400039600023FB6000237B6100233B617B68A8
:105050001B6A23F010027B681A627B681B6A7B6103
:105060007B685B683B617B689B69FB60FB6823F442
:10507000E043FB60FB6823F44073FB603B681B6804
:105080001B02FA681343FB607B6923F020037B61FA
:105090003B689B681B017A6913437B617B681D4AEF
:1050A00093420DD17B6923F080037B613B68DB6811
:1050B0001B017A6913437B617B6923F040037B61A9
:1050C0007B68144A934213D13B6923F480633B61AC
:1050D0003B6923F400633B613B685B699B003A6971
:1050E00013433B613B689B699B003A6913433B61F7
:1050F0007B683A695A607B68FA689A613B685A68CB
:105100007B689A637B687A691A621C37BD465DF8D2
:10511000047B7047002C014080B487B000AF7860FA
:1051200039600023FB6000237B6100233B617B68C7
:105130001B6A23F480727B681A627B681B6A7B613E
:105140007B685B683B617B68DB69FB60FB6823F025
:105150007003FB60FB6823F00303FB603B681B6884
:10516000FA681343FB607B6923F400737B613B683F
:105170009B681B027A6913437B617B681D4A9342DB
:105180000DD17B6923F400637B613B68DB681B0204
:105190007A6913437B617B6923F480637B617B685D
:1051A000144A934213D13B6923F480533B613B691A
:1051B00023F400533B613B685B691B013A6913436D
:1051C0003B613B689B691B013A6913433B617B6808
:1051D0003A695A607B68FA68DA613B685A687B68AA
:1051E000DA637B687A691A621C37BD465DF8047B16
:1051F000704700BF002C014080B487B000AF7860DA
:10520000396000233B610023FB6000237B617B68E6
:105210001B6A23F480527B681A627B681B6AFB60FE
:105220007B685B687B617B68DB693B613B6923F47E
:10523000E0433B613B6923F440733B613B681B687F
:105240001B023A6913433B61FB6823F40053FB6084
:105250003B689B681B03FA681343FB607B680F4A3B
:10526000934209D17B6923F480437B613B685B698E
:105270009B017A6913437B617B687A695A607B681A
:105280003A69DA613B685A687B681A647B68FA6835
:105290001A621C37BD465DF8047B7047002C014044
:1052A00080B483B000AF786039607B6893F83C309D
:1052B000012B01D1022332E07B68012283F83C20DC
:1052C0007B68022283F83D207B681B687A6812683D
:1052D000526822F070025A607B681B687A68126814
:1052E00051683A6812680A435A607B681B687A689A
:1052F0001268926822F080029A607B681B687A6864
:10530000126891683A6852680A439A607B68012281
:1053100083F83D207B68002283F83C200023184658
:105320000C37BD465DF8047B704700BF80B483B086
:1053300000AF78600C37BD465DF8047B704700BF56
:1053400080B483B000AF78600C37BD465DF8047B55
:10535000704700BF80B582B000AF78607B68002BDB
:1053600001D101233FE07B6893F83930DBB2002B99
:1053700006D17B68002283F838207868FBF7ECFDC3
:105380007B68242283F839207B681B687A6812685E
:10539000D26822F40052DA60786800F06BF97B681A
:1053A0001B687A681268126922F490421A617B685D
:1053B0001B687A681268526922F02A025A617B6877
:1053C0001B687A681268D26842F40052DA607B681F
:1053D0000022DA637B68202283F839207B68202250
:1053E00083F83A20002318460837BD4680BD00BF29
:1053F00090B587B000AFF860B9601346FB80FB68DA
:1054000093F83930DBB2202B56D1BB68002B02D089
:10541000FB88002B01D101234FE0FB6893F8383063
:10542000012B01D1022348E0FB68012283F83820D8
:10543000BA68FB681A62FB68FA889A84FB68FA8883
:10544000DA84FB680022DA63FB68212283F83920C2
:10545000FB681B6B1B4A9A62FB681B6B1A4ADA6279
:10546000FB681B6B194A1A63FB681B6B00225A63AB
:1054700007F108037B61FB68196B7B691A68FB689D
:105480001B6804331C46FB88084611462246FDF77C
:105490003DFBFB681B686FF040021A60FB6800224E
:1054A00083F83820FB681B68FA681268526942F07A
:1054B00080025A61002300E0022318461C37BD46D3
:1054C00090BD00BF0D5500085D55000879550008D6
:1054D00080B483B000AF78600C37BD465DF8047BC4
:1054E000704700BF80B483B000AF78600C37BD4612
:1054F0005DF8047B704700BF80B483B000AF786074
:105500000C37BD465DF8047B704700BF80B584B0A2
:1055100000AF78607B685B6AFB607B681B681B6818
:1055200003F02003002B13D1FB680022DA84FB6810
:105530001B68FA681268526922F080025A61FB689F
:105540001B68FA681268D26842F04002DA6002E032
:10555000F868FFF7BDFF1037BD4680BD80B584B049
:1055600000AF78607B685B6AFB60F868FFF7BAFFA2
:105570001037BD4680BD00BF80B584B000AF7860F5
:105580000023FB607B685B6ABB60BB681B685B6970
:1055900003F08003002B14BF01230023DBB2FB6068
:1055A000BB6893F83930DBB2212B08D1FB68002BA4
:1055B00005D0BB680022DA84B86800F027F8BB6821
:1055C0001B685B6903F04003002B14BF0123002319
:1055D000DBB2FB60BB6893F83A30DBB2222B08D118
:1055E000FB68002B05D0BB680022DA85B86800F0A4
:1055F00023F8BB68DB6B43F01002BB68DA63B86862
:10560000FFF77AFF1037BD4680BD00BF80B483B07E
:1056100000AF78607B681B687A681268D26822F0F5
:10562000C002DA607B68202283F839200C37BD463F
:105630005DF8047B704700BF80B483B000AF786032
:105640007B681B687A681268D26822F49072DA600C
:105650007B681B687A681268526922F001025A61FD
:105660007B68202283F83A200C37BD465DF8047B26
:10567000704700BFF0B585B000AF78600023FB60D5
:105680007B681B687A681268126922F440517A6854
:10569000D2680A431A617B689A687B681B691A435F
:1056A0007B685B691343FA681343FB607B681A6885
:1056B0007B681B68DB6823F4B05323F00C03F968A4
:1056C0000B43D3607B681B687A681268526922F4C6
:1056D00040717A6892690A435A617B681B686E4A16
:1056E00093426BD17B681C68FFF748F8024613466B
:1056F0009B0013449A001A447B685B689B00B2FBD2
:10570000F3F3664AA2FB03235B091D01FFF736F89A
:10571000024613469B0013449A001A447B685B6858
:105720009B00B2FBF3F6FFF729F8024613469B00F5
:1057300013449A001A447B685B689B00B2FBF3F346
:10574000564AA2FB03235B09642202FB03F3F31A0C
:105750001B013233514AA2FB03235B0903F0F00320
:105760001D44FFF70BF8024613469B0013449A00B2
:105770001A447B685B689B00B2FBF3F6FEF7FEFF02
:10578000024613469B0013449A001A447B685B68E8
:105790009B00B2FBF3F3414AA2FB03235B096422A3
:1057A00002FB03F3F31A1B0132333C4AA2FB03232F
:1057B0005B0903F00F032B44A3606AE07B681C685D
:1057C000FEF7C8FF024613469B0013449A001A4492
:1057D0007B685B689B00B2FBF3F3304AA2FB0323B8
:1057E0005B091D01FEF7B6FF024613469B001344FA
:1057F0009A001A447B685B689B00B2FBF3F6FEF7E5
:10580000A9FF024613469B0013449A001A447B6882
:105810005B689B00B2FBF3F3204AA2FB03235B0906
:10582000642202FB03F3F31A1B0132331B4AA2FB6F
:1058300003235B0903F0F0031D44FEF78BFF0246D0
:1058400013469B0013449A001A447B685B689B00D4
:10585000B2FBF3F6FEF77EFF024613469B001344AD
:105860009A001A447B685B689B00B2FBF3F30B4A17
:10587000A2FB03235B09642202FB03F3F31A1B015F
:105880003233064AA2FB03235B0903F00F032B44C8
:10589000A3601437BD46F0BD003801401F85EB51B1
:1058A000002103E00B4B5B58435004310A480B4B7B
:1058B00042189A42F6D30A4A02E0002342F8043B17
:1058C000084B9A42F9D3FBF7E9FC00F00FF8FAF71E
:1058D0002DFF7047005A0008000000200C00002037
:1058E0000C000020F0100020FEE700000E4B70B509
:1058F0001E460E4C0025E41AA410A54204D056F80A
:10590000253098470135F8E700F016F8084B094CA8
:105910001E46E41AA4100025A54204D056F82530EE
:1059200098470135F8E770BDF8590008F8590008A4
:10593000F8590008FC590008F8B500BFF8BC08BCCD
:105940009E467047F8B500BFF8BC08BC9E4670473D
:1059500074656D72657475726500000050590008B9
:10596000290C00080000000000000000800000007A
:10597000636F6D70757465725472616E736D697466
:1059800074657200705900085D0C0008000000008A
:1059900000000000800000002E2E2F5372632F6D38
:1059A00061696E2E630000002E2E2F5372632F73D9
:1059B000746D3332663178785F68616C5F6D7370D7
:1059C0002E63000049444C4500000000020304051A
:1059D000060708090A0B0C0D0E0F101001024100FA
:1059E000000000000000000001020304060708098F
:0859F0000000000001020304A5
:0459F8007D01000825
:0459FC005501000849
:0C5A000000A24A04AAAAAAAA0100000001
:04000005080058A1F6
:00000001FF
