:020000040800F2
:1000000000500020396500081D1C0008291C00084C
:10001000311C0008391C0008411C000800000000C9
:100020000000000000000000000000008121000826
:10003000491C00080000000031230008551C00087E
:1000400081650008816500088165000881650008F8
:1000500081650008816500088165000881650008E8
:10006000816500088165000881650008611C000841
:1000700081650008711C0008811C0008911C0008A3
:10008000A11C0008B11C00088165000881650008FA
:1000900081650008816500088165000881650008A8
:1000A00081650008C11C00088165000881650008A1
:1000B0008165000881650008816500088165000888
:1000C0008165000881650008816500088165000878
:1000D0008165000881650008816500088165000868
:1000E0008165000881650008816500080000000046
:1000F0000000000000000000000000000000000000
:0C01000000000000000000005FF808F1A3
:10011000044B05481B1A062B02D9044B03B11847A0
:10012000704700BF0F0000200C00002000000000FE
:1001300005490648091A891001EBD171491002D00E
:10014000034B03B1184770470C0000200C0000203F
:100150000000000010B5064C237843B9FFF7D8FF24
:10016000044B13B10448AFF300800123237010BD8A
:100170000C00002000000000D065000808B5084B06
:100180001BB108480849AFF300800848036813B959
:10019000BDE80840CCE7064B002BF9D09847F7E7BD
:1001A00000000000D0650008100000200C000020B6
:1001B0000000000080F0004002E000BF81F000413C
:1001C00042001FBF5FEA410392EA030F7FEA226CFD
:1001D0007FEA236C6AD04FEA1262D2EB1363C1BF8D
:1001E000D218414048404140B8BF5B42192B88BFFC
:1001F000704710F0004F40F4000020F07F4018BF1F
:10020000404211F0004F41F4000121F07F4118BF3E
:10021000494292EA030F3FD0A2F1010241FA03FCE6
:1002200010EB0C00C3F1200301FA03F100F00043CE
:1002300002D5494260EB4000B0F5000F13D3B0F196
:10024000807F06D340084FEA310102F10102FE2A05
:1002500051D2B1F1004F40EBC25008BF20F0010075
:1002600040EA03007047490040EB000010F4000F23
:10027000A2F10102EDD1B0FA80FCACF1080CB2EBB6
:100280000C0200FA0CF0AABF00EBC2505242184315
:10029000BCBFD0401843704792F0000F81F40001BA
:1002A00006BF80F400000132013BB5E74FEA41038D
:1002B0007FEA226C18BF7FEA236C21D092EA030FF9
:1002C00004D092F0000F08BF0846704790EA010F73
:1002D0001CBF0020704712F07F4F04D1400028BFA0
:1002E00040F00040704712F100723CBF00F5000082
:1002F000704700F0004343F0FE4040F400007047B8
:100300007FEA226216BF08467FEA23630146420263
:1003100006BF5FEA412390EA010F40F48000704776
:100320004FF0000304E000BF10F0004348BF40421C
:100330005FEA000C08BF704743F0964301464FF058
:1003400000001CE050EA010208BF70474FF00003B4
:100350000AE000BF50EA010208BF704711F00043F5
:1003600002D5404261EB41015FEA010C02BF8446C5
:100370000146002043F0B64308BFA3F18053A3F524
:100380000003BCFA8CF2083AA3EBC25310DB01FA6B
:1003900002FC634400FA02FCC2F12002BCF1004FEF
:1003A00020FA02F243EB020008BF20F00100704780
:1003B00002F1200201FA02FCC2F1200250EA4C00D4
:1003C00021FA02F243EB020008BF20EADC7070471A
:1003D0004FF0FF0C1CEAD0521EBF1CEAD15392EA28
:1003E0000C0F93EA0C0F6FD01A4480EA010C400204
:1003F00018BF5FEA41211ED04FF0006343EA50105E
:1004000043EA5111A0FB01310CF00040B1F5000F9F
:100410003EBF490041EAD3715B0040EA010062F14E
:100420007F02FD2A1DD8B3F1004F40EBC25008BF38
:1004300020F00100704790F0000F0CF0004C08BF56
:1004400049024CEA502040EA51207F3AC2BFD2F123
:10045000FF0340EAC250704740F400004FF0000331
:10046000013A5DDC12F1190FDCBF00F0004070476B
:10047000C2F10002410021FA02F1C2F1200200FAA9
:1004800002FC5FEA310040F1000053EA4C0308BF70
:1004900020EADC70704792F0000F00F0004C02BFC1
:1004A000400010F4000F013AF9D040EA0C0093F03C
:1004B000000F01F0004C02BF490011F4000F013B96
:1004C000F9D041EA0C018FE70CEAD15392EA0C0F04
:1004D00018BF93EA0C0F0AD030F0004C18BF31F06F
:1004E000004CD8D180EA010000F00040704790F045
:1004F000000F17BF90F0004F084691F0000F91F0E9
:10050000004F14D092EA0C0F01D142020FD193EAAE
:100510000C0F03D14B0218BF084608D180EA010036
:1005200000F0004040F0FE4040F40000704740F012
:10053000FE4040F4400070474FF0FF0C1CEAD052E0
:100540001EBF1CEAD15392EA0C0F93EA0C0F69D03C
:10055000A2EB030280EA010C49024FEA402037D0A7
:100560004FF0805343EA111143EA10130CF000409E
:100570008B4238BF5B0042F17D024FF4000C8B428E
:1005800024BF5B1A40EA0C00B3EB510F24BFA3EB6E
:10059000510340EA5C00B3EB910F24BFA3EB91033E
:1005A00040EA9C00B3EBD10F24BFA3EBD10340EA98
:1005B000DC001B0118BF5FEA1C1CE0D1FD2A3FF6DE
:1005C00050AF8B4240EBC25008BF20F00100704793
:1005D0000CF0004C4CEA50207F32C2BFD2F1FF0336
:1005E00040EAC250704740F400004FF00003013A67
:1005F00037E792F0000F00F0004C02BF400010F40B
:10060000000F013AF9D040EA0C0093F0000F01F01E
:10061000004C02BF490011F4000F013BF9D041EA40
:100620000C0195E70CEAD15392EA0C0F08D1420273
:100630007FF47DAF93EA0C0F7FF470AF084676E746
:1006400093EA0C0F04D14B023FF44CAF08466EE71F
:1006500030F0004C18BF31F0004CCAD130F00042ED
:100660007FF45CAF31F000437FF43CAF5FE700BF45
:1006700080B584B002AF786000BFEE239BB2192230
:10068000009278681946074A012303F0DDFB034610
:10069000002BF2D148237868194600F015F9083785
:1006A000BD4680BD7366000880B586B002AF786035
:1006B000396000BFEE239BB2192200927868194678
:1006C0007B4A012303F0C0FB0346002BF2D100BF9D
:1006D000EE239AB21923194607F10C0300917868AA
:1006E00011461A46022303F0BDFC0346002BEFD14E
:1006F0003B7B1B029AB27B7B9BB213439BB29AB2A9
:100700003B681A8000BFEE239BB2192200927868E2
:100710001946684A012303F097FB0346002BF2D1E8
:1007200000BFEE239AB21923194607F10C0300917A
:10073000786811461A46022303F094FC0346002B06
:10074000EFD13B6802333A7B120291B27A7B92B2CC
:100750000A4392B292B21A8000BFEE239BB21922D2
:10076000009278681946544A012303F06DFB034652
:10077000002BF2D100BFEE239AB21923194607F1DC
:100780000C030091786811461A46022303F06AFCB4
:100790000346002BEFD13B6804333A7B120291B23F
:1007A0007A7B92B20A4392B292B21A8000BFEE23D1
:1007B0009BB21922009278681946404A012303F03F
:1007C00043FB0346002BF2D100BFEE239AB219235C
:1007D000194607F10C030091786811461A46022366
:1007E00003F040FC0346002BEFD13B6806333A7B15
:1007F000120291B27A7B92B20A4392B292B21A80FA
:1008000000BFEE239BB219220092786819462C4A49
:10081000012303F019FB0346002BF2D100BFEE23A6
:100820009AB21923194607F10C0300917868114612
:100830001A46022303F016FC0346002BEFD13B6857
:1008400008333A7B120291B27A7B92B20A4392B297
:1008500092B21A8000BFEE239BB2192200927868F0
:100860001946184A012303F0EFFA0346002BF2D190
:1008700000BFEE239AB21923194607F10C03009129
:10088000786811461A46022303F0ECFB0346002B5E
:10089000EFD13B680A333A7B120291B27A7B92B273
:1008A0000A4392B292B21A801037BD4680BD00BF93
:1008B00076660008776600087866000879660008A2
:1008C0007A6600087B66000880B584B002AF786065
:1008D0000B46FB7000BFEE239AB219231946FB1C8E
:1008E0000091786811461A46012303F0ADFA0346D9
:1008F000002BF0D10837BD4680BD00BF80B586B063
:1009000002AF7860396000BFEE239BB219220092DB
:1009100078681946124A012303F096FA0346002B21
:10092000F2D100BFEE239AB21923194607F10C0346
:100930000091786811461A46032303F093FB03469F
:10094000002BEFD13B7B1A047B7B1B021343BA7B4A
:1009500013431A463B681A601037BD4680BD00BF7E
:100960007266000880B582B000AF7860786800F0E9
:100970000FF87868002100F027F87868002100F06F
:1009800041F87868002100F085F80837BD4680BD41
:1009900080B586B002AF78606B233B7300237B7316
:1009A00000BFD0239AB21923194607F10C03009116
:1009B000786811461A46022303F046FA0346002BD4
:1009C000EFD11037BD4680BD80B586B002AF7860EC
:1009D0000B46FB7019233B73FB787B7300BFD0235E
:1009E0009AB21923194607F10C0300917868114651
:1009F0001A46022303F028FA0346002BEFD11037E2
:100A0000BD4680BD80B586B002AF78600B46FB70F6
:100A100000BFD0239BB219220092786819461C4A65
:100A2000012303F011FA0346002BF2D100BFD023BB
:100A30009AB21923194607F10F03009178681146FD
:100A40001A46012303F00EFB0346002BEFD1FB7B7C
:100A5000DBB223F01803DAB2FB78DB00DBB213431E
:100A6000DBB2DBB2FB7300BFD0239AB21923194665
:100A700007F10F030091786811461A46012303F02D
:100A8000E3F90346002BEFD11037BD4680BD00BF10
:100A90007C66000880B586B002AF78600B46FB70BC
:100AA00000BFD0239BB219220092786819461C4AD5
:100AB000012303F0C9F90346002BF2D100BFD02374
:100AC0009AB21923194607F10F030091786811466D
:100AD0001A46012303F0C6FA0346002BEFD1FB7B35
:100AE000DBB223F01803DAB2FB78DB00DBB213438E
:100AF000DBB2DBB2FB7300BFD0239AB219231946D5
:100B000007F10F030091786811461A46012303F09C
:100B10009BF90346002BEFD11037BD4680BD00BFC7
:100B20007D66000880B586B002AF7860396000BF8E
:100B3000D0239BB219220092786819461B4A0123E0
:100B400003F082F90346002BF2D100BFD0239AB202
:100B50001923194607F108030091786811461A46CF
:100B6000062303F07FFA0346002BEFD13B7A1B02EA
:100B70009AB27B7A9BB213439AB23B681A803B6865
:100B80000233BA7A120291B2FA7A92B20A4392B25C
:100B90001A803B6804333A7B120291B27A7B92B29C
:100BA0000A4392B21A801037BD4680BD7E660008A7
:100BB00080B586B002AF7860396000BFD0239BB2A9
:100BC00019220092786819461B4A012303F03CF968
:100BD0000346002BF2D100BFD0239AB21923194645
:100BE00007F108030091786811461A46062303F0BE
:100BF00039FA0346002BEFD13B7A1B029AB27B7A7B
:100C00009BB213439AB23B681A803B680233BA7AAC
:100C1000120291B2FA7A92B20A4392B21A803B68F7
:100C200004333A7B120291B27A7B92B20A4392B2B7
:100C30001A801037BD4680BD7F66000880B582B03F
:100C400000AF78607868002100F09CF87868042193
:100C500000F008F87868012100F04CF80837BD462C
:100C600080BD00BF80B586B002AF78600B46FB70D8
:100C700000BFD0239BB219220092786819461C4A03
:100C8000012303F0E1F80346002BF2D100BFD0238B
:100C90009AB21923194607F10F030091786811469B
:100CA0001A46012303F0DEF90346002BEFD1FB7B4C
:100CB000DBB223F01C03DAB2FB789B00DBB21343F8
:100CC000DBB2DBB2FB7300BFD0239AB21923194603
:100CD00007F10F030091786811461A46012303F0CB
:100CE000B3F80346002BEFD11037BD4680BD00BFDF
:100CF0008066000880B586B002AF78600B46FB7056
:100D000000BFD0239BB219220092786819461C4A72
:100D1000012303F099F80346002BF2D100BFD02342
:100D20009AB21923194607F10F030091786811460A
:100D30001A46012303F096F90346002BEFD1FB7B03
:100D4000DBB203F01F03DAB2FB785B01DBB21343C3
:100D5000DBB2DBB2FB7300BFD0239AB21923194672
:100D600007F10F030091786811461A46012303F03A
:100D70006BF80346002BEFD11037BD4680BD00BF96
:100D80008166000880B586B002AF78600B46FB70C4
:100D9000D0239BB21922009278681946214A012378
:100DA00003F052F80346FB7300BFD0239BB2192215
:100DB0000092786819461B4A012303F045F8034660
:100DC000002BF2D100BFD0239AB21923194607F1A4
:100DD0000E030091786811461A46012303F042F988
:100DE0000346002BEFD1BB7BDBB223F00303DAB267
:100DF000FB781343DBB2DBB2BB7300BFD0239AB2E4
:100E00001923194607F10E030091786811461A4616
:100E1000012303F019F80346002BEFD11037BD462C
:100E200080BD00BF8266000890B587B002AF7860D1
:100E30003960D0239BB219221446786819460522DE
:100E4000234603F049FB0346FB73D0239BB21922D0
:100E5000009278681946244A012302F0F5FF034600
:100E6000FB7300BFD0239BB2192200927868194609
:100E70001D4A012302F0E8FF0346002BF2D100BF18
:100E8000D0239AB21923194607F108030091786814
:100E900011461A46062303F0E5F80346002BEFD16E
:100EA0003B7A1B02DAB27B7ADBB21343DBB2DAB2F3
:100EB0003B681A703B680133BA7A1202D1B2FA7AEF
:100EC000D2B20A43D2B2D2B21A703B6802333A7B32
:100ED0001202D1B27A7BD2B20A43D2B2D2B21A7023
:100EE0001437BD4690BD00BF83660008B0B58AB018
:100EF00000AF1E4B0F221A701C4B002283F83120CA
:100F000002F034F800F03CF800F040FA00F0FAF992
:100F100000F0F6F800F096F900F0C6F900F022F9BA
:100F200000F086F8124B07F114041D460FCD0FC4D4
:100F30002B68236007F114031846002101F074FAAE
:100F400002460C4B1A600C4B3C461D460FCD0FC49D
:100F50002B6823603B461846002101F065FA0246E3
:100F6000064B1A6001F058FAFEE700BFFC0F0020A4
:100F7000FC650008740E002018660008540E00205E
:100F800080B594B000AF0223BB620123BB63102382
:100F9000FB6300237B6407F12803184603F0BEFEC1
:100FA0000346002B03D02048E72100F041FA0F232D
:100FB0007B610023BB610023FB6100233B620023B4
:100FC0007B6207F114031846002104F009F9034677
:100FD000002B03D01448F52100F02AFA02237B608D
:100FE0000023FB603B1D184604F0D6FA0346002B95
:100FF00003D00D48FC2100F01BFA04F04BFA024626
:101000000A4BA3FB02239B09184602F0E9FA0420CD
:1010100002F0F2FA4FF0FF300F21002202F0B6FA90
:101020005037BD4680BD00BF2C660008D34D62100E
:1010300080B584B000AF2F4B2F4A1A602D4B4FF470
:1010400080729A602B4B0122DA602A4B00225A618F
:10105000284B4FF46022DA61264B00225A60254B60
:1010600003221A61234801F0B5FF0346002B04D088
:1010700022484FF48E7100F0DBF903237B600123DB
:10108000BB600023FB603B1D1A48194602F07AF84A
:101090000346002B04D019484FF4937100F0C8F9AF
:1010A00004237B600223BB600023FB603B1D1148CF
:1010B000194602F067F80346002B04D00F484FF49E
:1010C000977100F0B5F905237B600323BB60002313
:1010D000FB603B1D0748194602F054F80346002BFD
:1010E00004D006484FF49B7100F0A2F91037BD46BA
:1010F00080BD00BF000F0020002401402C660008C6
:1011000080B500AF134B144A1A60124B134A5A6051
:10111000104B00229A600F4B0022DA600D4B4FF407
:1011200080421A610B4B00225A610A4B00229A61DD
:10113000084B0022DA61074B00221A62054802F0D0
:101140007FFD0346002B04D005484FF4A57100F045
:101150006FF980BD000E002000540040A086010001
:101160002C66000880B58AB000AF344B4FF0804247
:101170001A60324B01225A60304B00229A602F4B8A
:101180004EF6CF02DA602D4B00221A612B4B002263
:101190009A612A4804F008FB0346002B04D0284833
:1011A0004FF4AF7100F044F900233B6200237B62EF
:1011B00007F120032148194604F01EFF0346002BC7
:1011C00004D01F4840F2651100F032F960237B60C3
:1011D0000023BB600023FB6000237B613B1D17489D
:1011E0001946002204F014FC0346002B04D01448D6
:1011F0004FF4B77100F01CF93B1D1048194604224A
:1012000004F006FC0346002B04D00D4840F2731195
:1012100000F00EF93B1D09481946082204F0F8FBBE
:101220000346002B04D006484FF4BC7100F000F9CF
:10123000024800F091FB2837BD4680BD9C1000207D
:101240002C66000880B500AF134B144A1A60124B8D
:10125000134A5A60104B4FF480529A600E4B4FF471
:101260000052DA600C4B4FF480621A610A4B0C2278
:101270005A61094B00229A61074B0022DA61064845
:1012800004F014FF0346002B04D0064840F28D11F1
:1012900000F0CEF880BD00BF740F00200038014080
:1012A000A08601002C66000880B500AF124B134ADF
:1012B0001A60114B4FF4E1325A600F4B00229A60D2
:1012C0000D4B0022DA600C4B00221A610A4B0C22F3
:1012D0005A61094B00229A61074B0022DA610648E5
:1012E00004F0E4FE0346002B04D005484FF4D0710F
:1012F00000F09EF880BD00BF780D0020004800403F
:101300002C66000880B582B000AF1F4A1E4B5B6997
:1013100043F0010353611C4B5B6903F001037B60E5
:101320007B680B200521002202F030F90B2002F02F
:1013300049F90D200521002202F028F90D2002F0C4
:1013400041F90E200521002202F020F90E2002F0C2
:1013500039F90F200521002202F018F90F2002F0C0
:1013600031F910200521002202F010F9102002F0BE
:1013700029F911200521002202F008F9112002F0BC
:1013800021F90837BD4680BD0010024080B588B005
:1013900000AF1D4A1C4B9B6943F0100393611A4B2D
:1013A0009B6903F01003FB60FB68174A164B9B69AF
:1013B00043F004039361144B9B6903F00403BB6087
:1013C000BB68114A104B9B6943F0080393610E4BB5
:1013D0009B6903F008037B607B680C484FF4005165
:1013E000002202F003FC4FF400533B6101237B61B8
:1013F0000223FB6107F110030448194602F098FA32
:101400002037BD4680BD00BF0010024000100140E3
:1014100080B582B000AF78607B681B68034A934256
:1014200001D101F0B9FD0837BD4680BD002C014057
:1014300080B483B000AF78603960FEE790B593B0B8
:1014400000AF78607F48FFF7F9FB7E48FFF78AFA24
:101450007C48FFF70DF9462387F84730562387F875
:10146000463007F1140377481946FFF71DF907F1D5
:10147000280374481946FFF755FB734C3B8D1BB28C
:101480001846FEF751FF034618467049FEF7A0FFC5
:10149000034618466E49FEF79BFF034623606D4CDA
:1014A0007B8D1BB21846FEF73FFF0346184667497F
:1014B000FEF78EFF034618466549FEF789FF03468F
:1014C0002360654CBB8D1BB21846FEF72DFF03460B
:1014D00018465E49FEF77CFF034618465C49FEF756
:1014E00077FF0346236007F1280356481946FFF7A4
:1014F0005FFB5A4C3B8D1BB21846FEF715FF0346A7
:1015000018465749FEF764FF03462360554C7B8D10
:101510001BB21846FEF708FF034618465049FEF76F
:1015200057FF03462360504CBB8D1BB21846FEF795
:10153000FBFE034618464A49FEF74AFF034623606E
:1015400007F128033F481946FFF76EFC474C3B8DD7
:101550001BB21846FEF7E8FE03462360444C7B8D21
:101560001BB21846FEF7E0FE03462360414CBB8DDC
:101570001BB21846FEF7D8FE034623603E4B1B788D
:1015800030481946FFF7A0F9072000F075FF07F172
:1015900020032C481946FFF7B1F9384B1B7829482E
:1015A0001946FFF791F9072000F066FF07F12403C1
:1015B00024481946FFF7A2F93B6ABA8B12029B1A1C
:1015C0003B643B6C9B12FA8B02FB03F35B1303F54A
:1015D000FA63FB637B6ADB09BA8A120992B202FBE7
:1015E00003F39B0AFA8A52009A1A3B6C1B111946A4
:1015F0003B8B1B099BB218467B6ADB0903FB00F39C
:10160000DB0A788B1B1ADB0A03FB01F3DB091344AB
:101610001A464FF00003C7E90C23194CD7E90C0117
:10162000FEF798FE0346236016484FF4005102F07F
:10163000F5FA154B4FF080521A60BFF34F8FBFF38E
:101640006F8F14E7000E0020FD0F002040DA7F3876
:101650000AE81C410110002005100020091000209C
:101660003F1EFA3B0D100020111000201510002025
:10167000191000201D10002075660008746600080F
:10168000291000200010014004ED00E080B582B078
:1016900000AF7860074808493222642304F054FD03
:1016A000064B4FF080521A60BFF34F8FBFF36F8F1E
:1016B000F0E700BF780D0020FC0F002004ED00E0F3
:1016C00080B582B000AF254A244B9B6943F00103EB
:1016D0009361224B9B6903F001033B603B6803204D
:1016E00001F04AFF6FF00B000021002201F04EFFD5
:1016F0006FF00A000021002201F048FF6FF009009E
:101700000021002201F042FF6FF0040000210022BE
:1017100001F03CFF6FF003000021002201F036FFD2
:101720006FF001000F21002201F030FF4FF0FF3079
:101730000F21002201F02AFF094B5B687B607B6868
:1017400023F0E0637B607B6843F000737B60044AB6
:101750007B6853600837BD4680BD00BF0010024063
:101760000000014080B588B000AF78607B681B68DE
:10177000224A93423FD1224A214B9B6943F4007392
:1017800093611F4B9B6903F40073FB60FB68382374
:101790003B6103237B6107F110031A48194602F0ED
:1017A000C7F8194B194A1A60174B00225A60164B9A
:1017B00000229A60144B8022DA60134B4FF480723F
:1017C0001A61114B4FF480625A610F4B00229A61EB
:1017D0000D4B0022DA610C4801F02AFF0346002B72
:1017E00003D00B488B21FFF723FE7B68064A1A6261
:1017F000054A7B6853622037BD4680BD0024014006
:101800000010024000080140B80F0020080002400C
:101810003C66000880B588B000AF78607B681B68C4
:10182000374A934269D1C0233B6112237B61032372
:10183000FB6107F110033348194602F079F8324A88
:10184000314BDB6943F40013D3612F4BDB6903F4A5
:101850000013FB60FB682D4B2D4A1A602B4B0022B6
:101860005A602A4B00229A60284B8022DA60274B6C
:1018700000221A61254B00225A61244B00229A61F2
:10188000224B4FF44052DA61204801F0D1FE03466A
:10189000002B03D01F48D421FFF7CAFD7B681B4AE9
:1018A0009A631A4A7B6853621B4B1C4A1A601A4B94
:1018B00010225A60184B00229A60174B8022DA607F
:1018C000154B00221A61144B00225A61124B002260
:1018D0009A61114B4FF44052DA610F4801F0A8FEB3
:1018E0000346002B03D00B48E421FFF7A1FD7B68E2
:1018F000094A5A63084A7B6853622037BD4680BD57
:1019000000540040000C0140001002403010002044
:10191000800002403C660008B80D00206C000240C8
:1019200080B485B000AF78607B681B68B3F1804FEE
:101930000BD1084A074BDB6943F00103D361054B28
:10194000DB6903F00103FB60FB681437BD465DF8FB
:10195000047B70470010024080B586B000AF78600D
:101960007B681B68B3F1804F0BD10723BB60022358
:10197000FB6002237B6107F108030348194601F06D
:10198000D7FF1837BD4680BD0008014080B588B03C
:1019900000AF78607B681B68694A934279D1694AD5
:1019A000684B9B6943F480439361664B9B6903F4E6
:1019B0008043FB60FB684FF400733B6102237B6153
:1019C0000323FB6107F110035F48194601F0B0FFE4
:1019D0004FF480633B6100237B610023BB6107F10F
:1019E00010035948194601F0A3FF584B584A1A6092
:1019F000564B00225A60554B00229A60534B80226E
:101A0000DA60524B00221A61504B00225A614F4B50
:101A100000229A614D4B4FF44052DA614B4801F07D
:101A200007FE0346002B04D04A484FF4B771FFF776
:101A3000FFFC7B68454A5A63444A7B685362464BC5
:101A4000464A1A60444B10225A60434B00229A6067
:101A5000414B8022DA60404B00221A613E4B00224B
:101A60005A613D4B00229A613B4B0022DA613A48B1
:101A700001F0DEFD0346002B04D036484FF4BF7161
:101A8000FFF7D6FC7B68344A1A63334A7B6853629B
:101A900053E07B681B68324A93424ED1294A294B56
:101AA000DB6943F48023D361264BDB6903F4802395
:101AB000BB60BB684FF480633B6102237B610323FF
:101AC000FB6107F110032748194601F031FF4FF47D
:101AD00000633B6100237B610023BB6107F11003BE
:101AE0002048194601F024FF1F4B204A1A601E4B64
:101AF00010225A601C4B00229A601B4B8022DA6035
:101B0000194B00221A61184B00225A61164B002211
:101B10009A61154B0022DA61134801F089FD0346F2
:101B2000002B04D00B4840F2A911FFF781FC7B6821
:101B30000D4A1A630C4A7B6853622037BD4680BD4C
:101B4000003801400010024000080140300F002022
:101B5000580002403C660008BC0E002044000240D1
:101B600000480040000C0140780E00201C0002409C
:101B700080B58CB000AF78600023FB620023BB62AD
:101B800019207968002201F001FD192001F01AFDE9
:101B90001E4A1E4B9B6943F4006393611B4B9B6978
:101BA00003F40063FB60FB6807F1140207F1100304
:101BB0001046194603F0A2FC03F08CFCF862FB6AA5
:101BC000134AA2FB03239B0C013BBB62114B124A3D
:101BD0001A60104B40F2E732DA600E4ABB6A53607B
:101BE0000C4B00221A610B4B00229A60094803F04B
:101BF00089FD0346002B04D1064803F0B9FD0346D6
:101C000000E0012318463037BD4680BD0010024079
:101C100083DE1B43E0100020002C014080B400AFA5
:101C2000BD465DF8047B704780B400AFFEE700BF9F
:101C300080B400AFFEE700BF80B400AFFEE700BF96
:101C400080B400AFFEE700BF80B400AFBD465DF8D2
:101C5000047B704780B500AF00F022FC80BD00BF60
:101C600080B500AF014801F04BFD80BDB80F0020EA
:101C700080B500AF014801F043FD80BD780E002023
:101C800080B500AF014801F03BFD80BDBC0E0020D7
:101C900080B500AF014801F033FD80BD300F00205A
:101CA00080B500AF014801F02BFD80BDB80D0020CC
:101CB00080B500AF014801F023FD80BD3010002049
:101CC00080B500AF014803F09BFD80BDE01000200F
:101CD00080B400AF154A154B1B6843F00103136035
:101CE0001249124B5A68124B13404B600F4A0F4B6C
:101CF0001B6823F0847323F4803313600B4A0B4B6F
:101D00001B6823F480231360084A084B5B6823F4A4
:101D1000FE035360054B4FF41F029A60054B4FF0D2
:101D200000629A60BD465DF8047B70470010024077
:101D30000000FFF800ED00E080B58AB000AF7860E9
:101D40000023FB6100F008FE574B1B68002B01D1FC
:101D500000F00CF9554B1A687B681340002B40F0DB
:101D60008C807B68002B1CD008227B6813447B602E
:101D70007B6803F00703002B13D07B6823F0070375
:101D800008337B607B6803F00703002B09D04FF01A
:101D9000500383F31188BFF36F8FBFF34F8F7B61C5
:101DA000FEE77B68002B68D0414B1B687A689A423B
:101DB00063D8404B3B623F4B1B687B6204E07B6A0D
:101DC0003B627B6A1B687B627B6A5A687B689A42CB
:101DD00003D27B6A1B68002BF1D1334B1B687A6AF4
:101DE0009A424AD03B6A1B6808221344FB617B6A13
:101DF0001A683B6A1A607B6A5A687B68D21A0823A1
:101E00005B009A421ED97A6A7B681344BB61BB6946
:101E100003F00703002B09D04FF0500383F3118820
:101E2000BFF36F8FBFF34F8F3B61FEE77B6A5A684A
:101E30007B68D21ABB695A607B6A7A685A60B86953
:101E400000F0F6F81A4B1A687B6A5B68D31A184AD6
:101E50001360174B1A68184B1B689A4203D2144B35
:101E60001B68154A13607B6A5A68104B1B681A433B
:101E70007B6A5A607B6A00221A6000F07BFDFB6976
:101E800003F00703002B09D04FF0500383F31188B0
:101E9000BFF36F8FBFF34F8FFB60FEE7FB69184600
:101EA0002837BD4680BD00BF300C00203C0C002010
:101EB000340C0020280C0020380C002080B586B09F
:101EC00000AF78607B687B617B68002B46D008237D
:101ED0005B427A6913447B617B693B613B695A6869
:101EE000204B1B681340002B09D14FF0500383F3A4
:101EF0001188BFF36F8FBFF34F8FFB60FEE73B6925
:101F00001B68002B09D04FF0500383F31188BFF3F7
:101F10006F8FBFF34F8FBB60FEE73B695A68114B71
:101F20001B681340002B19D03B691B68002B15D18F
:101F30003B695A680B4B1B68DB431A403B695A608C
:101F400000F00AFD3B695A68074B1B681344064AB8
:101F50001360386900F06CF800F00CFD1837BD46CE
:101F600080BD00BF3C0C0020340C002080B485B044
:101F700000AF4FF44063BB60274BFB60FB6803F08E
:101F80000703002B0CD0FB680733FB60FB6823F0D2
:101F90000703FB60BA68FB68D31A1F4A1344BB608F
:101FA000FB687B601D4A7B6813601C4B00225A60F3
:101FB0007A68BB681344FB600822FB689B1AFB60CD
:101FC000FB6823F00703FB60FB68154A1360144BA2
:101FD0001B6800225A60124B1B6800221A607B6843
:101FE0003B603B68FA68D21A3B685A600C4B1A682F
:101FF0003B681A603B685B680A4A13603B685B6831
:10200000094A1360094B4FF000421A601437BD466D
:102010005DF8047B704700BF28000020280C0020DA
:10202000300C0020380C0020340C00203C0C002028
:1020300080B485B000AF7860274BFB6002E0FB689E
:102040001B68FB60FB681A687B689A42F7D3FB68E1
:10205000BB60FB685B68BA681A447B689A4208D127
:10206000FB685A687B685B681A44FB685A60FB68C7
:102070007B607B68BB607B685B68BA681A44FB68FE
:102080001B689A4218D1FB681A68144B1B689A4265
:102090000DD07B685A68FB681B685B681A447B68D4
:1020A0005A60FB681B681A687B681A6008E00B4B73
:1020B0001A687B681A6003E0FB681A687B681A601C
:1020C000FA687B689A4202D0FB687A681A60143713
:1020D000BD465DF8047B7047280C0020300C0020C2
:1020E00080B485B000AFF860B9607A60FB68043BEB
:1020F000FB60FB684FF080721A60FB68043BFB607A
:10210000BB6823F00102FB681A60FB68043BFB60BC
:10211000094AFB681A60FB68143BFB607A68FB683D
:102120001A60FB68203BFB60FB6818461437BD460D
:102130005DF8047B704700BF3D21000880B483B088
:1021400000AF0C4B1B68B3F1FF3F09D04FF05003B9
:1021500083F31188BFF36F8FBFF34F8F7B60FEE770
:102160004FF0500383F31188BFF36F8FBFF34F8F8E
:102170003B60FEE7040000200000000000000000BB
:10218000074B19680868B0E8F00F80F30988BFF3BF
:102190006F8F4FF0000080F311884EF00D0E7047E6
:1021A000480C002006480068006880F3088862B682
:1021B00061B6BFF34F8FBFF36F8F00DF00BF00002A
:1021C00008ED00E080B584B000AF284BFB60FB68F1
:1021D0001B78DBB2BB60FB68FF221A70FB681B78C0
:1021E000DBB2FB71FB79DBB203F05003DAB2204BB8
:1021F0001A70204B07221A6009E01E4B1B68013B36
:102200001C4A1360FB79DBB25B00DBB2FB71FB792C
:10221000DBB2DBB25BB2002BEFDB164B1B681B02A1
:10222000144A1360134B1B6803F4E063114A1360F4
:10223000BB68DAB2FB681A700F4A0F4B1B6843F495
:10224000700313600C4A0C4B1B6843F0704313601F
:1022500000F0B0F8094B00221A60FFF7A3FFFFF768
:102260006DFF002318461037BD4680BD00E400E036
:10227000400C0020440C002020ED00E00400002071
:1022800080B483B000AF4FF0500383F31188BFF3E5
:102290006F8FBFF34F8F7B600E4B1B6801330D4A6E
:1022A00013600C4B1B68012B0ED10B4B1B68DBB270
:1022B000002B09D04FF0500383F31188BFF36F8FC9
:1022C000BFF34F8F3B60FEE70C37BD465DF8047BE4
:1022D000704700BF0400002004ED00E080B483B02C
:1022E00000AF104B1B68002B09D14FF0500383F354
:1022F0001188BFF36F8FBFF34F8F7B60FEE7094BF1
:102300001B68013B074A1360064B1B68002B04D176
:1023100000233B603B6883F311880C37BD465DF8B2
:10232000047B704704000020000000000000000053
:10233000EFF30980BFF36F8F0D4B1A6820E9F00FA0
:1023400010602DE908404FF0500080F3118800F034
:102350006DFC4FF0000080F31188BDE8084019685B
:102360000868B0E8F00F80F30988BFF36F8F7047FB
:10237000480C002080B582B000AF4FF0500383F3CB
:102380001188BFF36F8FBFF34F8F7B6000F090FB1E
:102390000346002B03D0064B4FF080521A600023F7
:1023A0003B603B6883F311880837BD4680BD00BFA2
:1023B00004ED00E080B400AF074A084B1B680849F1
:1023C000A1FB03139B09013B1360064B07221A6014
:1023D000BD465DF8047B704714E000E0000000207B
:1023E000D34D621010E000E080B485B000AF03462A
:1023F000FB800023FB60B7F90630842B05D0B7F9CA
:102400000620FB6813440333FB60FB68184614374F
:10241000BD465DF8047B704780B500AF00F058FA08
:102420000023184680BD00BFF0B587B002AF7860CA
:1024300039607B685E687B681D687B681B699CB23D
:102440007B681B891BB21846FFF7CEFF034600933B
:1024500007F10C0301933046294622463B6800F001
:10246000DBF80346012B01D0002300E0FB6818468F
:102470001437BD46F0BD00BF80B584B000AF7860B2
:102480007B68FB60FB68002B01D0FB6800E0012348
:10249000184600F0EBF9002318461037BD4680BD02
:1024A00080B500AF00F0E0FC0346012B01D0FFF740
:1024B00061FF80BD80B483B000AF78607B6803F1BA
:1024C00008027B685A607B684FF0FF329A607B6835
:1024D00003F108027B68DA607B6803F108027B681D
:1024E0001A617B6800221A600C37BD465DF8047BD8
:1024F000704700BF80B483B000AF78607B68002273
:102500001A610C37BD465DF8047B704780B485B016
:1025100000AF786039607B685B68FB603B68FA6895
:102520005A60FB689A683B689A60FB689B683A68E7
:102530005A60FB683A689A603B687A681A617B68FF
:102540001B685A1C7B681A601437BD465DF8047B13
:10255000704700BF80B485B000AF786039603B68D9
:102560001B68BB60BB68B3F1FF3F03D17B681B698D
:10257000FB600CE07B680833FB6002E0FB685B6893
:10258000FB60FB685B681A68BB689A42F6D9FB6817
:102590005A683B685A603B685B683A689A603B6877
:1025A000FA689A60FB683A685A603B687A681A6110
:1025B0007B681B685A1C7B681A601437BD465DF83F
:1025C000047B704780B485B000AF78607B681B697E
:1025D000FB607B685B687A6892689A607B689B683E
:1025E0007A6852685A60FB685A687B689A4203D1DD
:1025F0007B689A68FB685A607B6800221A61FB68F6
:102600001B685A1EFB681A60FB681B681846143763
:10261000BD465DF8047B704780B58CB004AFF860B0
:10262000B9603B601346FB80FB889B001846FFF7B0
:1026300083FB78617B69002B0ED05420FFF77CFB75
:10264000F861FB69002B03D0FB697A691A6305E026
:102650007869FFF733FC01E00023FB61FB69002B85
:1026600013D0FA88BB6A0093FB6A0193FB6902935B
:1026700000230393F868B9683B6800F00FF8F86925
:1026800000F088F80123BB6102E04FF0FF33BB612B
:10269000BB6918462037BD4680BD00BF80B588B0F5
:1026A00000AFF860B9607A603B603B6B1A6B7B6887
:1026B00003F18043013B9B001344BB61BB6923F0E2
:1026C0000703BB61BB6903F00703002B09D04FF080
:1026D000500383F31188BFF36F8FBFF34F8F7B617C
:1026E000FEE70023FB6113E0BA68FB691344197825
:1026F0003A6BFB69134430330A461A71BA68FB69B6
:1027000013441B78002B00D105E0FB690133FB610A
:10271000FB690F2BE8D93B6B002283F84320BB6A8F
:10272000062B01D90623BB623B6BBA6ADA623B6BAC
:10273000BA6A5A643B6B00229A643B6B04331846B6
:10274000FFF7D8FE3B6B18331846FFF7D3FE3B6B01
:102750003A6B1A61BB6AC3F107023B6B9A613B6B30
:102760003A6B5A623B6B0022DA643B6B002283F8BF
:102770005020B869F9683A68FFF7B2FC02463B6B33
:102780001A60FB6A002B02D0FB6A3A6B1A60203792
:10279000BD4680BD80B582B000AF7860FFF770FDA8
:1027A0002B4B1B6801332A4A13602A4B1B68002BF2
:1027B00009D1284A7B681360254B1B68012B10D177
:1027C00000F0A6FA0DE0244B1B68002B09D1214B29
:1027D0001B68DA6A7B68DB6A9A4202D81D4A7B680A
:1027E00013601E4B1B6801331C4A13607B68DB6A55
:1027F0001A46012303FA02F2194B1B681343184AC5
:1028000013607B68DA6A13469B0013449B00154AE9
:102810001A447B68043310461946FFF777FEFFF72A
:102820005DFD0D4B1B68002B0ED00A4B1B68DA6A4E
:102830007B68DB6A9A4207D20B4B4FF080521A60DA
:10284000BFF34F8FBFF36F8F0837BD4680BD00BF0A
:10285000480D0020480C0020540D0020640D00207D
:10286000500D00204C0C002004ED00E080B584B039
:1028700000AF78600023FB607B68002B16D0124B02
:102880001B68002B09D04FF0500383F31188BFF36E
:102890006F8FBFF34F8FBB60FEE700F05DF8786885
:1028A000002100F0FFFA00F065F8F860FB68002BEB
:1028B00007D1064B4FF080521A60BFF34F8FBFF322
:1028C0006F8F1037BD4680BD700D002004ED00E015
:1028D00080B586B002AF00230093194B01931948CD
:1028E000194980220023FFF797FEF860FB68012B4F
:1028F00015D14FF0500383F31188BFF36F8FBFF3EF
:102900004F8FBB60114B4FF0FF321A60104B01220A
:102910001A60104B00221A60FFF754FC0DE0FB68B0
:10292000B3F1FF3F09D14FF0500383F31188BFF398
:102930006F8FBFF34F8F7B60FEE71037BD4680BDC2
:102940006C0D0020E12C000858660008680D00207E
:10295000540D00204C0D002080B400AF044B1B68C8
:102960000133034A1360BD465DF8047B704700BF26
:10297000700D002080B584B000AF0023FB60002301
:10298000BB60424B1B68002B09D14FF0500383F30F
:102990001188BFF36F8FBFF34F8F3B60FEE7FFF7E8
:1029A0006FFC3A4B1B68013B384A1360374B1B687E
:1029B000002B63D1364B1B68002B5FD030E0354BCA
:1029C000DB68DB68FB60FB6818331846FFF7FAFD2D
:1029D000FB6804331846FFF7F5FDFB68DB6A1A460F
:1029E000012303FA02F22C4B1B6813432A4A13609B
:1029F000FB68DA6A13469B0013449B00274A1A447B
:102A0000FB68043310461946FFF780FDFB68DA6A5D
:102A1000234B1B68DB6A9A4202D3224B01221A60C5
:102A20001C4B1B68002BCAD1FB68002B01D000F0A7
:102A3000F7F91D4B1B687B607B68002B10D000F002
:102A400037F80346002B02D0164B01221A607B6830
:102A5000013B7B607B68002BF1D1134B00221A6095
:102A6000104B1B68002B09D00123BB600F4B4FF0AC
:102A700080521A60BFF34F8FBFF36F8FFFF72EFCAA
:102A8000BB6818461037BD4680BD00BF700D0020E2
:102A9000480D0020080D0020500D00204C0C002097
:102AA000480C00205C0D0020580D002004ED00E0D3
:102AB00080B586B000AF00237B61514B1B68002BB3
:102AC00040F08E804F4B1B6801333B614D4A3B69A0
:102AD00013603B69002B1FD14B4B1B681B68002BFD
:102AE00009D04FF0500383F31188BFF36F8FBFF30A
:102AF0004F8F3B60FEE7444B1B68FB60434B1B68FA
:102B0000414A1360414AFB681360414B1B68013323
:102B10003F4A136000F084F93E4B1B683A699A42C1
:102B20004FD3394B1B681B68002B01D1012300E0F8
:102B30000023002B04D0374B4FF0FF321A6040E0E7
:102B4000314B1B68DB68DB68BB60BB685B687B6024
:102B50003A697B689A4203D22E4A7B68136030E060
:102B6000BB6804331846FFF72DFDBB689B6A002B3A
:102B700004D0BB6818331846FFF724FDBB68DB6A36
:102B80001A46012303FA02F2234B1B681343224A1D
:102B90001360BB68DA6A13469B0013449B001F4A0C
:102BA0001A44BB68043310461946FFF7AFFCBB68F4
:102BB000DA6A1B4B1B68DB6A9A4201D301237B61F3
:102BC000AFE7174B1B68DA6A144913469B0013449E
:102BD0009B000B441B68012B01D901237B6104E09E
:102BE000104B1B6801330F4A13600F4B1B68002BFF
:102BF00001D001237B617B6918461837BD4680BD33
:102C0000700D00204C0D0020000D0020040D002050
:102C1000600D0020680D0020500D00204C0C00209D
:102C2000480C0020580D00205C0D002080B487B0B7
:102C300000AF264B1B68002B03D0254B01221A60E6
:102C40003EE0234B00221A60224B1B68FB60FB68AE
:102C5000B3FA83F3FB72FB7AC3F11F037B611E4956
:102C60007A6913469B0013449B000B441B68002B9E
:102C700009D14FF0500383F31188BFF36F8FBFF377
:102C80004F8F7B60FEE77A6913469B0013449B00DD
:102C9000114A13443B613B695B685A683B695A605F
:102CA0003B695A683B6908339A4204D13B695B68C7
:102CB0005A683B695A603B695B68DB68074A136086
:102CC0001C37BD465DF8047B704700BF700D0020C7
:102CD0005C0D0020500D00204C0C0020480C002002
:102CE00080B582B000AF786000F050F8064B1B68EA
:102CF000012B07D9054B4FF080521A60BFF34F8F5D
:102D0000BFF36F8FF0E700BF4C0C002004ED00E034
:102D100080B582B000AF00237B600CE07A68134678
:102D20009B0013449B00114A13441846FFF7C2FB53
:102D30007B6801337B607B68062BEFD90C48FFF77B
:102D4000B9FB0C48FFF7B6FB0B48FFF7B3FB0B488A
:102D5000FFF7B0FB0A48FFF7ADFB0A4B044A1A60C5
:102D6000094B044A1A600837BD4680BD4C0C002050
:102D7000D80C0020EC0C0020080D00201C0D0020B9
:102D8000340D0020000D0020040D002080B582B01D
:102D900000AF28E0FFF7E0FD164B1B68002B0CBFCF
:102DA00001230023DBB27B60FFF7E4FD7B68002B8F
:102DB00019D1FFF765FA0F4BDB68DB683B603B68B6
:102DC00004331846FFF7FEFB0B4B1B68013B0A4A16
:102DD00013600A4B1B68013B084A1360FFF77EFA39
:102DE000386800F00DF8054B1B68002BD2D108376E
:102DF000BD4680BD1C0D0020480D0020300D002078
:102E000080B582B000AF78607B681B6B1846FFF717
:102E100055F87868FFF752F80837BD4680BD00BF07
:102E200080B483B000AF0E4B1B681B68002B01D130
:102E3000012300E00023002B04D00A4B4FF0FF32A7
:102E40001A6008E0064B1B68DB68DB687B607B6808
:102E50005B68044A13600C37BD465DF8047B70471D
:102E6000000D0020680D002080B483B000AF0B4B34
:102E70001B68002B02D101237B6008E0084B1B6814
:102E8000002B02D102237B6001E000237B607B6882
:102E900018460C37BD465DF8047B7047540D002082
:102EA000700D002080B584B000AF78603960284B89
:102EB0001B68FB60274B1B6804331846FFF782FB37
:102EC0000346002B0BD1234B1B68DB6A1A460123F8
:102ED0009340DA43204B1B6813401F4A13607B6802
:102EE000B3F1FF3F0AD13B68002B07D0194B1B6899
:102EF00004331A481946FFF709FB26E0FA687B6895
:102F00001344BB60134B1B68BA685A60BA68FB680D
:102F10009A4209D2124B1A680E4B1B6804331046B2
:102F20001946FFF717FB10E00E4B1A68094B1B6898
:102F3000043310461946FFF70DFB0B4B1B68BA68AC
:102F40009A4202D2084ABB6813601037BD4680BD62
:102F50004C0D0020480C0020500D0020340D0020A6
:102F6000040D0020000D0020680D002080B500AF8A
:102F7000084A084B1B6843F010031360032000F05D
:102F8000FBFA0020FEF7F4FDFEF79AFB002318463B
:102F900080BD00BF0020024080B400AF054B1B780D
:102FA0001A46054B1B681344034A1360BD465DF87F
:102FB000047B7047080000202011002080B400AF7F
:102FC000034B1B681846BD465DF8047B704700BF85
:102FD0002011002080B586B000AF78600023FB751B
:102FE00000233B610023BB600023FB607B68002B58
:102FF00001D10123BEE07B689B68002B7B689B6A44
:10300000002B09D17B680022DA627B68002283F8FA
:1030100024207868FEF7A6FB786800F0ABF9034639
:10302000FB757B689B6A03F01003002B40F09980CE
:10303000FB7D002B40F095807B689B6A23F48853CE
:1030400023F0020343F002027B689A627B685A68AD
:103050007B68DB691A437B68DB685B001343BA68F3
:103060001343BB607B689B68B3F5807F03D07B68AC
:103070009B68012B02D14FF4807300E000233A6972
:1030800013433B617B685B69012B19D17B68DB686B
:10309000002B09D17B689B69013B5A033B691343B1
:1030A00043F400633B610BE07B689B6A43F02002C2
:1030B0007B689A627B68DB6A43F001027B68DA62B4
:1030C0007B681B687A681268526822F469413A6921
:1030D0000A435A607B681A687B681B689968274BAB
:1030E0000B40B9680B4393607B689B68B3F5807FA6
:1030F00003D07B689B68012B04D17B681B69013B73
:103100001B05FB607B681B687A681268D26A22F430
:103110007001FA680A43DA627B681B689A68184B88
:103120001340BA6893420BD17B680022DA627B6855
:103130009B6A23F0030343F001027B689A6218E064
:103140007B689B6A23F0120343F010027B689A624B
:103150007B68DB6A43F001027B68DA620123FB755E
:1031600007E07B689B6A43F010027B689A62012348
:10317000FB75FB7D18461837BD4680BDFDF7E1FFA6
:10318000FE0E1FFF90B484B000AF7860396000235A
:10319000FB730023BB607B6893F82430012B01D1C3
:1031A0000223DCE07B68012283F824203B685B6813
:1031B000062B1CD87B6819687B681B68586B3B68BA
:1031C0005A6813469B001344053B1A461F2393403D
:1031D000DB4318403B681C683B685A6813469B00F9
:1031E0001344053B04FA03F303434B633CE03B68A1
:1031F0005B680C2B1CD87B6819687B681B68186B94
:103200003B685A6813469B001344233B1A461F230E
:103210009340DB4318403B681C683B685A68134680
:103220009B001344233B04FA03F303430B631BE0AB
:103230007B6819687B681B68D86A3B685A681346C4
:103240009B001344413B1A461F239340DB43184025
:103250003B681C683B685A6813469B001344413B1B
:1032600004FA03F30343CB623B681B68092B1CD9A8
:103270007B6819687B681B68D8683B681A681346C6
:103280005B0013441E3B1A4607239340DB43184060
:103290003B689C683B681A6813465B0013441E3BFE
:1032A00004FA03F30343CB6019E07B6819687B6879
:1032B0001B6818693B681A6813465B0013441A467A
:1032C00007239340DB4318403B689C683B681A68BF
:1032D00013465B00134404FA03F303430B613B689A
:1032E0001B68102B03D03B681B68112B32D17B6805
:1032F0001B681D4A934225D17B681B689B6803F4B9
:103300000003002B26D17B681B687A6812689268DC
:1033100042F400029A603B681B68102B1AD1134BD1
:103320001B68134AA2FB03239A0C13469B00134409
:103330005B00BB6002E0BB68013BBB60BB68002B6D
:10334000F9D107E07B689B6A43F020027B689A62B0
:103350000123FB737B68002283F82420FB7B184643
:103360001037BD4690BC704700240140000000208B
:1033700083DE1B4380B584B000AF78600023FB6020
:103380007B681B689B6803F00103002B27D07B68D8
:103390001B687A681268926822F001029A60FFF74F
:1033A0000DFEF86014E0FFF709FE0246FB68D31A31
:1033B000022B0DD97B689B6A43F010027B689A62EE
:1033C0007B68DB6A43F001027B68DA62012307E075
:1033D0007B681B689B6803F00103002BE3D100238B
:1033E00018461037BD4680BD80B485B000AF786008
:1033F0007B6803F00703FB600C4BDB68BB60BA68BB
:103400004FF6FF031340BB60FB681A02BB6813430F
:1034100043F0BF6343F40033BB60044ABB68D3602E
:103420001437BD465DF8047B704700BF00ED00E037
:1034300080B400AF044BDB6803F4E0631B0A18465A
:10344000BD465DF8047B704700ED00E080B483B0BA
:1034500000AF0346FB71084997F907305B09FA7919
:1034600002F01F02012000FA02F241F823200C377B
:10347000BD465DF8047B704700E100E080B483B096
:1034800000AF03463960FB7197F90730002B0BDA68
:103490000D49FB7903F00F03043B3A68D2B21201E5
:1034A000D2B20B441A7609E0084997F907303A6816
:1034B000D2B21201D2B20B4483F800230C37BD46BE
:1034C0005DF8047B704700BF00ED00E000E100E024
:1034D00080B489B000AFF860B9607A60FB6803F02F
:1034E0000703FB61FB69C3F10703042B28BF042317
:1034F000BB61FB690433062B02D9FB69033B00E087
:1035000000237B61BB69012202FA03F35A1EBB68E8
:103510001A407B699A407B69012101FA03F3591E25
:103520007B680B40134318462437BD465DF8047B87
:10353000704700BF80B582B000AF78607B68013B08
:10354000B3F1807F01D301230FE00A4A7B68013B7E
:1035500053604FF0FF300F21FFF790FF054B002223
:103560009A60044B07221A60002318460837BD46AC
:1035700080BD00BF10E000E080B582B000AF786091
:103580007868FFF731FF0837BD4680BD80B586B04B
:1035900000AF0346B9607A60FB7300237B61FFF7DD
:1035A00047FF78617869B9687A68FFF791FF02464A
:1035B00097F90F3018461146FFF760FF1837BD46E0
:1035C00080BD00BF80B582B000AF0346FB7197F9A4
:1035D00007301846FFF73AFF0837BD4680BD00BFE9
:1035E00080B582B000AF78607868FFF7A3FF03462C
:1035F00018460837BD4680BD80B483B000AF786000
:103600007B68042B06D1094A084B1B6843F004036E
:10361000136005E0054A054B1B6823F004031360A3
:103620000C37BD465DF8047B704700BF10E000E03A
:1036300080B485B000AF78600023FB607B68002B0E
:1036400001D101234FE07B681B681A46294B1344C4
:10365000294AA2FB03231B099A007B681A647B6832
:10366000264ADA637B68022283F821207B681B6884
:103670001B68FB60FB6823F47F5323F03003FB607F
:103680007B685A687B689B681A437B68DB681A43CF
:103690007B681B691A437B685B691A437B689B697B
:1036A0001A437B68DB691343FA681343FB607B684A
:1036B0001B68FA681A607B6800229A627B680022A5
:1036C000DA627B6800221A637B6800225A637B6897
:1036D00000229A637B68012283F821207B68002204
:1036E00083F82020002318461437BD465DF8047B7C
:1036F000704700BFF8FFFDBFCDCCCCCC000002402E
:1037000080B584B000AF78607B68DB6B1B68FB60C2
:103710007B681B681B68BB607B681B6C1A460423B4
:1037200003FA02F2FB681340002B55D0BB6803F08C
:103730000403002B50D07B681B681B6803F0200338
:10374000002B07D17B681B687A681268126822F028
:1037500004021A606F4A7B681B6819466E4B9942D7
:103760002ED07B681B6819466C4B994226D07B682B
:103770001B6819466A4B99421DD07B681B68194625
:10378000684B994214D07B681B681946664B994276
:103790000BD07B681B681946644B994202D14FF4E9
:1037A00080030EE04FF080630BE04FF4802308E0CD
:1037B0004FF4804305E04FF4806302E0402300E0D3
:1037C000042353607B68DB6A002B04D07B68DB6AD0
:1037D000786898479AE099E07B681B6C1A46022348
:1037E00003FA02F2FB681340002B5DD0BB6803F0C4
:1037F0000203002B58D07B681B681B6803F0200372
:10380000002B0BD17B681B687A681268126822F063
:103810000A021A607B68012283F821203D4A7B68F6
:103820001B6819463C4B99422ED07B681B68194691
:103830003A4B994226D07B681B681946384B99420F
:103840001DD07B681B681946364B994214D07B68A3
:103850001B681946344B99420BD07B681B6819468C
:10386000324B994202D14FF400130EE04FF0007337
:103870000BE04FF4003308E04FF4005305E04FF441
:10388000007302E0202300E0022353607B680022E3
:1038900083F820207B689B6A002B04D07B689B6A9E
:1038A0007868984732E031E07B681B6C1A46082341
:1038B00003FA02F2FB681340002B27D0BB6803F029
:1038C0000803002B22D07B681B687A681268126894
:1038D00022F00E021A607B68DB6B7A68126C11466C
:1038E00001228A405A607B6801229A637B68012228
:1038F00083F821207B68002283F820207B681B6BE3
:10390000002B03D07B681B6B7868984700BF10378B
:10391000BD4680BD00000240080002401C0002407D
:103920003000024044000240580002406C00024057
:1039300080B48BB000AF786039600023FB61002356
:10394000BB6100237B6100233B6200233B610023BA
:103950007B6228E17B6A012202FA03F3FB613B6888
:103960001A68FB691340BB61BA69FB699A4240F06F
:1039700017813B685B68122B34D0122B0DD8022BB9
:103980002BD0022B04D8002B31D0012B1CD049E0C6
:10399000032B44D0112B1BD044E0874A934226D0FE
:1039A000854A934206D8854A934220D0844A93425E
:1039B0001DD037E0834A934219D0834A934216D0F0
:1039C000824A934213D02DE03B68DB683B6229E0DA
:1039D0003B68DB6804333B6224E03B68DB68083308
:1039E0003B621FE03B68DB680C333B621AE03B68DC
:1039F0009B68002B02D104233B620FE03B689B686D
:103A0000012B05D108233B627B68FA691A6105E046
:103A100008233B627B68FA695A6103E002E00023F5
:103A20003B6200BFBB69FF2B01D87B6801E07B686C
:103A30000433FB60BB69FF2B02D87B6A9B0002E06A
:103A40007B6A083B9B003B61FB681A683B690F215E
:103A500001FA03F3DB431A403B69396A01FA03F3C5
:103A60001A43FB681A603B685B6803F08053002BC5
:103A700000F09680564A564B9B6943F001039361D0
:103A8000534B9B6903F00103BB60BB68514A7B6ADF
:103A90009B08023352F823307B617B6A03F00303F7
:103AA0009B001A460F239340DB437A6913407B61E6
:103AB0007B68494A934213D07B68484A93420DD0B1
:103AC0007B68474A934207D07B68464A934201D1BC
:103AD000032306E0042304E0022302E0012300E0C4
:103AE00000237A6A02F00302920093407A6913433A
:103AF0007B6138497B6A9B0802337A6941F823204D
:103B00003B685B6803F48033002B06D03649364BA4
:103B10001A68BB6913430B6006E03349324B1A68DD
:103B2000BB69DB4313400B603B685B6803F4003305
:103B3000002B06D02C492C4B5A68BB6913434B60B1
:103B400006E02949284B5A68BB69DB4313404B60A8
:103B50003B685B6803F48013002B06D02249224B9C
:103B60009A68BB6913438B6006E01F491E4B9A6835
:103B7000BB69DB4313408B603B685B6803F4001355
:103B8000002B06D01849184BDA68BB691343CB6089
:103B900006E01549144BDA68BB69DB431340CB6080
:103BA0007B6A01337B627B6A0F2B7FF6D3AE2C37A7
:103BB000BD465DF8047B7047000021100000111025
:103BC000000012100000311000003210000022101E
:103BD000001002400000014000080140000C0140BC
:103BE00000100140001401400004014080B483B083
:103BF00000AF78600B467B8013467B707B78002B90
:103C000003D07A887B681A6103E07B881A047B689A
:103C10001A610C37BD465DF8047B704780B483B0F1
:103C200000AF78600B467B807B68DA687B885A40FF
:103C30007B68DA600C37BD465DF8047B704700BFD7
:103C400080B584B000AF78600023FB600023BB60C8
:103C50007B68002B01D10123E7E07B6893F83D30BE
:103C6000DBB2002B06D17B68002283F83C20786809
:103C7000FDF7D0FD7B68242283F83D207B681B681C
:103C80007A681268126822F001021A6001F00EFCD4
:103C9000B8607B685B68674A934207D8BB68664A2E
:103CA000934294BF01230023DBB206E0BB68634A62
:103CB000934294BF01230023DBB2002B01D00123E8
:103CC000B3E0BB685E4AA2FB03239B0CFB607B68EE
:103CD0001B68FA685A607B681A687B685B6855499C
:103CE0008B4202D8FB68013309E0FB684FF4967100
:103CF00001FB03F35349A1FB03139B090133136237
:103D00007B6819687B685B684A4A93420DD8BB6838
:103D10005A1E7B685B685B00B2FBF3F30133C3F3AD
:103D20000B03042B38BF04234FE07B689B68002BF8
:103D300011D1BB68581E7B685A6813465B00134458
:103D4000B0FBF3F30133C3F30B03002B0CBF0123D0
:103D50000023DBB212E0BB68581E7B685A6813462A
:103D60009B0013449A001344B0FBF3F30133C3F3F5
:103D70000B03002B0CBF01230023DBB2002B01D06F
:103D8000012322E07B689B68002B0ED1BB68581E84
:103D90007B685A6813465B001344B0FBF3F30133AE
:103DA000C3F30B0343F400430FE0BB68581E7B686A
:103DB0005A6813469B0013449A001344B0FBF3F374
:103DC0000133C3F30B0343F44043CB617B681B68AF
:103DD0007A68D1697A68126A0A431A607B681B683C
:103DE0007A6811697A68D2680A439A607B681B68AE
:103DF0007A6851697A6892690A43DA607B681B685D
:103E00007A681268126842F001021A607B68002228
:103E10001A647B68202283F83D207B6800221A63A5
:103E20007B68002283F83E20002318461037BD46E9
:103E300080BD00BFA08601007F841E00FF083D00FA
:103E400083DE1B43D34D621080B588B002AFF860AB
:103E50007A601A460B467B8113463B8100237B61C7
:103E6000FFF7ACF87861FB6893F83D30DBB2202BAC
:103E700040F0EF807B690093F868784901221923AC
:103E800000F09EFD0346002B01D00223E2E0FB6818
:103E900093F83C30012B01D10223DBE0FB680122C7
:103EA00083F83C20FB681B681B6803F00103002BB0
:103EB00007D1FB681B68FA681268126842F00102B9
:103EC0001A60FB681B68FA681268126822F40062C4
:103ED0001A60FB68212283F83D20FB68102283F8DA
:103EE0003E20FB6800221A64FB687A685A62FB680D
:103EF0003A895A85FB685A4ADA62FB685B8D9AB246
:103F0000FB681A857B89F86819463A6A7B6900F074
:103F100011FC0346002B0FD0FB681B6C042B05D152
:103F2000FB68002283F83C20012393E0FB68002219
:103F300083F83C2003238DE000233B61FB681B6872
:103F40005B693B61FB681B689B693B613B6966E0A1
:103F5000F868396A7A6900F0F3FD0346002B0FD048
:103F6000FB681B6C042B09D1FB681B68FA6812689C
:103F7000126842F400721A6001236BE0032369E0C7
:103F8000FB681A68FB685B6A581CF96848621B7812
:103F90001361FB685B8D9BB2013B9AB2FB685A854B
:103FA000FB681B8D013B9AB2FB681A85FB681B6896
:103FB0005B6903F00403002B19D0FB681B8D002BF9
:103FC00015D0FB681A68FB685B6A581CF968486280
:103FD0001B781361FB685B8D9BB2013B9AB2FB6857
:103FE0005A85FB681B8D013B9AB2FB681A85F868FD
:103FF000396A7A6900F0E2FD0346002B0FD0FB68B6
:104000001B6C042B09D1FB681B68FA6812681268E4
:1040100042F400721A6001231CE003231AE0FB68DB
:104020001B8D002B94D1FB681B68FA68126812681C
:1040300042F400721A60FB68202283F83D20FB687E
:10404000002283F83E20FB68002283F83C200023F6
:1040500000E0022318461837BD4680BD020010005C
:104060000000FFFF80B58CB002AFF8607A601A469E
:104070000B467B8113463B8100237B62FEF79EFF4C
:104080007862FB6893F83D30DBB2202B40F01D8254
:104090007B6A0093F86888490122192300F090FC9C
:1040A0000346002B01D0022310E2FB6893F83C305A
:1040B000012B01D1022309E2FB68012283F83C2095
:1040C000FB681B681B6803F00103002B07D1FB682A
:1040D0001B68FA681268126842F001021A60FB68F5
:1040E0001B68FA681268126822F400621A60FB68A2
:1040F000222283F83D20FB68102283F83E20FB68D3
:1041000000221A64FB687A685A62FB683A895A8509
:10411000FB686A4ADA62FB685B8D9AB2FB681A85B3
:104120007B89F86819463A6B7B6A00F083FB03468B
:10413000002B0FD0FB681B6C042B05D1FB68002201
:1041400083F83C200123C1E1FB68002283F83C2076
:104150000323BBE1FB681B8D002B13D100233B62C3
:10416000FB681B685B693B62FB681B689B693B6281
:104170003B6AFB681B68FA681268126842F40072B6
:104180001A6056E0FB681B8D012B1DD1FB681B6874
:10419000FA681268126822F480621A6072B600230C
:1041A000FB61FB681B685B69FB61FB681B689B69C3
:1041B000FB61FB69FB681B68FA681268126842F4CD
:1041C00000721A6062B634E0FB681B8D022B1DD1B1
:1041D000FB681B68FA681268126842F400621A6091
:1041E00072B60023BB61FB681B685B69BB61FB683F
:1041F0001B689B69BB61BB69FB681B68FA68126836
:10420000126822F480621A6062B612E0FB681B68D2
:10421000FA681268126842F480621A6000237B61B7
:10422000FB681B685B697B61FB681B689B697B6142
:104230007B6937E1FB681B8D032B00F2EE80FB6886
:104240001B8D012B27D1F868396B7A6A00F0F4FCDA
:104250000346002B07D0FB681B6C202B01D10323E6
:1042600034E1012332E1FB685B6A591CFA68516250
:10427000FA6812681269D2B21A70FB681B8D013B92
:104280009AB2FB681A85FB685B8D9BB2013B9AB2C0
:10429000FB685A8506E1FB681B8D022B4BD17B6ABC
:1042A0000093F868064900223B6B00F089FB034647
:1042B000002B07D0032309E1020010000000FFFFDC
:1042C0000400010072B6FB681B68FA681268126885
:1042D00042F400721A60FB685B6A591CFA6851620A
:1042E000FA6812681269D2B21A70FB681B8D013B22
:1042F0009AB2FB681A85FB685B8D9BB2013B9AB250
:10430000FB685A8562B6FB685B6A591CFA685162A1
:10431000FA6812681269D2B21A70FB681B8D013BF1
:104320009AB2FB681A85FB685B8D9BB2013B9AB21F
:10433000FB685A85B6E07B6A0093F86865490022FD
:104340003B6B00F03DFB0346002B01D00323BDE097
:10435000FB681B68FA681268126822F480621A60AF
:1043600072B6FB685B6A591CFA685162FA68126897
:104370001269D2B21A70FB681B8D013B9AB2FB68BE
:104380001A85FB685B8D9BB2013B9AB2FB685A852C
:104390007B6A0093F8684F4900223B6B00F010FBEA
:1043A0000346002B01D0032390E0FB681B68FA68EA
:1043B0001268126842F400721A60FB685B6A591C4A
:1043C000FA685162FA6812681269D2B21A70FB6810
:1043D0001B8D013B9AB2FB681A85FB685B8D9BB213
:1043E000013B9AB2FB685A8562B6FB685B6A591C4E
:1043F000FA685162FA6812681269D2B21A70FB68E0
:104400001B8D013B9AB2FB681A85FB685B8D9BB2E2
:10441000013B9AB2FB685A8544E0F868396B7A6AC6
:1044200000F00AFC0346002B07D0FB681B6C202B16
:1044300001D103234AE0012348E0FB685B6A591C71
:10444000FA685162FA6812681269D2B21A70FB688F
:104450001B8D013B9AB2FB681A85FB685B8D9BB292
:10446000013B9AB2FB685A85FB681B685B6903F0E5
:104470000403002B16D0FB685B6A591CFA68516272
:10448000FA6812681269D2B21A70FB681B8D013B80
:104490009AB2FB681A85FB685B8D9BB2013B9AB2AE
:1044A000FB685A85FB681B8D002B7FF4C3AEFB684D
:1044B000202283F83D20FB68002283F83E20FB6821
:1044C000002283F83C20002300E00223184628370E
:1044D000BD4680BD0400010080B58CB002AFF8601D
:1044E0007A603B600B467B8100237B6200233B624A
:1044F0000023FB610023BB6101237B61FEF75EFDAE
:104500007862FB6893F83D30DBB2202B40F00881E5
:104510007B6A0093F86885490122192300F050FA5C
:104520000346002B01D00223FBE0FB6893F83C30EC
:10453000012B01D10223F4E0FB68012283F83C2027
:10454000FB681B681B6803F00103002B07D1FB68A5
:104550001B68FA681268126842F001021A60FB6870
:104560001B68FA681268126822F400621A60FB681D
:10457000242283F83D20FB6800221A64FB686C4A01
:10458000DA62FB681B68FA681268126842F480728B
:104590001A607B6A0093F8684FF0011100223B68B3
:1045A00000F00EFA0346002B01D00323B9E0FB68AC
:1045B0001B687A89D2B202F0FE021A61FEF7FEFC95
:1045C0007862FB681B685B6903F00203002B14BF71
:1045D00001230023DBB23B62FB681B685B6903F4C9
:1045E0008063002B14BF01230023DBB2FB61FB6857
:1045F00093F83D30DBB2BB6129E03B68002B07D06C
:10460000FEF7DCFC02467B6AD21A3B689A4203D969
:10461000FB68A02283F83D20FB681B685B6903F000
:104620000203002B14BF01230023DBB23B62FB68B3
:104630001B685B6903F48063002B14BF0123002314
:10464000DBB2FB61FB6893F83D30DBB2BB613B6AD8
:10465000002B05D1FB69002B02D1BB69A02BCCD16B
:10466000FB68202283F83D20FB681B685B6903F030
:104670000203002B29D0FB681B68FA6812681268D5
:1046800042F400721A6000233B61FB681B685B699F
:104690003B61FB681B689B693B613B697B6A0093DC
:1046A000F86822490122192300F08AF90346002BF9
:1046B00001D0032335E0FB68202283F83D20FB680E
:1046C000002283F83C2000232BE0FB681B68FA687B
:1046D0001268126842F400721A60FB681B686FF47B
:1046E00080625A617B6A0093F8681049012219239D
:1046F00000F066F90346002B01D0032311E07B692B
:104700005A1C7A617A689342FFF43BAFFB6820221F
:1047100083F83D20FB68002283F83C20012300E061
:10472000022318462837BD4680BD00BF0200100096
:104730000000FFFF80B588B002AFF8607A603B6090
:104740000B467B81FB68DB6A7B617B69042B06D0AF
:104750007B69012B03D07B6913F5803F08D1FB688F
:104760001B68FA681268126842F480721A600BE0E3
:10477000FB681B6B122B07D1FB681B68FA68126879
:10478000126842F480721A603B680093F8684FF038
:10479000011100227B6800F013F90346002B01D0C1
:1047A00003233FE0FB681B69B3F5804F07D1FB682B
:1047B0001B687A89D2B202F0FE021A6120E0FB681F
:1047C0001B687A8902F44072D211D2B262F00F02F1
:1047D000D2B21A61F86815497A683B6800F042F96C
:1047E0000346002B07D0FB681B6C042B01D101236F
:1047F00018E0032316E0FB681B687A89D2B21A61BD
:10480000F8680B497A683B6800F02CF90346002BE6
:1048100007D0FB681B6C042B01D1012302E00323AA
:1048200000E0002318461837BD4680BD080001008F
:104830000200010080B588B002AFF8607A603B608A
:104840000B467B81FB68DB6A7B61FB681B68FA684F
:104850001268126842F480621A607B69042B06D0E9
:104860007B69012B03D07B6913F5803F08D1FB687E
:104870001B68FA681268126842F480721A600BE0D2
:10488000FB681B6B112B07D1FB681B68FA68126869
:10489000126842F480721A603B680093F8684FF027
:1048A000011100227B6800F08BF80346002B01D039
:1048B00003237DE0FB681B69B3F5804F08D1FB68DB
:1048C0001B687A89D2B242F00102D2B21A615DE06D
:1048D000FB681B687A8902F44072D211D2B262F08E
:1048E0000F02D2B21A61F86833497A683B6800F067
:1048F000B9F80346002B07D0FB681B6C042B01D1D1
:10490000012355E0032353E0FB681B687A89D2B288
:104910001A61F86829497A683B6800F0A3F80346F1
:10492000002B07D0FB681B6C042B01D101233FE057
:1049300003233DE000233B61FB681B685B693B612F
:10494000FB681B689B693B613B69FB681B68FA68F5
:104950001268126842F480721A603B680093F8682B
:104960004FF0011100227B6800F02AF80346002B6B
:1049700001D003231CE0FB681B687A8902F44072B3
:10498000D211D2B262F00E02D2B21A61F8680B49AB
:104990007A683B6800F066F80346002B07D0FB6896
:1049A0001B6C042B01D1012302E0032300E0002350
:1049B00018461837BD4680BD0800010002000100FE
:1049C00080B584B000AFF860B9603B601346FB71FE
:1049D0001FE03B68B3F1FF3F1BD03B68002B07D0C3
:1049E000FEF7ECFA0246BB69D21A3B689A4210D92C
:1049F000FB6800221A63FB68202283F83D20FB68D5
:104A0000002283F83E20FB68002283F83C20032329
:104A100023E0BB681B0CDBB2012B0DD1FB681B68CC
:104A20005B69DA43BB6813409BB2002B0CBF0123C8
:104A30000023DBB21A460CE0FB681B689B69DA4373
:104A4000BB6813409BB2002B0CBF01230023DBB2D9
:104A50001A46FB799A42BCD0002318461037BD464F
:104A600080BD00BF80B584B000AFF860B9607A60E7
:104A70003B603FE0FB681B685B6903F48063002BCD
:104A80001CD0FB681B68FA681268126842F4007256
:104A90001A60FB681B686FF480625A61FB6804222D
:104AA0001A64FB6800221A63FB68202283F83D2009
:104AB000FB68002283F83C2001233CE07B68B3F1D3
:104AC000FF3F17D07B68002B07D0FEF777FA02462E
:104AD0003B68D21A7B689A420CD9FB6800221A63A1
:104AE000FB68202283F83D20FB68002283F83C20ED
:104AF000032320E0BB681B0CDBB2012B0CD1FB684D
:104B00001B685B69DA43BB6813409BB2002B14BF80
:104B100001230023DBB20BE0FB681B689B69DA43CF
:104B2000BB6813409BB2002B14BF01230023DBB2F0
:104B3000002B9FD1002318461037BD4680BD00BF13
:104B400080B584B000AFF860B9607A6029E0F86899
:104B500000F0BCF80346002B01D0012329E0BB681C
:104B6000B3F1FF3F1DD0BB68002B07D0FEF726FA3C
:104B700002467B68D21ABB689A4212D9FB681B6C4A
:104B800043F02002FB681A64FB6800221A63FB688A
:104B9000202283F83D20FB68002283F83C20032379
:104BA00007E0FB681B685B6903F08003002BCED035
:104BB000002318461037BD4680BD00BF80B584B0C5
:104BC00000AFF860B9607A6029E0F86800F07EF81C
:104BD0000346002B01D0012329E0BB68B3F1FF3F5E
:104BE0001DD0BB68002B07D0FEF7E8F902467B68B2
:104BF000D21ABB689A4212D9FB681B6C43F02002A0
:104C0000FB681A64FB6800221A63FB68202283F8A1
:104C10003D20FB68002283F83C20032307E0FB686B
:104C20001B685B6903F00403002BCED000231846F9
:104C30001037BD4680BD00BF80B584B000AFF860BE
:104C4000B9607A6036E0FB681B685B6903F01003AB
:104C5000002B14D0FB681B686FF010025A61FB68D0
:104C600000221A64FB6800221A63FB68202283F882
:104C70003D20FB68002283F83C20012322E0BB6832
:104C8000002B07D0FEF79AF902467B68D21ABB6860
:104C90009A420FD9FB681B6C43F02002FB681A6430
:104CA000FB68202283F83D20FB68002283F83C202B
:104CB000032307E0FB681B685B6903F04003002BDC
:104CC000C1D0002318461037BD4680BD80B483B0E4
:104CD00000AF78607B681B685B6903F48063002B1E
:104CE00014D07B681B686FF480625A617B68042271
:104CF0001A647B6800221A637B68202283F83D20B7
:104D00007B68002283F83C20012300E00023184642
:104D10000C37BD465DF8047B704700BF80B586B098
:104D200000AF786000233B617B681B6803F00103E0
:104D3000002B00F08580914B5B6803F00C03042B83
:104D40000BD08E4B5B6803F00C03082B12D18B4BFE
:104D50005B6803F48033002B0CD0884B1B6803F492
:104D60000033002B05D07B685B68002B01D1012349
:104D70002CE265E07B685B68B3F5803F06D17F4A33
:104D80007E4B1B6843F4803313602EE07B685B68C6
:104D9000002B0CD1794A794B1B6823F480331360C4
:104DA000764A764B1B6823F4802313601DE07B68F2
:104DB0005B68B3F5A02F0CD1704A704B1B6843F4AD
:104DC000802313606D4A6D4B1B6843F4803313607E
:104DD0000BE06A4A694B1B6823F480331360674A0F
:104DE000664B1B6823F4802313607B685B68002B91
:104DF00013D0FEF7E3F8386108E0FEF7DFF802466B
:104E00003B69D31A642B01D90323DFE15B4B1B6899
:104E100003F40033002BF0D012E0FEF7CFF8386136
:104E200008E0FEF7CBF802463B69D31A642B01D9A0
:104E30000323CBE1514B1B6803F40033002BF0D16B
:104E40007B681B6803F00203002B63D04B4B5B684D
:104E500003F00C03002B0BD0484B5B6803F00C03F2
:104E6000082B1CD1454B5B6803F48033002B16D113
:104E7000424B1B6803F00203002B05D07B681B69C3
:104E8000012B01D00123A1E13C493C4B1B6823F0DD
:104E9000F8027B685B69DB0013430B603AE07B68D8
:104EA0001B69002B20D0364B01221A60FEF786F8D2
:104EB000386108E0FEF782F802463B69D31A022BFC
:104EC00001D9032382E12D4B1B6803F00203002B61
:104ED000F0D02A49294B1B6823F0F8027B685B69F4
:104EE000DB0013430B6015E0254B00221A60FEF730
:104EF00065F8386108E0FEF761F802463B69D31AAD
:104F0000022B01D9032361E11C4B1B6803F0020350
:104F1000002BF0D17B681B6803F00803002B39D00D
:104F20007B689B69002B19D0164B01221A60FEF793
:104F300045F8386108E0FEF741F802463B69D31AAC
:104F4000022B01D9032341E10C4B5B6A03F00203FE
:104F5000002BF0D0012000F001FB1BE0094B0022E8
:104F60001A60FEF72BF838610EE0FEF727F80246CC
:104F70003B69D31A022B07D9032327E10010024013
:104F80000000424280044242924B5B6A03F00203FB
:104F9000002BEAD17B681B6803F00403002B00F0B0
:104FA000A6800023FB758B4BDB6903F08053002B3D
:104FB0000DD1884A874BDB6943F08053D361854B21
:104FC000DB6903F08053FB60FB680123FB75824BB8
:104FD0001B6803F48073002B18D17F4A7E4B1B683B
:104FE00043F480731360FDF7E9FF386108E0FDF7D3
:104FF000E5FF02463B69D31A642B01D90323E5E0A0
:10500000754B1B6803F48073002BF0D07B68DB6862
:10501000012B06D16F4A6F4B1B6A43F001031362E9
:105020002DE07B68DB68002B0CD16A4A694B1B6A58
:1050300023F001031362674A664B1B6A23F00403E3
:1050400013621CE07B68DB68052B0CD1614A614B65
:105050001B6A43F0040313625E4A5E4B1B6A43F013
:10506000010313620BE05B4A5A4B1B6A23F00103F6
:105070001362584A574B1B6A23F0040313627B6880
:10508000DB68002B15D0FDF799FF38610AE0FDF7CA
:1050900095FF02463B69D31A41F28832934201D907
:1050A000032393E04B4B1B6A03F00203002BEED06B
:1050B00014E0FDF783FF38610AE0FDF77FFF024649
:1050C0003B69D31A41F28832934201D903237DE030
:1050D000404B1B6A03F00203002BEED1FB7D012B3A
:1050E00005D13C4A3B4BDB6923F08053D3617B689D
:1050F000DB69002B69D0374B5B6803F00C03082B8E
:1051000061D07B68DB69022B46D1344B00221A60E8
:10511000FDF754FF386108E0FDF750FF02463B6998
:10512000D31A022B01D9032350E02A4B1B6803F04A
:105130000073002BF0D17B681B6AB3F5803F08D168
:105140002449244B5B6823F400327B689B6813433B
:105150004B6020481F4B5B6823F474127B68196A0C
:105160007B685B6A0B43134343601C4B01221A604C
:10517000FDF724FF386108E0FDF720FF02463B6998
:10518000D31A022B01D9032320E0124B1B6803F032
:105190000073002BF0D018E0104B00221A60FDF7CE
:1051A0000DFF386108E0FDF709FF02463B69D31A9D
:1051B000022B01D9032309E0064B1B6803F000739F
:1051C000002BF0D101E0012300E00023184618373E
:1051D000BD4680BD001002400070004060004242A9
:1051E00080B584B000AF786039600023FB60734BFA
:1051F0001B6803F007023B689A4210D26F496F4B5D
:105200001B6823F007023B6813430B606B4B1B6862
:1052100003F007023B689A4201D00123C9E07B6892
:105220001B6803F00203002B08D06549644B5B68E0
:1052300023F0F0027B689B6813434B607B681B681C
:1052400003F00103002B6BD07B685B68012B07D157
:105250005B4B1B6803F40033002B15D10123A8E03E
:105260007B685B68022B07D1554B1B6803F000730A
:10527000002B09D101239CE0514B1B6803F0020372
:10528000002B01D1012394E04D494D4B5B6823F085
:1052900003027B685B6813434B60FDF78FFEF86089
:1052A0007B685B68012B12D10AE0FDF787FE02469E
:1052B000FB68D31A41F28832934201D9032378E084
:1052C0003F4B5B6803F00C03042BEED128E07B68B6
:1052D0005B68022B12D10AE0FDF770FE0246FB6804
:1052E000D31A41F28832934201D9032361E0344B4F
:1052F0005B6803F00C03082BEED111E00AE0FDF728
:105300005DFE0246FB68D31A41F28832934201D90E
:1053100003234EE02A4B5B6803F00C03002BEED115
:10532000264B1B6803F007023B689A4210D92349B9
:10533000224B1B6823F007023B6813430B601F4B93
:105340001B6803F007023B689A4201D0012330E05A
:105350007B681B6803F00403002B08D01849184B26
:105360005B6823F4E0627B68DB6813434B607B6817
:105370001B6803F00803002B09D01149104B5B6830
:1053800023F460527B681B69DB0013434B6000F021
:105390001DF801460A4B5B6803F0F0031B09094A3C
:1053A000D35C21FA03F3084A13600020FCF7E0FB0A
:1053B000002318461037BD4680BD00BF00200240C4
:1053C00000100240846600080000002090B48AB0FB
:1053D00000AF2B4B3C1D186859689A68DB680FC4F6
:1053E000284A3B4612881A800023FB610023BB61D8
:1053F00000237B6200237B6100233B62224B5B68BE
:10540000FB61FB6903F00C03042B02D0082B03D0D3
:105410002DE01E4B3B622DE0FB6903F470139B0CE7
:1054200007F12802134413F8243C7B61FB6903F461
:105430008033002B13D0144B5B6803F400335B0CF8
:1054400007F12802134413F8283CBB617B690F4A1B
:1054500002FB03F2BB69B2FBF3F37B6204E07B69FE
:105460000B4A02FB03F37B627B6A3B6202E0074B61
:105470003B6200BF3B6A18462837BD4690BC704768
:1054800060660008706600080010024000127A0092
:1054900000093D0080B400AF034B1B681846BD46B1
:1054A0005DF8047B704700BF0000002080B500AFAE
:1054B000FFF7F0FF0146054B5B6803F4E0631B0A4E
:1054C000034AD35C21FA03F3184680BD0010024062
:1054D0009466000880B500AFFFF7DCFF0146054B7E
:1054E0005B6803F46053DB0A034AD35C21FA03F3DD
:1054F000184680BD001002409466000880B483B056
:1055000000AF786039607B680F221A60114B5B68CE
:1055100003F003027B685A600E4B5B6803F0F002F5
:105520007B689A600B4B5B6803F4E0627B68DA602F
:10553000084B5B6803F46053DA087B681A61064B1A
:105540001B6803F007023B681A600C37BD465DF824
:10555000047B7047001002400020024080B485B0F8
:1055600000AF78600A4B1B680A4AA2FB03235B0A60
:105570007A6802FB03F3FB6000BFFB685A1EFA6007
:10558000002BF9D11437BD465DF8047B704700BF8E
:1055900000000020D34D621080B586B000AF786067
:1055A00000233B610023FB607B681B6803F0010361
:1055B000002B7DD00023FB754F4BDB6903F080533C
:1055C000002B0DD14C4A4C4BDB6943F08053D36127
:1055D000494BDB6903F08053BB60BB680123FB755B
:1055E000464B1B6803F48073002B18D1434A434B8E
:1055F0001B6843F480731360FDF7E0FC386108E03A
:10560000FDF7DCFC02463B69D31A642B01D9032366
:105610006DE03A4B1B6803F48073002BF0D0364BDF
:105620001B6A03F44073FB60FB68002B2ED07B6881
:105630005B6803F44072FB689A4227D02E4B1B6ACA
:1056400023F44073FB602E4B01221A602C4B002286
:105650001A60294AFB681362FB6803F00103002B00
:1056600014D0FDF7ABFC38610AE0FDF7A7FC024659
:105670003B69D31A41F28832934201D9032336E0C1
:105680001D4B1B6A03F00203002BEED01A491A4B84
:105690001B6A23F440727B685B6813430B62FB7DDB
:1056A000012B05D1144A144BDB6923F08053D361DD
:1056B0007B681B6803F00203002B08D00E490E4BD9
:1056C0005B6823F440427B689B6813434B607B68B4
:1056D0001B6803F01003002B08D00749064B5B68DA
:1056E00023F480027B68DB6813434B600023184679
:1056F0001837BD4680BD00BF00100240007000405A
:105700004004424280B582B000AF78607B68002BD5
:1057100001D101231DE07B6893F83D30DBB2002B03
:1057200006D17B68002283F83C20786800F016F8E8
:105730007B68022283F83D207B681A687B6804330B
:105740001046194600F052FA7B68012283F83D208A
:10575000002318460837BD4680BD00BF80B483B023
:1057600000AF78600C37BD465DF8047B704700BF22
:1057700080B483B000AF78607B681B687A68126879
:10578000D26842F00102DA607B681B687A681268AE
:10579000126842F001021A60002318460C37BD4619
:1057A0005DF8047B704700BF80B582B000AF7860C1
:1057B0007B68002B01D101231DE07B6893F83D300D
:1057C000DBB2002B06D17B68002283F83C2078688E
:1057D000FCF7A6F87B68022283F83D207B681A68F4
:1057E0007B6804331046194600F000FA7B680122FA
:1057F00083F83D20002318460837BD4680BD00BF12
:1058000080B582B000AF78607B681B681B6903F0CD
:105810000203002B22D07B681B68DB6803F00203C5
:10582000002B1BD07B681B686FF002021A617B683B
:1058300001221A777B681B689B6903F00303002B26
:1058400003D0786800F0B4F905E0786800F0A6F9B4
:10585000786800F0B7F97B6800221A777B681B68CC
:105860001B6903F00403002B22D07B681B68DB68F4
:1058700003F00403002B1BD07B681B686FF004024D
:105880001A617B6802221A777B681B689B6903F4A4
:105890004073002B03D0786800F08AF905E078683F
:1058A00000F07CF9786800F08DF97B6800221A77A7
:1058B0007B681B681B6903F00803002B22D07B6800
:1058C0001B68DB6803F00803002B1BD07B681B6898
:1058D0006FF008021A617B6804221A777B681B68E4
:1058E000DB6903F00303002B03D0786800F060F954
:1058F00005E0786800F052F9786800F063F97B6899
:1059000000221A777B681B681B6903F01003002BC9
:1059100022D07B681B68DB6803F01003002B1BD0D0
:105920007B681B686FF010021A617B6808221A7787
:105930007B681B68DB6903F44073002B03D0786835
:1059400000F036F905E0786800F028F9786800F092
:1059500039F97B6800221A777B681B681B6903F0A2
:105960000103002B0ED07B681B68DB6803F001038A
:10597000002B07D07B681B686FF001021A61786802
:10598000FBF746FD7B681B681B6903F08003002B57
:105990000ED07B681B68DB6803F08003002B07D008
:1059A0007B681B686FF080021A61786800F074FBF6
:1059B0007B681B681B6903F04003002B0ED07B68DB
:1059C0001B68DB6803F04003002B07D07B681B6873
:1059D0006FF040021A61786800F0FEF87B681B687F
:1059E0001B6903F02003002B0ED07B681B68DB686B
:1059F00003F02003002B07D07B681B686FF02002A8
:105A00001A61786800F03EFB0837BD4680BD00BFD4
:105A100080B584B000AFF860B9607A60FB6893F835
:105A20003C30012B01D10223B4E0FB68012283F852
:105A30003C20FB68022283F83D207B680C2B00F29F
:105A40009F8001A252F823F07D5A0008815B000874
:105A5000815B0008815B0008BD5A0008815B00087B
:105A6000815B0008815B0008FF5A0008815B000829
:105A7000815B0008815B00083F5B0008FB681B68D6
:105A80001846B96800F018F9FB681B68FA681268D4
:105A9000926942F008029A61FB681B68FA68126812
:105AA000926922F004029A61FB681B68FA68126826
:105AB0009169BA6812690A439A6162E0FB681B68DF
:105AC0001846B96800F064F9FB681B68FA68126848
:105AD000926942F400629A61FB681B68FA68126876
